S0210000466F72645F3336305F4C69676874696E675F50726F6A6563742E73726563B5
S11300000C9428000C9445000C9445000C94450075
S11300100C9445000C9445000C9445000C94450048
S11300200C9445000C9445000C943E030C9445003C
S11300300C94D0010C9445000C9445000C9445009C
S11300400C9445000C9445000C9445000C94450018
S113005011241FBECFEFD2E0DEBFCDBF11E0A0E080
S1130060B1E0E8E5F7E002C005900D92A630B107D3
S1130070D9F721E0A6E0B1E001C01D92AA39B20788
S1130080E1F70E945F010C94AA030C9400000F9303
S11300901F930091060110910701209108013091EE
S11300A00901DC01CB01802B912BA22BB32B809374
S11300B0060190930701A0930801B09309011F91D1
S11300C00F910895A12CB12C01E010E0CA2DDB2D75
S11300D0B8010C2E02C0660F771F0A94E2F7072EB0
S11300E0000C880B990BC0900601D0900701E0909A
S11300F00801F09009012B013C014C205D206E2089
S11301007F206415750586059705A1F42B013C0134
S11301104094509460947094C420D520E620F72035
S1130120C0920601D0920701E0920801F092090101
S11301300E948A012196C530D10551F6C7CF08988F
S11301400998109A119A90E89093C8001092CA00E6
S1130150EDECF0E01082AEECB0E01C92252F3327DA
S11301602C934083803421F488E48093C80005C034
S1130170811109C088E08093C8008FE08093CA0091
S1130180789481E0089580E00895E8ECF0E09081AF
S11301909C7F90838034C1F4E0EDF0E08081807F27
S11301A0808380816F70682B608380818F7C8083E3
S11301B0808150E04C5F5F4F440F551F440F551F23
S11301C04073482B40830BC0811113C0E0EDF0E075
S11301D08081807C808380816F73682B6083E8ECEE
S11301E0F0E080818C7F808380818160808381E0E6
S11301F0089580E00895803431F4E8ECF0E08081E3
S11302008064808309C0811111C0E8ECF0E0808132
S113021080836F706093CF00E8ECF0E080818C7F86
S1130220808380818260808381E0089580E00895E6
S1130230803431F4E8ECF0E08081806480830BC08A
S1130240811125C0E8ECF0E080818083842F8295C1
S1130250807F8093CF001092D100442371F0FB0182
S1130260415050E04F5F5F4F640F751FA2EDB0E047
S113027081918C93E617F707D9F7E8ECF0E08081D9
S11302808C7F808380818360808381E0089580E017
S113029008952091CF002F701092D100222371F085
S11302A0FC01215030E02F5F3F4F820F931FA2EDDE
S11302B0B0E02C912193E817F907D9F70895F89441
S11302C0E1E6F0E080E8808310820E949A020E94B6
S11302D072020E94710178940E94620080E090E0B2
S11302E0089510922A014AE051E06AE171E08AE23D
S11302F091E00E94A70167E470E081E091E00E9430
S1130300BE0244EF51E060E070E081E091E00E94C1
S11303100B0308956430710581059105B9F480914A
S113032000010E94CA0180910001813121F482E020
S11303308093000103C08F5F8093000144EF51E07C
S113034060E070E081E091E00E940B030895EF9279
S1130350FF920F931F93CF93DF937C018B01EA01EC
S113036040E05BE460E070E080E00E949F00F09277
S11303703101E092300110932F0100932E01D093AC
S11303802D01C0932C01DF91CF911F910F91FF900C
S1130390EF90089542E0682F80E00E94C500089520
S11303A01F920F920FB60F9211242F933F934F93E6
S11303B05F936F937F938F939F93AF93BF93EF93C9
S11303C0FF939091C9009F70923009F46EC018F4A5
S11303D09130F1F176C0943021F0983009F469C07D
S11303E070C09091D000692F6F73E0913001F0914B
S11303F031018081681305C062E080E00E94FB0047
S113040023C0282F2160621309C060912C017091D0
S11304102D0142E080E00E94180116C0811114C031
S113042090FD0EC070E06250710980912E01909190
S11304302F01680F791F42E080E00E94180104C078
S113044062E080E00E94FB0084E08093C90039C030
S1130450E0913001F09131019081911116C08091A9
S1130460D000282F217030E02250310980912C01D6
S113047090912D01820F931F0E94490168E070E062
S113048080E090E00E9447000CC080912E01909182
S11304902F010E94490161E070E080E090E00E9439
S11304A0470081E08093C9000CC082E08093C900BA
S11304B008C080912B018F5F80932B0188E080938B
S11304C0C900FF91EF91BF91AF919F918F917F915F
S11304D06F915F914F913F912F910F900FBE0F90AD
S11304E01F9018952FB7F8941092820010926F0005
S11304F084E28093830084B1886184B98FE193E0BE
S113050090938700809386008FEF9FEF90938900EC
S11305108093880090938B0080938A0082EF80936D
S11305208000E1E8F0E088E180838081816080835D
S11305302FBF0895E2E3F1E0A6E3B1E08AE991E098
S113054011821082138212821C92158216821782E3
S1130550108611861286138614863D961D96E8171A
S1130560F90771F715BC16BC18BC88B5835888BD4B
S113057082E080936E0084E086BD0895CF93DF937C
S1130580C0913201D0913301C817D90709F440C092
S1130590A2E3B1E04DE851E0FD0125853685281739
S11305A03907B1F13D96E417F507B9F72CC01D964C
S11305B04D915C911E97452BF9F402C020E030E088
S11305C0F901EE0FFF1FE20FF31FEE0FFF1FEE0FF7
S11305D0FF1F2E0F3F1FF901EE5CFE4F91838083B6
S11305E073836283148215821682178210861186A1
S11305F01286138614860CC02F5F3F4F1D96283039
S11306003105A9F605C0CD2BC9F221E030E0CFCFEA
S1130610DF91CF9108952091320130913301281751
S1130620390751F0E2E3F1E021E030E0A585B68539
S1130630A817B907E1F402C020E030E0F901EE0F99
S1130640FF1FE20FF31FEE0FFF1FEE0FFF1F2E0F12
S11306503F1FF901EE5CFE4F81E084831582168210
S113066017821086418752876387748708952F5FA6
S11306703F4F3D9628303105C9F608951F920F92D9
S11306800FB60F921124EF92FF920F931F932F93A3
S11306903F934F935F936F937F938F939F93AF9306
S11306A0BF93CF93DF93EF93FF9388B5835888BDAF
S11306B006E311E0C2E3D1E00F2EFAE9EF2EF1E0F8
S11306C0FF2EF02DF8018081882339F18D819E81E0
S11306D0AF81B8850196A11DB11D8D839E83AF8323
S11306E0B88789859A85AB85BC850197A109B1092D
S11306F089879A87AB87BC87892B8A2B8B2B69F4D4
S11307001082EA81FB81309741F088819981DC0174
S11307106D917D918D919C910995035F1F4F2D964D
S1130720CE15DF0579F6FF91EF91DF91CF91BF915F
S1130730AF919F918F917F916F915F914F913F9175
S11307402F911F910F91FF90EF900F900FBE0F907C
S10B07501F901895F894FFCFE7
S109075802040000000091
S9030000FC
