:100000000C9473000C941D020C9490000C949000BE
:100010000C9490000C9490000C9490000C94900020
:100020000C9490000C94B1000C94F4040C94900087
:100030000C9468060C9490000C9490030C9492001D
:100040000C9490000C9490000C9490000C949000F0
:10005000415445312F7241545E534943413D312C47
:10006000332F7241545E534953533D302C227372E7
:100070007654797065222C22736F636B6574222F1E
:100080007241545E534953533D302C22636F6E4985
:1000900064222C332F7241545E534953533D302C0C
:1000A0002261646472657373222C22736F636B74B4
:1000B00063703A2F2F6C697374656E65723A3230D3
:1000C00030303B6574783D32363B6175746F636FD9
:1000D0006E6E6563743D31222F7241545E534953F5
:1000E0004F3D302F720011241FBECFEFD2E0DEBF94
:1000F000CDBF11E0A0E0B1E0E6EAFFE002C005906C
:100100000D92AE30B107D9F722E0AEE0B1E001C008
:100110001D92A631B207E1F70E94A8020C94D10704
:100120000C9400001F920F920FB60F9211248F9320
:100130009F93EF93FF93EAE7F0E0808180618083F3
:100140008091780090917900909301018093000153
:10015000FF91EF919F918F910F900FBE0F901F9085
:1001600018951F920F920FB60F9211248F93EF9351
:10017000FF9380910E01882319F0813039F00CC073
:10018000E3E8F0E080818062808306C0E3E8F0E08D
:1001900080818F7D80832B9880910E018F5F83708B
:1001A00080930E01FF91EF918F910F900FBE0F90F2
:1001B0001F901895CF93DF9300D0CDB7DEB79B018A
:1001C00093E099838A83AE014F5F5F4F61E082E0E5
:1001D0000E9416030F900F90DF91CF910895CF9357
:1001E000DF9300D000D0CDB7DEB795E099838A8346
:1001F0006B83FA0180818C8320E030E0AE014F5F99
:100200005F4F60E084E00E9416030F900F900F9004
:100210000F90DF91CF910895EF92FF920F931F936C
:10022000CF93DF93082F192F8FE091E09093110166
:100230008093100160E171E085E60E94DA00209170
:100240000F012223C1F0C02FD12FE02EF12EE20E9C
:10025000F11CE20EF11C16E689919991909311011F
:100260008093100160E171E0812F0E94DA001F5F2E
:10027000CE15DF0589F7DF91CF911F910F91FF9088
:10028000EF900895CF92DF92EF92FF920F931F931A
:100290000091120110911301209114013091150168
:1002A0006B017C01C022D122E222F3226C157D0574
:1002B0008E059F05A1F46B017C01C094D094E0945D
:1002C000F0940C211D212E213F2100931201109347
:1002D000130120931401309315010E94F7011F911F
:1002E0000F91FF90EF90DF90CF9008950F931F93A1
:1002F0000091120110911301209114013091150108
:10030000DC01CB01802B912BA22BB32B809312010C
:1003100090931301A0931401B09315011F910F91B5
:10032000089561E070E080E090E00E94420162E0A8
:1003300070E080E090E00E94420164E070E080E0C4
:1003400090E00E94420168E070E080E090E00E944E
:10035000420160E170E080E090E00E94420160E2D2
:1003600070E080E090E00E94420160E470E080E094
:1003700090E00E94420160E870E080E090E00E941E
:10038000420160E071E080E090E00E94420160E0A4
:1003900072E080E090E00E94420160E074E080E062
:1003A00090E00E94420160E078E080E090E00E94EE
:1003B000420160E070E180E090E00E94420160E074
:1003C00070E280E090E00E94420160E070E480E032
:1003D00090E00E944201A5CF0E9440040E94D802F2
:1003E0000E9480070E9408020E9497020895CF92FF
:1003F000DF92EF92FF926B017C010E94EB02C7013A
:10040000B6010E948307FF90EF90DF90CF90089590
:100410002698E9E6F0E080818E7F8083808182608B
:100420008083E89AE09A089560911601709117010F
:10043000809118019091190108951F920F920FB6A3
:100440000F9211240F931F932F933F934F935F931A
:100450006F937F938F939F93AF93BF93EF93FF938C
:10046000CF93DF93CDB7DEB76197DEBFCDBF80916D
:10047000160190911701A0911801B09119010196F0
:10048000A11DB11D8093160190931701A09318012F
:10049000B09319018E010F5F1F4F80E1F801119297
:1004A0008A95E9F7C8010E94B602C8010E940C01B2
:1004B000198AAE014F5E5F4F6FEF8CE20E94EF0032
:1004C00061960FB6F894DEBF0FBECDBFDF91CF911E
:1004D000FF91EF91BF91AF919F918F917F916F911C
:1004E0005F914F913F912F911F910F910F900FBEF0
:1004F0000F901F90189590911A0181E089278093A1
:100500001A0181110AC0139842E050E060E070E0E7
:100510008BE191E00E94B3040895139A43E250E006
:1005200060E070E08BE191E00E94B3040895139ABB
:100530000B9A6BE772E08BE191E00E94660443E264
:1005400050E060E070E08BE191E00E94B304089518
:10055000F894E1E6F0E080E8808310820E94EC01EC
:1005600078940E94910180E090E00895FC0186E279
:1005700091E09183808385E291E09383828384E29A
:1005800091E09583848383E291E09783868382E27E
:1005900091E09187808781E291E09387828780E272
:1005A00091E0958784878FE191E09787868708950A
:1005B0000E94690566E771E088E091E00E946604A8
:1005C00048E853E160E070E088E091E00E94B30405
:1005D0002A98229A08950F93603471058105910538
:1005E00019F580910301882359F001E026E031E0FC
:1005F00044E051E060E083E00E94EA0510920301CC
:1006000080910201882321F02A9A1092020104C0ED
:100610002A9881E0809302014AEF50E060E070E0A8
:1006200088E091E00E94B3040F910895AF92BF92C9
:10063000CF92DF92EF92FF920F931F93CF93DF93AE
:10064000D82EC62EEA0179010E9414026093280177
:100650007093290180932A0190932B018D2D90E0B6
:100660008C010E5F1F4F2091310130E0DE011297A7
:10067000C901880F991F820F931F880F991FE0E00F
:10068000F0E09C01275B3E4F59012F5F3F4F3097B1
:1006900019F4E501D8820EC0E130F10519F4E90141
:1006A000C88208C06C91AF01480F591F475B5E4F6D
:1006B000EA01688331961196E017F10744F322C0EE
:1006C000809131018A3019F41092310103C08F5F9B
:1006D000809331010E943D04811117C060E078E0F1
:1006E00080E090E00E94760110C0F7018081918146
:1006F000E0913101F0E0EE0FFF1FED5CFE4F9183C2
:100700008083DECFC110F1CFDBCFDF91CF911F917E
:100710000F91FF90EF90DF90CF90BF90AF90089532
:100720001F920F920FB60F9211242F933F934F9366
:100730005F936F937F938F939F93AF93BF93EF9349
:10074000FF9380918B01811187C08DB580912C0121
:100750008823E1F090912F0180912E018917A0F05C
:10076000981307C080912D01811103C010922C01B4
:100770000DC060E070E180E090E00E947601809121
:100780002C01811169C002C010922C0190912D01A1
:100790009923E9F08091300120913201E82FF0E0B7
:1007A000E20FF11DEE0FFF1FED5CFE4F0190F08197
:1007B000E02D2EB520838F5F80933001891738F4A8
:1007C00060E070E280E090E00E94760145C03091E8
:1007D0003201832F90E0AC01440F551FFA01E80F5E
:1007E000F91FEE0FFF1FE75BFE4F2FEF20832183E2
:1007F000228323832483FA01E80FF91FEE0FFF1FE2
:10080000E75BFE4F2583FA01ED5CFE4F11821082FB
:100810003A3019F41092320103C03F5F3093320135
:1008200020913201822F90E0820F911D820F911D45
:10083000880F991FFC01E75BFE4F80818F3F31F0ED
:1008400060E078E080E090E00E94760160E070E493
:1008500080E090E00E947601FF91EF91BF91AF910F
:100860009F918F917F916F915F914F913F912F91C8
:100870000F900FBE0F901F90189580918C010895D6
:10088000EDE8F1E0A1E9B1E085EF91E0118210829D
:10089000138212821C92158216821782108611868C
:1008A0001286138614863D961D96E817F90771F790
:1008B00015BC16BC18BC88B5835888BD82E08093EF
:1008C0006E0016BC86B5836086BD0895CF93DF9316
:1008D000C0918D01D0918E01C817D90709F440C08D
:1008E000ADE8B1E048EE51E0FD01258536852817D9
:1008F0003907B1F13D96E417F507B9F72CC01D96FD
:100900004D915C911E97452BF9F402C020E030E038
:10091000F901EE0FFF1FE20FF31FEE0FFF1FEE0FA7
:10092000FF1F2E0F3F1FF901E357FE4F9183808376
:100930007383628314821582168217821086118651
:100940001286138614860CC02F5F3F4F1D962830E9
:100950003105A9F605C0CD2BC9F221E030E0CFCF9B
:10096000DF91CF910895CF92DF92EF92FF92209185
:100970008D0130918E012817390751F0EDE8F1E033
:1009800021E030E0A585B685A817B90711F502C0AA
:1009900020E030E0F901EE0FFF1FE20FF31FEE0F32
:1009A000FF1FEE0FFF1F2E0F3F1FF901E357FE4FF2
:1009B00081E0848315821682178210866A017B018A
:1009C000CC0CDD1CEE1CFF1CC186D286E386F486AF
:1009D00006C02F5F3F4F3D962830310599F6FF90B6
:1009E000EF90DF90CF9008951F920F920FB60F9265
:1009F0001124EF92FF920F931F932F933F934F93E6
:100A00005F936F937F938F939F93AF93BF93CF9396
:100A1000DF93EF93FF9388B5835888BD01E911E018
:100A2000CDE8D1E00F2EF5EFEF2EF1E0FF2EF02D07
:100A3000F8018081882381F19E0189859A85AB85A3
:100A4000BC850097A105B105B9F04D815E816F812C
:100A500078854F5F5F4F6F4F7F4F4D835E836F830E
:100A600078870197A109B10989879A87AB87BC87E5
:100A7000892B8A2B8B2B81F41082D9011296ED9150
:100A8000FC911397309741F08D919C91DC016D9111
:100A90007D918D919C910995035F1F4F2D96CE15E9
:100AA000DF0531F6FF91EF91DF91CF91BF91AF91CB
:100AB0009F918F917F916F915F914F913F912F9176
:100AC0001F910F91FF90EF900F900FBE0F901F900E
:100AD00018952D98259AE8ECF0E080818068808355
:100AE0008EE0808380E88093CC008CE08093CD0002
:100AF0001092CE0081E08093CA00109208021092FA
:100B0000050210920602EDE0F2E08FEF8083818310
:100B100082838383A9E0B2E011961C921E928483A3
:100B200085838683878313961C921E92129708955D
:100B3000E0910802F0E0EE0FFF1FEE0FFF1FE35FF2
:100B4000FD4F808180930402818180930302109283
:100B500006021092050281E0809301020895089533
:100B600080910C01811116C0E0910802F0E08091A3
:100B70000502EE0FFF1FEE0FFF1FE35FFD4FE80FB3
:100B8000F11D82818093D200809105028F5F809356
:100B90000502089520910202822F90E0FC01E05BA3
:100BA000FF4F34913F3259F4FC01EF5AFF4FE4916B
:100BB000E23739F42F5F20930202EDE003C0E491A5
:100BC00001C0EFE2E093D200809102028F5F809338
:100BD00002020895CF92DF92EF92FF920F931F933C
:100BE000CF93DF93D82EC62EEA01790101114FC0B1
:100BF00010920C010E9414026093FD017093FE019B
:100C00008093FF01909300020D2D10E00E5F1F4FA7
:100C10002091070230E0DE011297C901880F991F69
:100C2000880F991FE0E0F0E09C01235F3D4FA90190
:100C30004F5F5F4F309719F4E901D8820DC0E13062
:100C4000F10519F4EA01C88207C06C91EF01C80FE1
:100C5000D91FC35FDD4F688331961196E017F10706
:100C60004CF32AC080910702813019F410920702D8
:100C700003C08F5F809307020E94CE0781111FC0BF
:100C800060E870E080E090E00E94760118C081E0AA
:100C900080930C01109202020E94B00510C0E091F6
:100CA0000702F0E0EE0FFF1FE75FFD4FD7018D91C8
:100CB0009C9191838083D6CFC110F1CFD3CFDF91A8
:100CC000CF911F910F91FF90EF90DF90CF900895FB
:100CD0001F920F920FB60F9211242F933F934F93B1
:100CE0005F936F937F938F939F93AF93BF93EF9394
:100CF000FF938091C90080FF57C0E9ECF0E080814C
:100D0000816080838091FC01882309F18091FB013F
:100D1000882309F4D9C08091FA01882309F4D4C04A
:100D20008091F9019091D200E82FF0E0EC50FE4F55
:100D300090838F5F8093F901853008F4D0C02D9A9D
:100D40001092FC011092FB011092FA01C8C0809130
:100D5000D200843519F51092F90181E08093FC01ED
:100D60008091FB0181110EC019C09091F901913061
:100D7000A9F48A3009F0AEC081E08093FB011092A3
:100D8000F9010CC08091F901813041F484E58D3086
:100D900029F481E08093FA011092F9018091F90120
:100DA0008F5F8093F9019BC08091C900882309F46B
:100DB00096C0E9ECF0E080818260808380910C0134
:100DC000811174C0809101028823E1F090910502A5
:100DD000809104028917A0F0981307C08091030244
:100DE000811103C0109201020DC060E071E080E04B
:100DF00090E00E94760180910102811170C002C0D2
:100E000010920102909103029923C1F08091060291
:100E100020910802E82FF0E0E20FF11DEE0FFF1F16
:100E2000E75FFD4F0190F081E02D2091D2002083FB
:100E30008F5F80930602891708F451C02091080241
:100E4000822F90E0FC01EE0FFF1FEE0FFF1FE35F0C
:100E5000FD4F3FEF3083318332833383880F991FF7
:100E6000FC01E75FFD4F11821082213019F41092CE
:100E7000080203C02F5F20930802E0910802F0E00F
:100E8000EE0FFF1FEE0FFF1FE35FFD4F80818F3FCF
:100E900031F060E870E080E090E00E94760160E070
:100EA00074E080E090E00E94760119C08091020217
:100EB000853918F010920C0112C081E29EE401976E
:100EC000F1F70E94B0050BC08091D200843509F083
:100ED0004CCF41CF9091FB01911159CF5FCFFF9142
:100EE000EF91BF91AF919F918F917F916F915F91A2
:100EF0004F913F912F910F900FBE0F901F9018951B
:100F0000109215020895209115022130A9F018F0D1
:100F1000223089F108956038710581059105E9F560
:100F20000E94980581E08093150260E071E080E006
:100F300090E00E9476010895611521E07207810515
:100F4000910519F40E94B0050895611522E0720719
:100F50008105910531F40E94B00582E0809315026D
:100F600008956115744081059105B9F40E94AF059B
:100F7000109215020895611522E07207810591050E
:100F800019F40E94B005089561157440810591051A
:100F900021F40E94AF051092150208958091150268
:060FA0000895F894FFCF54
:0E0FA600FFFF0101A5B527014000000001007A
:00000001FF
