S0210000466F72645F3336305F4C69676874696E675F50726F6A6563742E73726563B5
S11300000C9473000C94D0030C9490000C94DA00BC
S11300100C9409010C9490000C9490000C949000A2
S11300200C9490000C94B1000C9498070C949000DC
S11300300C9410090C9490000C94DA050C94920022
S11300400C948D020C9490000C9490000C949000ED
S1130050415445312F7241545E534943413D312C43
S1130060332F7241545E534953533D302C227372E3
S11300707654797065222C22736F636B6574222F1A
S11300807241545E534953533D302C22636F6E4981
S113009064222C332F7241545E534953533D302C08
S11300A02261646472657373222C22736F636B74B0
S11300B063703A2F2F6C697374656E65723A3230CF
S11300C030303B6574783D32363B6175746F636FD5
S11300D06E6E6563743D31222F7241545E534953F1
S11300E04F3D302F720011241FBECFEFD2E0DEBF90
S11300F0CDBF11E0A0E0B1E0E2E0F5E102C005907F
S11301000D92A032B107D9F722E0A0E2B1E001C01C
S11301101D92A230B207E1F70E944B040C947F0AAF
S11301200C9400001F920F920FB60F9211248F931C
S11301309F93EF93FF93EAE7F0E0808180618083EF
S1130140809178009091790090930101809300014F
S1130150FF91EF919F918F910F900FBE0F901F9081
S113016018951F920F920FB60F9211248F93EF934D
S1130170FF9380912001882319F0813039F00CC05D
S1130180E3E8F0E080818062808306C0E3E8F0E089
S113019080818F7D80832B98809120018F5F837075
S11301A080932001FF91EF918F910F900FBE0F90DC
S11301B01F9018951F920F920FB60F9211242F9330
S11301C03F934F935F936F937F938F939F93AF93DB
S11301D0BF93EF93FF93E8E6F0E080818E7F808306
S11301E04AE050E060E070E082E091E00E94540751
S11301F0FF91EF91BF91AF919F918F917F916F91FB
S11302005F914F913F912F910F900FBE0F901F90D0
S113021018951F920F920FB60F9211242F933F93AC
S11302204F935F936F937F938F939F93AF93BF93FA
S1130230EF93FF93E8E6F0E080818D7F80834AE0CE
S113024050E060E070E082E091E00E945407FF918A
S1130250EF91BF91AF919F918F917F916F915F913A
S11302604F913F912F910F900FBE0F901F901895B3
S1130270CF93DF931F92CDB7DEB780EC898320E064
S113028030E0AE014F5F5F4F60E081E00E945005B7
S11302900F90DF91CF910895CF93DF9300D0CDB726
S11302A0DEB79B0193E099838A83AE014F5F5F4F72
S11302B061E082E00E9450050F900F90DF91CF9192
S11302C00895CF93DF9300D01F92CDB7DEB792E0AD
S11302D099838A83FB0180818B8320E030E0AE0127
S11302E04F5F5F4F60E083E00E9450050F900F90D6
S11302F00F90DF91CF910895CF93DF9300D000D07A
S1130300CDB7DEB795E099838A836B83FA01808148
S11303108C8320E030E0AE014F5F5F4F60E084E00B
S11303200E9450050F900F900F900F90DF91CF9186
S11303300895CF93DF9390932201809321010E942B
S1130340380180E98093260166E271E08FE00E9423
S113035061011092260146E251E064E08FE00E94C0
S11303607C01D1E4D093260146E251E061E08AE2C7
S11303700E947C01C1EFC093260146E251E067E090
S113038089E20E947C01C093260146E251E068E3C1
S113039089E20E947C01C093260146E251E060ECB0
S11303A089E20E947C0185E88093260166E271E07F
S11303B088E20E946101D093260146E251E060EC9C
S11303C08AE20E947C01DF91CF9108958FEF8093A0
S11303D0260166E271E08BE20E94610183E0809372
S11303E0260166E271E080E30E9461011092260119
S11303F066E271E08DE00E9461011092260166E2DE
S113040071E081E30E94610180E28093260166E24B
S113041071E082E30E9461011092260166E271E0BC
S113042080E00E94610166E271E081E00E94610166
S113043080E68093260166E271E00E9461011092D9
S1130440260146E251E060EE8FE00E947C0183E2E7
S113045091E0909325018093240164E271E08EE0A1
S11304600E944C010895EF92FF920F931F93CF9334
S1130470893030F57B01C82F8093260166E271E054
S113048085E30E946101CC2391F08701EC0EF11CFD
S1130490C6E3F80181918F018093260166E271E041
S11304A08C2F0E946101CF5F0E151F0591F78FEF0E
S11304B08093260146E251E068E080E30E947C01DB
S11304C0CF911F910F91FF90EF9008951F93CF93B9
S11304D0DF9316E6C0E0D0E0609121017091220123
S11304E06C0F7D1F812F0E944C0122961F5FCA3022
S11304F0D10591F7DF91CF911F9108959C019FB78A
S1130500F89432BD21BDFB01808180BD1FBAFA9AE7
S11305108FB38A608FBB9FBF08951F920F920FB64F
S11305200F9211242F933F934F935F936F937F9375
S11305308F939F93AF93BF93CF93EF93FF93FB98C6
S1130540C0912C0180912B01C81718F010922D0135
S113055013C08C2F90E06091270170912801680FDF
S1130560791F2091290130912A01820F931F0E9443
S11305707E02CF5FC0932C01FF91EF91CF91BF9189
S1130580AF919F918F917F916F915F914F913F9127
S11305902F910F900FBE0F901F9018950F931F93DC
S11305A08B019C01EFB7F89440912E0150912F01DB
S11305B06091300170913101D901C80184239523E0
S11305C0A623B72380179107A207B30791F4809558
S11305D09095A095B09584239523A623B723809363
S11305E02E0190932F01A0933001B093310181E04B
S11305F001C080E0EFBF882321F0C901B8010E9447
S1130600A6031F910F910895CF92DF92EF92FF926C
S11306102FB7F894C0902E01D0902F01E0903001B4
S1130620F0903101DC01CB018C299D29AE29BF2931
S113063080932E0190932F01A0933001B093310148
S11306402FBFFF90EF90DF90CF90089561E070E0AE
S113065080E090E00E94CE0262E070E080E090E0F2
S11306600E94CE0264E070E080E090E00E94CE023E
S113067068E070E080E090E00E94CE0260E170E00B
S113068080E090E00E94CE0260E270E080E090E0C2
S11306900E94CE0260E470E080E090E00E94CE020E
S11306A060E870E080E090E00E94CE0260E071E0DB
S11306B080E090E00E94CE0260E072E080E090E092
S11306C00E94CE0260E074E080E090E00E94CE02DE
S11306D060E078E080E090E00E94CE0260E070E1AB
S11306E080E090E00E94CE0260E070E280E090E062
S11306F00E94CE0260E070E480E090E00E94CE02AE
S113070060E070E880E090E00E94CE0260E070E07B
S113071081E090E00E94CE0260E070E082E090E030
S11307200E94CE0260E070E084E090E00E94CE027D
S11307308DCF0E94DE060E9459040E942E0A0E9458
S1130740BB030E943A040E948B060895CF92DF9265
S1130750EF92FF926B017C010E948004C701B601F5
S11307600E94310AC701B6010E949006FF90EF90E3
S1130770DF90CF9008952698E9E6F0E080818E7F9F
S11307808083808182608083E89AE09A08956091F2
S113079032017091330180913401909135010895B3
S11307A01F920F920FB60F9211242F933F934F93E2
S11307B05F936F937F938F939F93AF93BF93EF93C5
S11307C0FF93CF93DF931F92CDB7DEB780913201B1
S11307D090913301A0913401B09135010196A11D8E
S11307E0B11D8093320190933301A0933401B093EF
S11307F035010E9466021982AE014F5F5F4F60E4CB
S11308008DE20E947C01AE014F5F5F4F6FEF8CE27F
S11308100E947C010F90DF91CF91FF91EF91BF91E6
S1130820AF919F918F917F916F915F914F913F9184
S11308302F910F900FBE0F901F9018959091360135
S113084081E089278093360181110AC0139842E020
S113085050E060E070E087E391E00E94540708955F
S1130860139A43E250E060E070E087E391E00E9475
S113087054070895139A0B9A6EE174E087E391E0AC
S11308800E94040743E250E060E070E087E391E0F7
S11308900E9454070895F894E1E6F0E080E880832C
S11308A010820E94990378940E94260380E090E0CD
S11308B008958BE391E00E940D0864E073E08CE0FE
S11308C091E00E94040748E853E160E070E08CE0A6
S11308D091E00E9454072A98229A64E073E08AE126
S11308E091E00E94040748EC50E060E070E08AE187
S11308F091E00E94540780E191E00E9499010895DB
S11309000F93611520E872078105910599F161152E
S1130910710521E08207910531F06034710581058C
S1130920910571F503C00E94E6012AC08091070178
S1130930882359F001E02AE031E048E051E060E02A
S113094083E00E9492081092070180910601882397
S113095021F02A9A1092060104C02A9881E080931B
S113096006014AEF50E060E070E08CE091E00E9404
S1130970540706C06BE371E085E090E00E94330207
S11309800F910895CF93DF931092A00181B18067F6
S113099081B980ED8CBD169A10924F0110924C01D2
S11309A010924D01E9E6F1E0A0E5B1E024E631E082
S11309B08FEFEF012597888321968883219688837A
S11309C0219688832196888380831D921D92369672
S11309D0A217B30771F7DF91CF91089580914F016A
S11309E090E0FC01EE0FFF1FDF01A80FB91FAA0F53
S11309F0BB1FAC59BE4F2C9120934B01FD0181814B
S1130A0080934A012F3F19F491E090934B018F3F5B
S1130A1011F410924A0110924D0110924C0181E0A0
S1130A208093490180914B018F3F99F48091450156
S1130A3090914601A0914701B09148010196A11DF2
S1130A40B11D8093450190934601A0934701B09353
S1130A50480116980895169A089520914F013091EF
S1130A604C01822F90E0820F911D820F911DFC0199
S1130A70EE0FFF1FEC59FE4FE30FF11D82818EBD77
S1130A8080914901882331F080914C018F5F8093DC
S1130A904C01089580914C018F5F80934C0108951F
S1130AA0AF92BF92CF92DF92EF92FF920F931F9378
S1130AB0CF93DF93D82EC62EEA0179010E94C70393
S1130AC060934501709346018093470190934801D8
S1130AD08D2D90E08C010E5F1F4F20914E0130E070
S1130AE0DE011297C901880F991F820F931F880F87
S1130AF0991FE0E0F0E09C012C593E4F59012F5F13
S1130B003F4F309719F4E501D8820EC0E130F1056A
S1130B1019F4E901C88208C06C91AF01480F591F4C
S1130B204C595E4FEA01688331961196E017F1073C
S1130B3044F332C080914E01893019F410924E0171
S1130B4003C08F5F80934E010E94DB06811127C092
S1130B5020914F01822F90E0820F911D820F911DF1
S1130B60880F991FFC01EC59FE4F80818F3FB9F02B
S1130B7060E078E080E090E00E94040310C0F70198
S1130B8080819181E0914E01F0E0EE0FFF1FE05B68
S1130B90FE4F91838083CECFC110F1CFCBCFDF91B5
S1130BA0CF911F910F91FF90EF90DF90CF90BF9066
S1130BB0AF9008951F920F920FB60F9211242F93A6
S1130BC03F934F935F936F937F938F939F93AF93D1
S1130BD0BF93EF93FF938091A00181118BC08DB5DA
S1130BE0809149018823E1F090914C0180914B015F
S1130BF08917A0F0981307C080914A01811103C09E
S1130C00109249010DC060E070E180E090E00E9424
S1130C1004038091490181116DC002C01092490101
S1130C2090914A01992309F180914D0120914F013E
S1130C30E82FF0E0E20FF11DEE0FFF1FE05BFE4F27
S1130C400190F081E02D309711F42EB502C02EB53D
S1130C5020838F5F80934D01891738F460E070E240
S1130C6080E090E00E94040345C030914F01832F3F
S1130C7090E0AC01440F551FFA01E80FF91FEE0F85
S1130C80FF1FEC59FE4F2FEF208321832283238300
S1130C902483FA01E80FF91FEE0FFF1FEC59FE4FF2
S1130CA02583FA01E05BFE4F11821082393019F47A
S1130CB010924F0103C03F5F30934F0120914F01C9
S1130CC0822F90E0820F911D820F911D880F991F32
S1130CD0FC01EC59FE4F80818F3F31F060E078E0F9
S1130CE080E090E00E94040360E070E480E090E023
S1130CF00E940403FF91EF91BF91AF919F918F9157
S1130D007F916F915F914F913F912F910F900FBE03
S1130D100F901F9018951092A1010E94C20408958B
S1130D202091A1012130A9F018F0223089F1089511
S1130D306115784081059105E9F50E94EE0481E092
S1130D408093A10160E070E180E090E00E940403E0
S1130D500895611520E172078105910519F40E9437
S1130D602D050895611520E272078105910531F47E
S1130D700E942D0582E08093A101089561157044BD
S1130D8081059105B9F40E942B051092A1010895E3
S1130D90611520E272078105910519F40E942D0561
S1130DA00895611570448105910521F40E942B0575
S1130DB01092A10108958091A1010895E2EAF1E061
S1130DC0A6EAB1E083EE91E01182108213821282CE
S1130DD01C9215821682178210861186128613863B
S1130DE014863D961D96E817F90771F715BC16BCD5
S1130DF018BC88B5835888BD82E080936E0016BC09
S1130E0086B5836086BD0895CF93DF93C091A20118
S1130E10D091A301C817D90709F443C0A2EAB1E0ED
S1130E2046ED51E0FD012585368528173907C9F1BE
S1130E303D96E417F507B9F72FC01D964D915C91C7
S1130E401E97452B11F502C020E030E04FB7F8940F
S1130E50F901EE0FFF1FE20FF31FEE0FFF1FEE0F5E
S1130E60FF1F2E0F3F1FF901EE55FE4F9183808324
S1130E707383628314821582168217821086118608
S1130E801286138614864FBF0CC02F5F3F4F1D96EA
S1130E902530310591F605C0CD2BB1F221E030E0CB
S1130EA0CCCFDF91CF910895CF92DF92EF92FF9252
S1130EB02091A2013091A3012817390751F0E2EAE9
S1130EC0F1E021E030E0A585B685A817B90729F53A
S1130ED002C020E030E08FB7F894F901EE0FFF1F55
S1130EE0E20FF31FEE0FFF1FEE0FFF1F2E0F3F1F2A
S1130EF0F901EE55FE4F91E0948315821682178214
S1130F0010866A017B01CC0CDD1CEE1CFF1CC18623
S1130F10D286E386F4868FBF06C02F5F3F4F3D968F
S1130F202530310581F6FF90EF90DF90CF90089542
S1130F301F920F920FB60F921124EF92FF920F930C
S1130F401F932F933F934F935F936F937F938F934D
S1130F509F93AF93BF93CF93DF93EF93FF9388B5A2
S1130F60835888BD06EA11E0C2EAD1E00F2EF3EE01
S1130F70EF2EF1E0FF2EF02DF8018081882381F11E
S1130F809E0189859A85AB85BC850097A105B1052D
S1130F90B9F04D815E816F8178854F5F5F4F6F4FF0
S1130FA07F4F4D835E836F8378870197A109B109D1
S1130FB089879A87AB87BC87892B8A2B8B2B81F4F3
S1130FC01082D9011296ED91FC911397309741F05C
S1130FD08D919C91DC016D917D918D919C910995F0
S1130FE0035F1F4F2D96CE15DF0531F6FF91EF916C
S1130FF0DF91CF91BF91AF919F918F917F916F912D
S11310005F914F913F912F911F910F91FF90EF901E
S11310100F900FBE0F901F9018952D98259AE8EC0D
S1131020F0E02081206820832EE0208320E82093B4
S1131030CC002CE02093CD001092CE0021E0209330
S1131040CA001092F4011092F1011092F2019093EF
S1131050E4018093E301E9EFF1E08FEF8083818382
S113106082838383A5EFB1E011961C921E92848340
S113107085838683878313961C921E921297089504
S1131080E091F401F0E0EE0FFF1FEE0FFF1FE750B9
S1131090FE4F80818093F00181818093EF01109253
S11310A0F2011092F10181E08093ED010895089519
S11310B080911E01811116C0E091F401F0E080914D
S11310C0F101EE0FFF1FEE0FFF1FE750FE4FE80F79
S11310D0F11D82818093D2008091F1018F5F809312
S11310E0F10108952091EE01822F90E0FC01E05B74
S11310F0FF4F34913F3259F4FC01EF5AFF4FE49112
S1131100E23739F42F5F2093EE01EDE003C0E49160
S113111001C0EFE2E093D2008091EE018F5F8093F3
S1131120EE010895CF92DF92EF92FF920F931F93F7
S1131130CF93DF93D82EC62EEA01790101114FC057
S113114010921E010E94C7036093E9017093EA01A3
S11311508093EB019093EC010D2D10E00E5F1F4F77
S11311602091F30130E0DE011297C901880F991F25
S1131170880F991FE0E0F0E09C0127503E4FA90141
S11311804F5F5F4F309719F4E901D8820DC0E13009
S1131190F10519F4EA01C88207C06C91EF01C80F88
S11311A0D91FC750DE4F688331961196E017F107B7
S11311B04CF32AC08091F301813019F41092F301A9
S11311C003C08F5F8093F3010E947C0A81111FC0CA
S11311D060E870E080E090E00E94040318C081E0C1
S11311E080931E011092EE010E94580810C0E091F5
S11311F0F301F0E0EE0FFF1FEB50FE4FD7018D918E
S11312009C9191838083D6CFC110F1CFD3CFDF914E
S1131210CF911F910F91FF90EF90DF90CF900895A1
S11312201F920F920FB60F9211242F933F934F9357
S11312305F936F937F938F939F93AF93BF93EF933A
S1131240FF938091C90080FF5FC0E9ECF0E08081EA
S1131250816080838091E801882341F18091E701D6
S1131260882321F18091E601882301F18091E50131
S11312709091D200E091E301F091E401E80FF11DB7
S1131280319790838F5F8093E501853008F4D5C052
S11312902D9A1092E8011092E7011092E60160E0A5
S11312A070E880E090E00E940403C7C02D9880910C
S11312B0D200843531F41092E50181E08093E80195
S11312C01DC09091E801992399F09091E501913026
S11312D079F48D3009F0ACC081E08093E70110927D
S11312E0E5010CC081E08093E6011092E50106C09F
S11312F01092E8011092E7011092E6018091E50155
S11313008F5F8093E50199C08091C900882309F417
S113131094C0E9ECF0E080818260808380911E01BA
S1131320811174C08091ED018823E1F09091F10165
S11313308091F0018917A0F0981307C08091EF0104
S1131340811103C01092ED010DC060E071E080E0F6
S113135090E00E9404038091ED0181116EC002C0EF
S11313601092ED019091EF019923C1F08091F20167
S11313702091F401E82FF0E0E20FF11DEE0FFF1FC2
S1131380EB50FE4F0190F081E02D2091D20020839C
S11313908F5F8093F201891708F44FC02091F40104
S11313A0822F90E0FC01EE0FFF1FEE0FFF1FE750AE
S11313B0FE4F3FEF3083318332833383880F991F8D
S11313C0FC01EB50FE4F11821082213019F410926F
S11313D0F40103C02F5F2093F401E091F401F0E0E5
S11313E0EE0FFF1FEE0FFF1FE750FE4F80818F3F70
S11313F031F060E870E080E090E00E94040360E077
S113140074E080E090E00E94040317C08091EE0134
S1131410853918F010921E0110C081E29EE40197F4
S1131420F1F70E94580809C08A3009F061CF5ACFF9
S11314309091E7019111F8CF5BCFFF91EF91BF91AC
S1131440AF919F918F917F916F915F914F913F9158
S11314502F910F900FBE0F901F90189510920102BC
S11314600895209101022130A9F018F0223089F169
S113147008956038710581059105E9F50E944008D9
S113148081E08093010260E071E080E090E00E94DE
S113149004030895611521E072078105910519F48B
S11314A00E9458080895611522E07207810591058C
S11314B031F40E94580882E0809301020895611576
S11314C0744081059105B9F40E94570810920102F5
S11314D00895611522E072078105910519F40E94AF
S11314E058080895611574408105910521F40E94FE
S11314F05708109201020895809101020895F8940A
S1051500FFCF17
S1131502FFFF000002000101A5B53F0140000000F9
S11315124001410142014301440100000100010074
S9030000FC
