:100000000C946C000C9408040C9489000C94370137
:100010000C9466010C9489000C9489000C9489005E
:100020000C9489000C94E3000C948B0C0C948900C4
:100030000C94E4080C9477090C94D70A0C94A4004F
:100040000C94D0020C9489000C9489000C948900C3
:100050001800D0FF00000E01DC05DC051E000118B1
:1000600000EBFF0000B400CA0858021E000118008F
:1000700001000000B400CA0858021E000118001D4B
:10008000000000B400CA0858021E00010000010070
:100090005A000E01CA0858021E0001E8FF1D00B4F4
:1000A000000000CA0858021E0001E8FF0100B40069
:1000B0000000CA0858021E0001E8FFEBFFB4000070
:1000C00000CA0858021E0001E8FFD0FF5A000000D5
:1000D000DC05DC051E00010011241FBECFEFD2E0BD
:1000E000DEBFCDBF11E0A0E0B1E0E8E4FFE102C077
:1000F00005900D92AC31B107D9F722E0ACE1B1E047
:1001000001C01D92AF36B207E1F70E9478070C9448
:10011000A20F0C940000ECE7F0E080818F7B8083DD
:10012000A7E7B0E08C918B7F8C938081886080837F
:100130008081887F8083EAE7F0E08081886880831F
:100140008081887F808308951F920F920FB60F924F
:1001500011248F939F93EF93FF93EAE7F0E0808160
:100160008061808380917800909179009093010163
:1001700080930001FF91EF919F918F910F900FBE9F
:100180000F901F901895FC016F3F8FEF7807A9F033
:10019000828593858617970728F420853185261751
:1001A000370768F06817790760F481E020853185AA
:1001B0006217730738F480E0089580E0089580E0C6
:1001C000089581E008951F920F920FB60F921124A7
:1001D0008F93EF93FF9380911C01882319F0813056
:1001E00039F00CC0E3E8F0E080818062808306C0D3
:1001F000E3E8F0E080818F7D80832B9880911C0163
:100200008F5F837080931C01FF91EF918F910F900E
:100210000FBE0F901F90189590B190931E0183B15F
:1002200080931D019093200180931F0165E473E08A
:1002300082E091E00E94FD0BE8E6F0E080818360BF
:1002400080830895611570428105910579F490B11C
:1002500090931E0183B180931D01909320018093A0
:100260001F01E8E6F0E080818360808308951F929B
:100270000F920FB60F9211242F933F934F935F93DA
:100280006F937F938F939F93AF93BF93EF93FF935E
:10029000E8E6F0E080818E7F80834AE050E060E015
:1002A00070E082E091E00E944A0CFF91EF91BF91D3
:1002B000AF919F918F917F916F915F914F913F91FE
:1002C0002F910F900FBE0F901F9018951F920F92B5
:1002D0000FB60F9211242F933F934F935F936F9319
:1002E0007F938F939F93AF93BF93EF93FF93E8E632
:1002F000F0E080818D7F80834AE050E060E070E034
:1003000082E091E00E944A0CFF91EF91BF91AF9182
:100310009F918F917F916F915F914F913F912F911D
:100320000F900FBE0F901F901895CF93DF931F92E1
:10033000CDB7DEB780EC898320E030E0AE014F5FBF
:100340005F4F60E081E00E944D0A0F90DF91CF91F6
:100350000895CF93DF9300D0CDB7DEB79B0193E034
:1003600099838A83AE014F5F5F4F61E082E00E9414
:100370004D0A0F900F90DF91CF910895CF93DF93A7
:1003800000D01F92CDB7DEB792E099838A83FB013C
:1003900080818B8320E030E0AE014F5F5F4F60E0F3
:1003A00083E00E944D0A0F900F900F90DF91CF9144
:1003B0000895CF93DF9300D000D0CDB7DEB795E09E
:1003C00099838A836B83FA0180818C8320E030E0FB
:1003D000AE014F5F5F4F60E084E00E944D0A0F90D6
:1003E0000F900F900F90DF91CF910895CF93DF93EF
:1003F00090932201809321010E94950180E98093CE
:10040000260166E271E08FE00E94BE011092260193
:1004100046E251E064E08FE00E94D901D1E4D0933C
:10042000260146E251E061E08AE20E94D901C1EF73
:10043000C093260146E251E067E089E20E94D901BB
:10044000C093260146E251E068E389E20E94D901A7
:10045000C093260146E251E060EC89E20E94D90196
:1004600085E88093260166E271E088E20E94BE0181
:10047000D093260146E251E060EC8AE20E94D90165
:10048000DF91CF9108958FEF8093260166E271E0AE
:100490008BE20E94BE0183E08093260166E271E058
:1004A00080E30E94BE011092260166E271E08DE0B9
:1004B0000E94BE011092260166E271E081E30E9473
:1004C000BE0180E28093260166E271E082E30E9431
:1004D000BE011092260166E271E080E00E94BE013A
:1004E00066E271E081E00E94BE0180E68093260111
:1004F00066E271E00E94BE011092260146E251E0E0
:1005000060EE8FE00E94D90183E291E09093250193
:100510008093240164E271E08EE00E94A9010895B5
:100520001F93CF93DF9316E6C0E0D0E060912101E6
:10053000709122016C0F7D1F812F0E94A9012296CC
:100540001F5FCA30D10591F7DF91CF911F910895B8
:10055000FC0180810895FC01818192810895FC0154
:1005600060830895FC0172836183089570E0615097
:1005700071099B01220F331F620F731F860F971F94
:1005800008959C019FB7F89432BD21BDFB01808185
:1005900080BD1FBAFA9A8FB38A608FBB9FBF089540
:1005A0001F920F920FB60F9211242F933F934F93E8
:1005B0005F936F937F938F939F93AF93BF93CF93EB
:1005C000EF93FF93FB98C0912C0180912B01C817EA
:1005D00018F010922D0113C08C2F90E0609127012C
:1005E00070912801680F791F2091290130912A010B
:1005F000820F931F0E94C102CF5FC0932C01FF9115
:10060000EF91CF91BF91AF919F918F917F916F911A
:100610005F914F913F912F910F900FBE0F901F90C0
:100620001895CF92DF92EF92FF920F931F93009154
:100630002E0110912F0120913001309131016B0179
:100640007C01C022D122E222F3226C157D058E05A9
:100650009F05A1F46B017C01C094D094E094F094C8
:100660000C211D212E213F2100932E0110932F01DB
:1006700020933001309331010E94DE031F910F91CE
:10068000FF90EF90DF90CF9008950F931F9300910C
:100690002E0110912F012091300130913101DC01A8
:1006A000CB01802B912BA22BB32B80932E01909307
:1006B0002F01A0933001B09331011F910F91089544
:1006C00061E070E080E090E00E94110362E070E081
:1006D00080E090E00E94110364E070E080E090E030
:1006E0000E94110368E070E080E090E00E94110336
:1006F00060E170E080E090E00E94110360E270E051
:1007000080E090E00E94110360E470E080E090E0FF
:100710000E94110360E870E080E090E00E94110305
:1007200060E071E080E090E00E94110360E072E020
:1007300080E090E00E94110360E074E080E090E0CF
:100740000E94110360E078E080E090E00E941103D5
:1007500060E070E180E090E00E94110360E070E2F0
:1007600080E090E00E94110360E070E480E090E09F
:100770000E94110360E070E880E090E00E941103A5
:1007800060E070E081E090E00E94110360E070E0C2
:1007900082E090E00E94110393CF0E94D70B0E9449
:1007A00067070E948D090E94F3030E948B000E943C
:1007B0000C010E94840B0E949E070895CF92DF9245
:1007C000EF92FF926B017C010E942201C701B601EA
:1007D0000E94F007C701B6010E94890BFF90EF90BD
:1007E000DF90CF9008952698E9E6F0E080818E7F33
:1007F0008083808182608083E89AE09A0895609186
:100800003201709133018091340190913501089546
:100810001F920F920FB60F9211242F933F934F9375
:100820005F936F937F938F939F93AF93BF93EF9358
:10083000FF93CF93DF931F92CDB7DEB78091320144
:1008400090913301A0913401B09135010196A11D21
:10085000B11D8093320190933301A0933401B09382
:1008600035010E9490021982AE014F5F5F4F60E434
:100870008DE20E94D901AE014F5F5F4F6FEF8CE2B6
:100880000E94D9010F90DF91CF91FF91EF91BF911D
:10089000AF919F918F917F916F915F914F913F9118
:1008A0002F910F900FBE0F901F90189586179707E6
:1008B00028F49B01281B390BC90108956817790793
:1008C00030F4681B790BCB0188599E4F089588E658
:1008D00091E008954F925F926F927F928F929F92D4
:1008E000AF92BF92CF92DF92EF92FF920F931F933E
:1008F000CF93DF938B0149015A01009709F4F6C1A8
:100900004FE050E0BC0187E491E00E94990FA7E41A
:10091000B1E08D919C9111977401E81AF90AE9E30D
:10092000F1E0F182E08212968D919C911397E5019E
:10093000C81BD90BD383C283C701B7010E94CD0E58
:100940009C01CE01BE010E94CD0E820F931F909399
:100950003E0180933D01BC0180E090E00E94A10D2A
:100960002B013C0175946794579447940F2EFFED2B
:100970008F2EF9E59F2EF7E3AF2EFFE5BF2EF02D6A
:1009800084189508A608B70820E030E040E05FE34F
:100990000E94580EA50194010E94580E9B01AC01C3
:1009A000C501B4010E94580E9B01AC0160E070E0EB
:1009B00080EC9FE30E94000D9B01AC01C501B401D6
:1009C0000E94580E4B015C01BE01DD0F880B990B94
:1009D0000E94A30D9B01AC01C501B4010E94580EF9
:1009E0004B015C0120E030E040E85FE30E94530EE1
:1009F00018169CF020E030E040E85FEBC501B40140
:100A00000E946D0D88238CF40F2E812C912CF0E820
:100A1000AF2EFFEBBF2EF02D08C00F2E812C912C96
:100A2000F0E8AF2EFFE3BF2EF02D22EC38EB42E3CF
:100A30005FEBC501B4010E94580E9B01AC01C501DA
:100A4000B4010E94580E23EF36E64FE55FE30E94A3
:100A5000000D9B01AC01C501B4010E94580E2BEDA5
:100A60003FE049EC5FE30E94010D20E030E044E606
:100A700052E40E94580E0E94720DFF202CF4C8E62A
:100A8000D1E0C61BD70B01C0EB01D0934601C09348
:100A90004501809155018823B9F00F2EF7E4EF2E20
:100AA000F1E0FF2EF02DF701668177818481958139
:100AB0000E945604F70124853585820F931F909379
:100AC00044018093430108C08091530190915401E7
:100AD0009093440180934301E7E4F1E02485358558
:100AE000369527958481958188599E4F821B930B5B
:100AF0000F2EF8E6CF2EDD24D394F02DB6010E9400
:100B0000DE0E7C01909342018093410186819781A2
:100B100088599E4F820F931FB6010E94DE0E6C0112
:100B20009093400180933F01BE01C7010E9456048B
:100B3000EC01B601C7010E9456048C179D0740F4D2
:100B400080914301909144018836914008F4B9C0E6
:100B500063E286E391E00E94AF0280915501882311
:100B600009F4A4C0E7E4F1E086809780C481D581D0
:100B7000B401CE010E9456046C01A0904501B090D2
:100B80004601B501CE010E9456047C018C159D05DD
:100B9000B0F0B501C4010E9456047C01BE01C5013C
:100BA0000E9456048E159F0528F4C0914F01D091E4
:100BB000500174C0C0915101D09152016FC0E7E45F
:100BC000F1E062847384C085D185C615D70590F5A0
:100BD000BE0180E090E00E94A10D4B015C01B701D5
:100BE00080E090E093012C1B3D0B40E050E00E9420
:100BF000160FF22FE32FB42FA52F960140E050E0FF
:100C00006F2F7E2F8B2F9A2F0E94F20ECA01B901EF
:100C10000E94A10D20E030E040E05FE30E94010D62
:100C20009B01AC01C501B4010E94010D0E94720D2F
:100C3000EB0134C06C167D0688F5BE0180E090E0C3
:100C40000E94A10D4B015C01B70180E090E0C61944
:100C5000D7099E0140E050E00E94160FB22FA32F4B
:100C6000F42FE52F960140E050E06B2F7A2F8F2F65
:100C70009E2F0E94F20ECA01B9010E94A10D20E030
:100C800030E040E05FE30E94010D9B01AC01C50133
:100C9000B4010E94000D0E94720DEB01BE0187E4B9
:100CA00091E00E94C300882321F005C0CFEFDFEF61
:100CB00002C0CFEFDFEFBE0186E391E00E94B202F7
:100CC0000BC060E086E391E00E94AF026FEF7FEF20
:100CD00086E391E00E94B202809136019091370143
:100CE000A0913801F80180839183A283DF91CF9195
:100CF0001F910F91FF90EF90DF90CF90BF90AF903A
:100D00009F908F907F906F905F904F90089508987C
:100D10000998109A119A90E89093C8001092CA000E
:100D2000EDECF0E01082AEECB0E01C92252F332702
:100D30002C934083803421F488E48093C80005C05C
:100D400081110DC088E08093C8008FE08093CA00B5
:100D5000ECECF0E080818068808381E0089580E0A1
:100D60000895E8ECF0E090819C7F90838034C1F49A
:100D7000E0EDF0E08081807F808380816F70682B60
:100D8000608380818F7C8083808150E04C5F5F4FE7
:100D9000440F551F440F551F4073482B40830BC011
:100DA000811113C0E0EDF0E08081807C8083808140
:100DB0006F73682B6083E8ECF0E080818C7F808328
:100DC00080818160808381E0089580E0089580348F
:100DD00031F4E8ECF0E080818064808309C0811107
:100DE00011C0E8ECF0E0808180836F706093CF00E9
:100DF000E8ECF0E080818C7F80838081826080835A
:100E000081E0089580E00895803431F4E8ECF0E06A
:100E10008081806480830BC0811125C0E8ECF0E004
:100E200080818083842F8295807F8093CF00109271
:100E3000D100442371F0FB01415050E04F5F5F4F00
:100E4000640F751FA2EDB0E081918C93E617F70750
:100E5000D9F7E8ECF0E080818C7F8083808183602B
:100E6000808381E0089580E008952091CF002F7065
:100E70001092D100222371F0FC01215030E02F5F4D
:100E80003F4F820F931FA2EDB0E02C912193E81702
:100E9000F907D9F708959091560181E08927809349
:100EA000560181110AC0139842E050E060E070E002
:100EB00087E591E00E944A0C0895139A43E250E0BE
:100EC00060E070E087E591E00E944A0C0895139A73
:100ED0000B9A6BE477E087E591E00E94FD0B43E21B
:100EE00050E060E070E087E591E00E944A0C0895D0
:100EF000F894E1E6F0E080E8808310820E94CD0360
:100F000078940E94600380E090E0089580911A0137
:100F10000E94DE0880911A01833121F482E08093DF
:100F20001A0103C08F5F80931A0145E050E060E032
:100F300070E08FE691E00E944A0C0895CF931092E2
:100F4000A901C1E06C2F8EE891E00E94B6026FEF1C
:100F50000E94AF026C2F8EE891E00E94B6026FEF04
:100F60007FEF0E94B202CF5FCA3061F743E751E0E2
:100F70006EE871E089EA91E00E94B90866E877E0DE
:100F80008FE691E00E94FD0B45E050E060E070E0EC
:100F90008FE691E00E944A0C65E473E086E191E0FF
:100FA0000E94FD0B48EC50E060E070E086E191E0CB
:100FB0000E944A0C8CE091E00E94F60165E473E027
:100FC00088E091E00E94FD0B48E853E160E070E0AA
:100FD00088E091E00E944A0C2A98229ACF910895C5
:100FE000CF92DF92EF92FF920F931F93CF936115F1
:100FF00022E072078105910519F1611524E072075D
:101000008105910531F1611571408105910509F066
:10101000A8C00E94430280E092E0A0E0B0E080938C
:10102000160190931701A0931801B093190148EC91
:1010300050E060E070E086E191E00E944A0C91C0CF
:1010400042E350E060E070E086E191E00E944A0CEB
:1010500088C080916A01882331F080E991E0909303
:1010600007018093060140E951E060E070E088E00C
:1010700091E00E944A0C9091620181E0892780935F
:101080006201882311F02A9A01C02A9885E0EAE6D5
:10109000F1E0A5E6B1E001900D928A95E1F780912B
:1010A0006501803A91F48091660190916701A09169
:1010B0006801B091690180935E0190935F01A093F4
:1010C0006001B09361018FEF10C010925E01109229
:1010D0005F0110926001109261018D3429F487E65E
:1010E00091E00E94A80201C08FEF80935B01809184
:1010F00065018D3429F487E691E00E94AB0202C0BD
:101100008FEF9FEF90935D0180935C01C0905E0133
:10111000D0905F01E0906001F0906101C1E06C2F20
:101120008EE891E00E94B6028C018C2F0E94B509D6
:10113000A7019601B8010E946A04CF5FCA3079F70F
:10114000809163019091640101968830910528F4A3
:10115000909364018093630104C010926401109223
:101160006301CF911F910F91FF90EF90DF90CF908F
:101170000895EF92FF920F931F93CF93DF937C011B
:101180008B01EA01289A209A4CE050E060E070E080
:1011900080E00E948706F092B001E092AF011093C8
:1011A000AE010093AD01D093AC01C093AB01DF91D0
:1011B000CF911F910F91FF90EF90089540E0682F1D
:1011C00080E00E94B10608951F920F920FB60F9211
:1011D00011242F933F934F935F936F937F938F933C
:1011E0009F93AF93BF93EF93FF938091C9008F704C
:1011F000823009F468C0843021F0813009F066C083
:1012000036C09091D000692F6F73E091AF01F091DB
:10121000B0018081681305C063E080E00E94E706AA
:1012200022C0282F2160621309C06091AB01709128
:10123000AC0143E080E00E94040715C0811113C097
:1012400090FD0DC066958091AD019091AE010E9418
:10125000B60243E0BC0180E00E94040704C063E0E2
:1012600080E00E94E70684E08093C9002FC0E091EF
:10127000AF01F091B0018081811115C06091D00063
:101280006F7370E0759567958091AB019091AC019B
:101290000E94B6020E94350760E470E080E090E0B2
:1012A0000E9445030CC08091AD019091AE010E9457
:1012B000350761E070E080E090E00E94450381E046
:1012C0008093C90003C082E08093C900FF91EF9131
:1012D000BF91AF919F918F917F916F915F914F914E
:1012E0003F912F910F900FBE0F901F9018951F9256
:1012F0000F920FB60F9211248F938091CB008091A3
:10130000AA018F5F8093AA0188E08093C9008F9122
:101310000F900FBE0F901F9018952FB7F894109252
:10132000820010926F0084E28093830084B1886110
:1013300084B987E893E190938700809386008FEFCC
:101340009FEF909389008093880090938B00809307
:101350008A0082EF80938000E1E8F0E088E18083FA
:101360008081826080832FBF08959FEF980F99300E
:1013700070F4282F30E0C90182959295907F9827CC
:10138000807F9827821B930B8F5B9F4F089580E08F
:1013900090E00895CF93DF9310922C0281B1806783
:1013A00081B980ED8CBD169A1092BB011092B801E4
:1013B0001092B901EDEDF1E0ACEBB1E028ED31E0D8
:1013C0008FEFEF0125978883219688832196888364
:1013D000219688832196888380831D921D9236965C
:1013E000A217B30771F7DF91CF9108958091BB01E8
:1013F00090E0FC01EE0FFF1FDF01A80FB91FAA0F3D
:10140000BB1FA852BE4F2C912093B701FD018181D3
:101410008093B6011092B9011092B80181E08093D7
:10142000B5012F3F99F48091B1019091B201A09143
:10143000B301B091B4010196A11DB11D8093B1011A
:101440009093B201A093B301B093B401169808959C
:10145000169A08952091BB013091B801822F90E037
:10146000820F911D820F911DFC01EE0FFF1FE852AC
:10147000FE4FE30FF11D82818EBD8091B50188235F
:1014800031F08091B8018F5F8093B8010895809109
:10149000B8018F5F8093B8010895AF92BF92CF9249
:1014A000DF92EF92FF920F931F93CF93DF93D82E8B
:1014B000C62EEA0179010E94FF036093B101709387
:1014C000B2018093B3019093B4018D2D90E08C0113
:1014D0000E5F1F4F2091BA0130E0DE011297C90163
:1014E000880F991F820F931F880F991FE0E0F0E08B
:1014F0009C0128523E4F59012F5F3F4F309719F4FE
:10150000E501D8820EC0E130F10519F4E901C88285
:1015100008C06C91AF01480F591F48525E4FEA0155
:10152000688331961196E017F10744F332C0809139
:10153000BA018D3019F41092BA0103C08F5F809305
:10154000BA010E94D40B811127C02091BB01822FC8
:1015500090E0820F911D820F911D880F991FFC0151
:10156000E852FE4F80818F3FB9F060E070E480E088
:1015700090E00E94450310C0F70180819181E091C5
:10158000BA01F0E0EE0FFF1FE454FE4F9183808319
:10159000CECFC110F1CFCBCFDF91CF911F910F9163
:1015A000FF90EF90DF90CF90BF90AF9008951F9283
:1015B0000F920FB60F9211242F933F934F935F9387
:1015C0006F937F938F939F93AF93BF93EF93FF930B
:1015D00080912C02811187C08DB58091B50188233F
:1015E000E1F09091B8018091B7018917A0F09813AC
:1015F00007C08091B601811103C01092B5010DC0E2
:1016000060E070E880E090E00E9445038091B501C1
:10161000811169C002C01092B5019091B601992361
:10162000E9F08091B9012091BB01E82FF0E0E20FD1
:10163000F11DEE0FFF1FE454FE4F0190F081E02DED
:101640002EB520838F5F8093B901891738F460E04D
:1016500070E081E090E00E94450345C03091BB01FD
:10166000832F90E0AC01440F551FFA01E80FF91FDA
:10167000EE0FFF1FE852FE4F2FEF208321832283BE
:1016800023832483FA01E80FF91FEE0FFF1FE852AE
:10169000FE4F2583FA01E454FE4F118210823D3043
:1016A00019F41092BB0103C03F5F3093BB0120913E
:1016B000BB01822F90E0820F911D820F911D880F38
:1016C000991FFC01E852FE4F80818F3F31F060E0AE
:1016D00070E480E090E00E94450360E070E082E00A
:1016E00090E00E944503FF91EF91BF91AF919F91D0
:1016F0008F917F916F915F914F913F912F910F90BB
:101700000FBE0F901F90189510922D020E94CA09CB
:10171000089520912D022130A9F018F0223089F18E
:1017200008956115704481059105E9F50E94F60957
:1017300081E080932D0260E070E880E090E00E94FC
:1017400045030895611520E872078105910519F494
:101750000E942A0A08956115710521E0820791050A
:1017600031F40E942A0A82E080932D0208956115C7
:10177000710582409105B9F40E94280A10922D0249
:1017800008956115710521E08207910519F40E9401
:101790002A0A0895611571058240910521F40E947D
:1017A000280A10922D02089580912D020895EEE2EC
:1017B000F2E0A2E3B2E08FE692E01182108213829F
:1017C00012821C921582168217821086118612864A
:1017D000138614863D961D96E817F90771F715BC18
:1017E00016BC18BC88B5835888BD82E080936E0013
:1017F00016BC86B5836086BD0895CF93DF93C091F4
:101800002E02D0912F02C817D90709F440C0AEE2CA
:10181000B2E042E652E0FD012585368528173907FA
:10182000B1F13D96E417F507B9F72CC01D964D911F
:101830005C911E97452BF9F402C020E030E0F901DD
:10184000EE0FFF1FE20FF31FEE0FFF1FEE0FFF1F44
:101850002E0F3F1FF901E25DFD4F9183808373835B
:101860006283148215821682178210861186128670
:10187000138614860CC02F5F3F4F1D96253031050F
:10188000A9F605C0CD2BC9F221E030E0CFCFDF9122
:10189000CF910895CF92DF92EF92FF9220912E0286
:1018A00030912F022817390751F0EEE2F2E021E0E3
:1018B00030E0A585B685A817B90711F502C020E06C
:1018C00030E0F901EE0FFF1FE20FF31FEE0FFF1FD5
:1018D000EE0FFF1F2E0F3F1FF901E25DFD4F81E06C
:1018E000848315821682178210866A017B01CC0CD4
:1018F000DD1CEE1CFF1CC186D286E386F48606C082
:101900002F5F3F4F3D962530310599F6FF90EF90C0
:10191000DF90CF9008951F920F920FB60F9211246F
:10192000EF92FF920F931F932F933F934F935F93E9
:101930006F937F938F939F93AF93BF93CF93DF93D7
:10194000EF93FF9388B5835888BD02E312E0CEE29F
:10195000D2E00F2EFFE6EF2EF2E0FF2EF02DF80181
:101960008081882381F19E0189859A85AB85BC851C
:101970000097A105B105B9F04D815E816F81788531
:101980004F5F5F4F6F4F7F4F4D835E836F837887CD
:101990000197A109B10989879A87AB87BC87892BF1
:1019A0008A2B8B2B81F41082D9011296ED91FC9138
:1019B0001397309741F08D919C91DC016D917D9151
:1019C0008D919C910995035F1F4F2D96CE15DF05D4
:1019D00031F6FF91EF91DF91CF91BF91AF919F9140
:1019E0008F917F916F915F914F913F912F911F91B7
:1019F0000F91FF90EF900F900FBE0F901F901895D2
:101A00005058BB27AA270E94180D0C94190E0E944B
:101A10000B0E38F00E94120E20F039F49F3F19F49B
:101A200026F40C94080E0EF4E095E7FB0C94020EDD
:101A3000E92F0E942A0E58F3BA176207730784072A
:101A4000950720F079F4A6F50C944C0E0EF4E09571
:101A50000B2EBA2FA02D0B01B90190010C01CA0168
:101A6000A0011124FF27591B99F0593F50F4503E13
:101A700068F11A16F040A22F232F342F4427585F05
:101A8000F3CF469537952795A795F0405395C9F71D
:101A90007EF41F16BA0B620B730B840BBAF09150D5
:101AA000A1F0FF0FBB1F661F771F881FC2F70EC074
:101AB000BA0F621F731F841F48F487957795679547
:101AC000B795F7959E3F08F0B0CF9395880F08F033
:101AD0009927EE0F9795879508950E94DE0D08F4DB
:101AE00081E008950E94320E88F09F5798F0B92F38
:101AF0009927B751B0F0E1F0660F771F881F991F43
:101B00001AF0BA95C9F714C0B13091F00E944C0E8A
:101B1000B1E008950C944C0E672F782F8827B85F9A
:101B200039F0B93FCCF3869577956795B395D9F79A
:101B30003EF490958095709561957F4F8F4F9F4FA4
:101B40000895E89409C097FB3EF4909580957095B0
:101B500061957F4F8F4F9F4F9923A9F0F92F96E9F9
:101B6000BB279395F695879577956795B795F1116E
:101B7000F8CFFAF4BB0F11F460FF1BC06F5F7F4F0B
:101B80008F4F9F4F16C0882311F096E911C077231D
:101B900021F09EE8872F762F05C0662371F096E826
:101BA000862F70E060E02AF09A95660F771F881FF5
:101BB000DAF7880F9695879597F90895990F000899
:101BC000550FAA0BE0E8FEEF16161706E807F9070F
:101BD000C0F012161306E407F50798F0621B730BAA
:101BE000840B950B39F40A2661F0232B242B252B2B
:101BF00021F408950A2609F4A140A6958FEF811DCE
:101C0000811D089597F99F6780E870E060E008956E
:101C10009FEF80EC089500240A9416161706180604
:101C20000906089500240A941216130614060506E0
:101C30000895092E0394000C11F4882352F0BB0F71
:101C400040F4BF2B11F460FF04C06F5F7F4F8F4FD4
:101C50009F4F089557FD9058440F551F59F05F3F0F
:101C600071F04795880F97FB991F61F09F3F79F0BE
:101C700087950895121613061406551FF2CF469540
:101C8000F1DF08C0161617061806991FF1CF8695C2
:101C90007105610508940895E894BB2766277727A6
:101CA000CB0197F908950E94DE0D08F48FEF089597
:101CB0000E946A0E0C94190E0E940B0E38F00E94BE
:101CC000120E20F0952311F00C94020E0C94080EC5
:101CD0000C944D0E0E942A0E78F39923C9F35523D4
:101CE000B9F3950F50E0551FAA27EE27FF27BB2712
:101CF00000240894679520F4E20FF31FB41F0A1E16
:101D0000220F331F441FAA1F6695A9F7779530F459
:101D1000F30FB41F0A1E121E08F46395330F441FFD
:101D2000AA1F221F769599F7879520F4B40F0A1EF3
:101D3000121E631F440FAA1F221F331F8695A9F787
:101D4000862F712D602D11249F5750409AF0F1F08D
:101D500088234AF0EE0FFF1FBB1F661F771F881FE7
:101D600091505040A9F79E3F510580F00C94020E0F
:101D70000C944D0E5F3FE4F3983ED4F3869577952F
:101D80006795B795F795E7959F5FC1F7FE2B880F8D
:101D9000911D9695879597F908950024552704C0BD
:101DA000080E591F880F991F009729F0769567959F
:101DB000B8F37105B9F7802D952F0895AA1BBB1BA9
:101DC00051E107C0AA1FBB1FA617B70710F0A61B3B
:101DD000B70B881F991F5A95A9F780959095BC015C
:101DE000CD010895A1E21A2EAA1BBB1BFD010DC057
:101DF000AA1FBB1FEE1FFF1FA217B307E407F507BB
:101E000020F0A21BB30BE40BF50B661F771F881F96
:101E1000991F1A9469F760957095809590959B012C
:101E2000AC01BD01CF01089568940013E894A0E0CF
:101E3000B0E0EDE1FFE00C943C0FEFEFE7F9590162
:101E40006A015E23550FEE08FE2C87019B01AC0151
:101E50009E23990F660B762FCB010E946B0FCDB797
:101E6000DEB7EAE00C94580F2F923F924F925F92A8
:101E70006F927F928F929F92AF92BF92CF92DF929A
:101E8000EF92FF920F931F93CF93DF93CDB7DEB7FF
:101E9000CA1BDB0B0FB6F894DEBF0FBECDBF099493
:101EA0002A88398848885F846E847D848C849B84EA
:101EB000AA84B984C884DF80EE80FD800C811B81F8
:101EC000AA81B981CE0FD11D0FB6F894DEBF0FBE27
:101ED000CDBFED010895DF93CF939F92A0E49A2E9A
:101EE0000024D001E001F00116950795F794E794DE
:101EF000D794C794B794A79448F41068A20FB31F5F
:101F0000C41FD51FE61FF71F081E191E220F331FFF
:101F1000441F551F661F771F881F991F9A9421F72A
:101F20009D01AE01BF01C00111249F90CF91DF91AF
:101F30000895FB01DC0102C005900D924150504014
:081F4000D8F70895F894FFCFD3
:101F4800FFFF002000000100000400006A016B018F
:0C1F58006C016D016E0100010000020030
:00000001FF
