:100000000C9428000C9445000C9445000C94450079
:100010000C9445000C9445000C9445000C9445004C
:100020000C9445000C9445000C94E7030C94450097
:100030000C943D020C94D2020C9445000C944500A3
:100040000C9445000C9445000C9445000C9445001C
:1000500011241FBECFEFD2E0DEBFCDBF11E0A0E084
:10006000B1E0EAEAF8E002C005900D92AA30B107CB
:10007000D9F721E0AAE0B1E001C01D92A039B20792
:10008000E1F70E9493010C9453040C9400000F9329
:100090001F9300910A0110910B0120910C013091E6
:1000A0000D01DC01CB01802B912BA22BB32B809374
:1000B0000A0190930B01A0930C01B0930D011F91C5
:1000C0000F910895A12CB12C01E010E0CA2DDB2D79
:1000D000B8010C2E02C0660F771F0A94E2F7072EB4
:1000E000000C880B990BC0900A01D0900B01E09096
:1000F0000C01F0900D012B013C014C205D206E2085
:100100007F206415750586059705A1F42B013C0138
:100110004094509460947094C420D520E620F72039
:10012000C0920A01D0920B01E0920C01F0920D01F5
:100130000E94CE012196C630D10551F6C7CF08984E
:100140000998109A119A90E89093C8001092CA00EA
:10015000EDECF0E01082AEECB0E01C92252F3327DE
:100160002C934083803421F488E48093C80005C038
:1001700081110DC088E08093C8008FE08093CA0091
:10018000ECECF0E080818068808381E0089580E07D
:100190000895E8ECF0E090819C7F908398E0909344
:1001A000C9008034C1F4E0EDF0E08081807F80837D
:1001B00080816F70682B608380818F7C80838081D9
:1001C00050E04C5F5F4F440F551F440F551F407365
:1001D000482B40830BC0811113C0E0EDF0E080811B
:1001E000807C808380816F73682B6083E8ECF0E013
:1001F00080818C7F808380818160808381E008950D
:1002000080E00895803431F4E8ECF0E0808180648F
:10021000808309C0811111C0E8ECF0E08081808307
:100220006F706093CF00E8ECF0E080818C7F80837A
:1002300080818260808381E0089580E00895803429
:1002400031F4E8ECF0E08081806480830BC08111A0
:1002500025C0E8ECF0E080818083842F8295807F48
:100260008093CF001092D100442371F0FB014150E4
:1002700050E04F5F5F4F640F751FA2EDB0E08191BA
:100280008C93E617F707D9F7E8ECF0E080818C7FD4
:10029000808380818360808381E0089580E0089579
:1002A0002091CF002F701092D100222371F0FC0119
:1002B000215030E02F5F3F4F820F931FA2EDB0E03F
:1002C0002C912193E817F907D9F7089590910E0121
:1002D00081E0892780930E0181110AC0139842E0C2
:1002E00050E060E070E08FE091E00E94B403089578
:1002F000139A43E250E060E070E08FE091E00E94EA
:10030000B4030895139A0B9A66E671E08FE091E0CA
:100310000E94670343E250E060E070E08FE091E00C
:100320000E94B4030895F894E1E6F0E080E8808349
:1003300010820E9443030E9482010E94E8020E94F0
:10034000A70178940E94620080E090E008951092E6
:10035000200144E151E06AE171E080E291E00E9415
:10036000120267E470E085E091E00E94670344E0D8
:1003700050E060E070E085E091E00E94B40367E443
:1003800070E080E091E00E94670344EF51E060E09C
:1003900070E080E091E00E94B4030895643071053C
:1003A0008105910531F06032710581059105C9F033
:1003B0000895809104010E943702809104018730E2
:1003C00021F482E08093040103C08F5F80930401D5
:1003D00044E050E060E070E085E091E00E94B4030A
:1003E000089560911301EAE1F1E060838FEF81836A
:1003F000628383836483858381E00E9410038091FC
:1004000013018F5F853618F48093130102C0109298
:10041000130144EF51E060E070E080E091E00E9461
:10042000B4030895EF92FF920F931F93CF93DF933E
:100430007C018B01EA01149A0C9A4CE050E060E0D8
:1004400070E080E00E949F00F0922701E092260178
:100450001093250100932401D0932301C09322011E
:10046000DF91CF911F910F91FF90EF90089540E0A1
:10047000682F80E00E94C90008951F920F920FB666
:100480000F9211242F933F934F935F936F937F931A
:100490008F939F93AF93BF93EF93FF939091C90076
:1004A0009F70923009F46AC0943021F0913009F0C5
:1004B00068C037C09091D000692F6F73E09126011A
:1004C000F09127018081681305C062E080E00E94FE
:1004D000020123C0282F2160621309C0609122010C
:1004E0007091230142E080E00E941F0116C081113B
:1004F00014C090FD0EC070E062507109809124011B
:1005000090912501680F791F42E080E00E941F0151
:1005100004C062E080E00E94020184E08093C90090
:1005200030C0E0912601F09127019081911116C011
:100530008091D000282F217030E022503109809125
:10054000220190912301820F931F0E94500168E0C5
:1005500070E080E090E00E9447000CC08091240190
:10056000909125010E94500161E070E080E090E0F0
:100570000E94470081E08093C90003C082E080931D
:10058000C900FF91EF91BF91AF919F918F917F91A2
:100590006F915F914F913F912F910F900FBE0F90F0
:1005A0001F9018951F920F920FB60F9211248F93E0
:1005B0008091CB00809121018F5F8093210188E0A1
:1005C0008093C9008F910F900FBE0F901F901895C8
:1005D0002FB7F8941092820010926F0084E28093FB
:1005E000830084B1886184B98FE193E090938700A0
:1005F000809386008FEF9FEF90938900809388000F
:1006000090938B0080938A0082EF80938000E1E8D2
:10061000F0E088E180838081816080832FBF08952E
:10062000882319F08130C1F00895653608F064E63A
:10063000662359F084E690E0861B9109880F991F84
:10064000880F991F880F991F02C08FEF9FEF90931B
:100650008900809388000895653608F064E6662373
:1006600059F084E690E0861B9109880F991F880F46
:10067000991F880F991F02C08FEF9FEF90938B00F7
:1006800080938A000895E8E2F1E0ACE2B1E080E90D
:1006900091E011821082138212821C9215821682BE
:1006A0001782108611861286138614863D961D9633
:1006B000E817F90771F715BC16BC18BC88B5835844
:1006C00088BD82E080936E0084E086BD0895CF935C
:1006D000DF93C0912801D0912901C817D90709F4E7
:1006E00040C0A8E2B1E043E851E0FD012585368530
:1006F00028173907B1F13D96E417F507B9F72CC073
:100700001D964D915C911E97452BF9F402C020E097
:1007100030E0F901EE0FFF1FE20FF31FEE0FFF1F96
:10072000EE0FFF1F2E0F3F1FF901E85DFE4F918373
:1007300080837383628314821582168217821086E7
:1007400011861286138614860CC02F5F3F4F1D96AC
:1007500028303105A9F605C0CD2BC9F221E030E0E3
:10076000CFCFDF91CF9108952091280130912901B9
:100770002817390751F0E8E2F1E021E030E0A585E3
:10078000B685A817B907E1F402C020E030E0F9010E
:10079000EE0FFF1FE20FF31FEE0FFF1FEE0FFF1F05
:1007A0002E0F3F1FF901E85DFE4F81E08483158223
:1007B000168217821086418752876387748708954F
:1007C0002F5F3F4F3D9628303105C9F608951F929F
:1007D0000F920FB60F921124EF92FF920F931F9377
:1007E0002F933F934F935F936F937F938F939F9339
:1007F000AF93BF93CF93DF93EF93FF9388B5835865
:1008000088BD0CE211E0C8E2D1E00F2EF0E9EF2E36
:10081000F1E0FF2EF02DF8018081882339F18D81E0
:100820009E81AF81B8850196A11DB11D8D839E83E8
:10083000AF83B88789859A85AB85BC850197A10967
:10084000B10989879A87AB87BC87892B8A2B8B2B29
:1008500069F41082EA81FB81309741F088819981A7
:10086000DC016D917D918D919C910995035F1F4FE6
:100870002D96CE15DF0579F6FF91EF91DF91CF919F
:10088000BF91AF919F918F917F916F915F914F91A8
:100890003F912F911F910F91FF90EF900F900FBEFE
:0A08A0000F901F901895F894FFCFF9
:0A08AA00200000000204000000001E
:00000001FF
