:100000000C9428000C9401030C9445000C944500BA
:100010000C9445000C9445000C9445000C9445004C
:100020000C9445000C949D000C9441090C944500DF
:100030000C9437050C94CA050C9479070C94600055
:100040000C9445000C9445000C9445000C9445001C
:1000500011241FBECFEFD2E0DEBFCDBF11E0A0E084
:10006000B1E0E0E7F3E102C005900D92AC30B107DA
:10007000D9F722E0ACE0B1E001C01D92A235B20791
:10008000E1F70E9450040C94B6090C940000ECE7D0
:10009000F0E080818F7B8083A7E7B0E08C918B7F3D
:1000A0008C938081886080838081887F8083EAE769
:1000B000F0E08081886880838081887F80830895D4
:1000C0001F920F920FB60F9211248F939F93EF936D
:1000D000FF93EAE7F0E0808180618083809178007F
:1000E000909179009093010180930001FF91EF912D
:1000F0009F918F910F900FBE0F901F90189560E009
:1001000081E00E940806089560E070E0CB010E9443
:100110007F00E3E8F0E080818F7D80832B98109250
:100120000C01EFE6F0E08081816080836FE770E092
:100130008DE091E00E94B30808951F920F920FB6D0
:100140000F9211248F93EF93FF9380910C018823DA
:1001500019F0813039F00CC0E3E8F0E08081806272
:10016000808306C0E3E8F0E080818F7D80832B9858
:1001700080910C018F5F837080930C01FF91EF9150
:100180008F910F900FBE0F901F901895CF93DF9314
:100190001F92CDB7DEB780EC898320E030E0AE015E
:1001A0004F5F5F4F60E081E00E94EC060F90DF91AF
:1001B000CF910895CF93DF9300D0CDB7DEB79B01E9
:1001C00093E099838A83AE014F5F5F4F61E082E0E5
:1001D0000E94EC060F900F90DF91CF910895CF937E
:1001E000DF9300D01F92CDB7DEB792E099838A8368
:1001F000FB0180818B8320E030E0AE014F5F5F4FD9
:1002000060E083E00E94EC060F900F900F90DF916A
:10021000CF910895CF93DF9300D000D0CDB7DEB754
:1002200095E099838A836B83FA0180818C8320E037
:1002300030E0AE014F5F5F4F60E084E00E94EC066B
:100240000F900F900F900F90DF91CF910895CF9363
:10025000DF930E94C60080E98093140164E171E09D
:100260008FE00E94EF001092140144E151E064E03D
:100270008FE00E940A01D1E4D093140144E151E0DF
:1002800061E08AE20E940A01C1EFC093140144E1D7
:1002900051E067E089E20E940A01C093140144E141
:1002A00051E068E389E20E940A01C093140144E12D
:1002B00051E060EC89E20E940A0185E88093140114
:1002C00064E171E088E20E94EF00D093140144E100
:1002D00051E060EC8AE20E940A01DF91CF9108951B
:1002E0008FEF8093140164E171E08BE20E94EF00D4
:1002F00083E08093140164E171E080E30E94EF00E9
:100300001092140164E171E08DE00E94EF00109200
:10031000140164E171E081E30E94EF0080E28093C8
:10032000140164E171E082E30E94EF001092140175
:1003300064E171E080E00E94EF0064E171E081E03F
:100340000E94EF0080E68093140164E171E00E9456
:10035000EF001092140144E151E060EE8FE00E9442
:100360000A0181E191E0909313018093120162E10F
:1003700071E08EE00E94DA000895EF92FF920F93F1
:100380001F93CF93893030F57B01C82F80931401E0
:1003900064E171E085E30E94EF00CC2391F08701D6
:1003A000EC0EF11CC6E3F80181918F0180931401DA
:1003B00064E171E08C2F0E94EF00CF5F0E151F05E6
:1003C00091F78FEF8093140144E151E068E080E3FE
:1003D0000E940A01CF911F910F91FF90EF90089515
:1003E000EF92FF920F931F93CF93DF93082F192F54
:1003F00081E191E0909313018093120162E171E039
:1004000085E60E94DA00209111012223C1F0C02F5D
:10041000D12FE02EF12EE20EF11CE20EF11C16E6B9
:1004200089919991909313018093120162E171E097
:10043000812F0E94DA001F5FCE15DF0589F7DF915B
:10044000CF911F910F91FF90EF900895FC01608371
:100450000895FC0172836183089570E06150710911
:100460009B01220F331F620F731F860F971F089582
:10047000CF92DF92EF92FF920F931F93009115019D
:100480001091160120911701309118016B017C0128
:10049000C022D122E222F3226C157D058E059F0534
:1004A000A1F46B017C01C094D094E094F0940C21F1
:1004B0001D212E213F210093150110931601209339
:1004C0001701309318010E94DB021F910F91FF90DA
:1004D000EF90DF90CF9008950F931F930091150137
:1004E000109116012091170130911801DC01CB0108
:1004F000802B912BA22BB32B809315019093160187
:10050000A0931701B09318011F910F91089561E016
:1005100070E080E090E00E94380262E070E080E0ED
:1005200090E00E94380264E070E080E090E00E9479
:10053000380268E070E080E090E00E94380260E1FC
:1005400070E080E090E00E94380260E270E080E0BD
:1005500090E00E94380260E470E080E090E00E9449
:10056000380260E870E080E090E00E94380260E0CD
:1005700071E080E090E00E94380260E072E080E08C
:1005800090E00E94380260E074E080E090E00E9419
:100590003802BDCF0E948D080E943F040E94E005F2
:1005A0000E94EC020E9447000E9484000E943C08C6
:1005B0000E9475040895CF92DF92EF92FF926B0133
:1005C0007C010E94BB04C701B6010E943F08FF9056
:1005D000EF90DF90CF9008952698E9E6F0E08081D3
:1005E0008E7F8083808182608083E89AE09A08957C
:1005F0006091190170911A0180911B0190911C0169
:1006000008951F920F920FB60F9211240F931F930C
:100610002F933F934F935F936F937F938F939F930A
:10062000AF93BF93EF93FF93CF93DF93CDB7DEB735
:100630006197DEBFCDBF8091190190911A01A09101
:100640001B01B0911C010196A11DB11D80931901E0
:1006500090931A01A0931B01B0931C018E010F5FB0
:100660001F4F80E1F80111928A95E9F7C8010E94B5
:10067000EA04C8010E94F001198AAE014F5E5F4F83
:100680006FEF8CE20E940A0161960FB6F894DEBF0C
:100690000FBECDBFDF91CF91FF91EF91BF91AF9191
:1006A0009F918F917F916F915F914F913F912F918A
:1006B0001F910F910F900FBE0F901F9018950898E3
:1006C0000998109A119A90E89093C8001092CA0065
:1006D000EDECF0E01082AEECB0E01C92252F332759
:1006E0002C934083803421F488E48093C80005C0B3
:1006F00081110DC088E08093C8008FE08093CA000C
:10070000ECECF0E080818068808381E0089580E0F7
:100710000895E8ECF0E090819C7F90838034C1F4F0
:10072000E0EDF0E08081807F808380816F70682BB6
:10073000608380818F7C8083808150E04C5F5F4F3D
:10074000440F551F440F551F4073482B40830BC067
:10075000811113C0E0EDF0E08081807C8083808196
:100760006F73682B6083E8ECF0E080818C7F80837E
:1007700080818160808381E0089580E008958034E5
:1007800031F4E8ECF0E080818064808309C081115D
:1007900011C0E8ECF0E0808180836F706093CF003F
:1007A000E8ECF0E080818C7F8083808182608083B0
:1007B00081E0089580E00895803431F4E8ECF0E0C1
:1007C0008081806480830BC0811125C0E8ECF0E05B
:1007D00080818083842F8295807F8093CF001092C8
:1007E000D100442371F0FB01415050E04F5F5F4F57
:1007F000640F751FA2EDB0E081918C93E617F707A7
:10080000D9F7E8ECF0E080818C7F80838081836081
:10081000808381E0089580E008952091CF002F70BB
:100820001092D100222371F0FC01215030E02F5FA3
:100830003F4F820F931FA2EDB0E02C912193E81758
:10084000F907D9F7089590911D0181E089278093D8
:100850001D0181110AC0139842E050E060E070E091
:100860008EE191E00E9400090895139A43E250E05E
:1008700060E070E08EE191E00E9400090895139A13
:100880000B9A63E274E08EE191E00E94B30843E2C8
:1008900050E060E070E08EE191E00E940009089570
:1008A000E1E6F0E080E8808310820E94CA0278943A
:1008B0000E94870280E090E0089580910A010E94E2
:1008C000310580910A01853021F482E080930A018C
:1008D00003C08F5F80930A0145E050E060E070E064
:1008E0008BE291E00E9400090895CF9310923B01A2
:1008F000C1E06C2F85E391E00E942D026FEF0E9412
:1009000026026C2F85E391E00E942D026FEF7FEFAE
:100910000E942902CF5FC33061F74FE251E065E3E7
:1009200071E08BE391E00E940C058BE391E00E9463
:1009300089066DE574E08BE291E00E94B30845E022
:1009400050E060E070E08BE291E00E9400096CE60C
:1009500072E086E091E00E94B3080E94270148E817
:1009600053E160E070E086E091E00E9400092A987F
:10097000229ACF910895603471058105910549F55A
:1009800080910201882369F00E9470011092020197
:1009900048E853E160E070E086E091E00E940009E1
:1009A0000DC063E071E083E00E94BD014AEF50E0BA
:1009B00060E070E086E091E00E94000990912A01D9
:1009C00081E0892780932A01882311F02A9A0895CB
:1009D0002A980895FC0189E291E09183808388E25E
:1009E00091E09383828387E291E09583848386E21A
:1009F00091E09783868385E291E09187808784E206
:100A000091E09387828783E291E09587848782E2F1
:100A100091E0978786870895EF92FF920F931F9337
:100A2000CF93DF937C018B01EA01149A0C9A4CE07E
:100A300050E060E070E080E00E945F03F0924201CD
:100A4000E09241011093400100933F01D0933E0199
:100A5000C0933D01DF91CF911F910F91FF90EF90D7
:100A6000089540E0682F80E00E94890308951F9256
:100A70000F920FB60F9211242F933F934F935F93D2
:100A80006F937F938F939F93AF93BF93EF93FF9356
:100A90008091C9008F70823009F468C0843021F0E1
:100AA000813009F066C036C09091D000692F6F7315
:100AB000E0914101F09142018081681305C063E03B
:100AC00080E00E94BF0322C0282F2160621309C06A
:100AD00060913D0170913E0143E080E00E94DC03A3
:100AE00015C0811113C090FD0DC0669580913F0126
:100AF000909140010E942D0243E0BC0180E00E94E1
:100B0000DC0304C063E080E00E94BF0384E08093C4
:100B1000C9002FC0E0914101F09142018081811113
:100B200015C06091D0006F7370E0759567958091E6
:100B30003D0190913E010E942D020E940D0460E152
:100B400070E080E090E00E946C020CC080913F0158
:100B5000909140010E940D0462E070E080E090E01E
:100B60000E946C0281E08093C90003C082E0809300
:100B7000C900FF91EF91BF91AF919F918F917F91AC
:100B80006F915F914F913F912F910F900FBE0F90FA
:100B90001F9018951F920F920FB60F9211248F93EA
:100BA0008091CB0080913C018F5F80933C0188E075
:100BB0008093C9008F910F900FBE0F901F901895D2
:100BC0002FB7F8941092820010926F0084E2809305
:100BD000830084B1886184B987E893E190938700AA
:100BE000809386008FEF9FEF909389008093880019
:100BF00090938B0080938A0082EF80938000E1E8DD
:100C0000F0E088E180838081826080832FBF089537
:100C1000882319F0813049F108956436E0F48FEFAC
:100C2000860F8336D8F470E0CB01880F991F880FA8
:100C3000991F680F791FCB01880F991F880F991F83
:100C4000680F791F660F771F88279927861B970BD8
:100C500088579C4E05C080E090E002C08FEF9FEF68
:100C6000909389008093880008956436E0F48FEFB4
:100C7000860F8336D8F470E0CB01880F991F880F58
:100C8000991F680F791FCB01880F991F880F991F33
:100C9000680F791F660F771F88279927861B970B88
:100CA00088579C4E05C080E090E002C08FEF9FEF18
:100CB00090938B0080938A000895CF93DF93EBEAA3
:100CC000F1E0AEE4B1E026EA31E08FEFEF012597E5
:100CD000888321968883219688832196888321960C
:100CE0008883808311961C921E9213961C921E92EA
:100CF000129715961C921E92149717961C921E928C
:100D0000169736961896A217B30701F7DF91CF9181
:100D10000895FC0180818093E80181110FC081B1A9
:100D2000806781B980ED8CBD169A10924D011092AA
:100D30004A0110924B010E945D0608950A9A80ECC8
:100D40008CBD10924D0110924A0110924B010E94ED
:100D50005D06089580914D0190E0FC01EE0FFF1FAC
:100D6000DF01A80FB91FAA0FBB1FAA55BE4F2C91B8
:100D700020934901FD0181818093480110924B012C
:100D800010924A0181E08093470116980895169ABF
:100D9000089520914D0130914A01822F90E0820FF9
:100DA000911D820F911DFC01EE0FFF1FEA55FE4FB2
:100DB000E30FF11D82818EBD80914701882331F0C0
:100DC00080914A018F5F80934A01089580914A0182
:100DD0008F5F80934A010895AF92BF92CF92DF92C6
:100DE000EF92FF920F931F93CF93DF93D82EC62ECF
:100DF0007A01B22EA32E0E94F802609343017093F1
:100E0000440180934501909346010D2D10E00E5F43
:100E10001F4F80914C0190E0D70112977C01EE0C9E
:100E2000FF1CE80EF91EEE0CFF1CE0E0F0E0B7013D
:100E30006A557E4FCB010196309719F4EB01D882A9
:100E40000EC0E130F10519F4EC01C88208C02C9104
:100E5000AF014E0D5F1D4A555E4FEA012883319662
:100E60001196E017F10744F336C08D919D9181935F
:100E70009193E217F307C9F780914C018A3019F476
:100E800010924C0103C08F5F80934C010E948A082E
:100E9000811124C060E870E080E090E00E946C0264
:100EA0001DC0AB2DBA2D80914C0190E0FC01EE0FDE
:100EB000FF1FEE0FFF1FEE0FFF1FE25BFE4F9C01B7
:100EC000220F331F220F331F2C0D311D220F331F12
:100ED000225B3E4FCACFC110E4CFCECFDF91CF917E
:100EE0001F910F91FF90EF90DF90CF90BF90AF9048
:100EF00008951F920F920FB60F9211242F933F93D4
:100F00004F935F936F937F938F939F93AF93BF9311
:100F1000EF93FF938091E80181119DC08DB5809181
:100F200047018823E1F090914A0180914901891796
:100F3000A0F0981307C080914801811103C010925E
:100F400047010DC060E071E080E090E00E946C021B
:100F50008091470181117FC002C01092470190919A
:100F60004801992301F180914B01E0914D01F0E09E
:100F7000EE0FFF1FEE0FFF1FE80FF11DEE0FFF1F1B
:100F8000E25BFE4F0190F081E02D2EB520838F5F54
:100F900080934B01891738F460E072E080E090E0C4
:100FA0000E946C0258C030914D01E32FF0E0CF0158
:100FB000880F991FDC01AE0FBF1FAA0FBB1FAA55D8
:100FC000BE4F2FEF2C9311962C93119712962C93C2
:100FD000129713962C93139714962C93DC01AE0F53
:100FE000BF1FAA0FBB1FAA55BE4F15962C93EE0F1D
:100FF000FF1FEE0FFF1FEE0FFF1FE25BFE4F118280
:1010000010821382128215821482178216823A305D
:1010100019F410924D0103C03F5F30934D012091B0
:101020004D01822F90E0820F911D820F911D880F3C
:10103000991FFC01EA55FE4F80818F3F31F060E837
:1010400070E080E090E00E946C0260E074E080E07C
:1010500090E00E946C02FF91EF91BF91AF919F9140
:101060008F917F916F915F914F913F912F910F9051
:101070000FBE0F901F9018951092E90108952091CE
:10108000E9012130A9F018F0223089F10895603883
:10109000710581059105E9F50E94AA0681E080931A
:1010A000E90160E071E080E090E00E946C02089548
:1010B000611521E072078105910519F40E94C906A6
:1010C0000895611522E072078105910531F40E94AF
:1010D000C90682E08093E901089561157440810595
:1010E0009105B9F40E94C7061092E90108956115AF
:1010F00022E072078105910519F40E94C90608953E
:10110000611574408105910521F40E94C706109273
:10111000E90108958091E9010895EAEEF1E0AEEE6B
:10112000B1E082E592E011821082138212821C9259
:1011300015821682178210861186128613861486EF
:101140003D961D96E817F90771F715BC16BC18BC3B
:1011500088B5835888BD82E080936E0016BC86B542
:10116000836086BD0895CF93DF93C091EA01D0914B
:10117000EB01C817D90709F440C0AAEEB1E045E475
:1011800052E0FD012585368528173907B1F13D96D6
:10119000E417F507B9F72CC01D964D915C911E9789
:1011A000452BF9F402C020E030E0F901EE0FFF1FFB
:1011B000E20FF31FEE0FFF1FEE0FFF1F2E0F3F1F5B
:1011C000F901E651FE4F9183808373836283148219
:1011D000158216821782108611861286138614864F
:1011E0000CC02F5F3F4F1D9628303105A9F605C072
:1011F000CD2BC9F221E030E0CFCFDF91CF91089520
:10120000CF92DF92EF92FF922091EA013091EB01B1
:101210002817390751F0EAEEF1E021E030E0A5852A
:10122000B685A817B90711F502C020E030E0F90132
:10123000EE0FFF1FE20FF31FEE0FFF1FEE0FFF1F5A
:101240002E0F3F1FF901E651FE4F81E08483158286
:101250001682178210866A017B01CC0CDD1CEE1C05
:10126000FF1CC186D286E386F48606C02F5F3F4FFF
:101270003D962830310599F6FF90EF90DF90CF90A2
:1012800008951F920F920FB60F921124EF92FF92C2
:101290000F931F932F933F934F935F936F937F937E
:1012A0008F939F93AF93BF93CF93DF93EF93FF936E
:1012B00088B5835888BD0EEE11E0CAEED1E00F2E3E
:1012C000F2E5EF2EF2E0FF2EF02DF8018081882369
:1012D00081F19E0189859A85AB85BC850097A10522
:1012E000B105B9F04D815E816F8178854F5F5F4FA9
:1012F0006F4F7F4F4D835E836F8378870197A1097E
:10130000B10989879A87AB87BC87892B8A2B8B2B5E
:1013100081F41082D9011296ED91FC9113973097C8
:1013200041F08D919C91DC016D917D918D919C910D
:101330000995035F1F4F2D96CE15DF0531F6FF91FE
:10134000EF91DF91CF91BF91AF919F918F917F915D
:101350006F915F914F913F912F911F910F91FF904E
:10136000EF900F900FBE0F901F901895F894FFCF3D
:0C137000FFFF01A5B5D540000000020001
:00000001FF
