S0210000466F72645F3336305F4C69676874696E675F50726F6A6563742E73726563B5
S11300000C946C000C9459040C9489000C946D01AC
S11300100C949C010C9489000C9489000C94890024
S11300200C9489000C94E3000C94510E0C948900F8
S11300300C94680A0C94FB0A0C94660C0C94A400AF
S11300400C9406030C9489000C9489000C94890088
S11300501800D0FF0E010E01C0035E061E00011839
S113006000EBFF0000B400CA0858021E000118008B
S113007001000000B400CA0858021E000118001D47
S1130080000000B400CA0858021E0001000001006C
S11300905A000E01CA0858021E0001E8FF1D00B4F0
S11300A0000000CA0858021E0001E8FF0100B40065
S11300B00000CA0858021E0001E8FFEBFFB400006C
S11300C000CA0858021E0001E8FFD0FF5A005A0077
S11300D0C0035E061E00010011241FBECFEFD2E054
S11300E0DEBFCDBF11E0A0E0B1E0EEEEF2E202C06F
S11300F005900D92AA31B107D9F722E0AAE1B1E047
S113010001C01D92AD34B207E1F70E94E5070C94DB
S113011075110C940000ECE7F0E080818F7B808304
S1130120A7E7B0E08C918B7F8C938081886080837B
S11301308081887F8083EAE7F0E08081886880831B
S11301408081887F808308951F920F920FB60F924B
S113015011248F939F93EF93FF93EAE7F0E080815C
S1130160806180838091780090917900909301015F
S113017080930001FF91EF919F918F910F900FBE9B
S11301800F901F901895FC016F3F8FEF7807A9F02F
S1130190828593858617970728F42085318526174D
S11301A0370768F06817790760F481E020853185A6
S11301B06217730738F480E0089580E0089580E0C2
S11301C0089581E008951F920F920FB60F921124A3
S11301D08F93EF93FF9380911A01882319F0813054
S11301E039F00CC0E3E8F0E080818062808306C0CF
S11301F0E3E8F0E080818F7D80832B9880911A0161
S11302008F5F837080931A01FF91EF918F910F900C
S11302100FBE0F901F901895ECE6F0E0808180618E
S113022080832498808180628083259890B1909304
S11302301C0183B180931B0190931E0180931D01C7
S11302406DE773E082E091E00E94900DE8E6F0E053
S113025080818360808308956115704281059105D2
S1130260D9F580B180931C0183B180931B01807107
S113027090911D019071981730F460E070E084E073
S113028090E00E947D0390911B01907180911D016B
S11302908071981730F460E070E088E090E00E948C
S11302A07D0390911B01907280911D0180728917CA
S11302B030F460E070E080E190E00E947D03809182
S11302C01C0180931E0180911B0180931D01E8E6AF
S11302D0F0E080818360808308951F920F920FB6AF
S11302E00F9211242F933F934F935F936F937F93B8
S11302F08F939F93AF93BF93EF93FF93E8E6F0E060
S113030080818E7F80834AE050E060E070E082E08C
S113031091E00E94E00DFF91EF91BF91AF919F9109
S11303208F917F916F915F914F913F912F910F909A
S11303300FBE0F901F9018951F920F920FB60F9239
S113034011242F933F934F935F936F937F938F93D6
S11303509F93AF93BF93EF93FF93E8E6F0E0808120
S11303608D7F80834AE050E060E070E082E091E0BD
S11303700E94E00DFF91EF91BF91AF919F918F91FA
S11303807F916F915F914F913F912F910F900FBE8D
S11303900F901F901895CF93DF931F92CDB7DEB7C0
S11303A080EC898320E030E0AE014F5F5F4F60E076
S11303B081E00E94DC0B0F90DF91CF910895CF93E1
S11303C0DF9300D0CDB7DEB79B0193E099838A8396
S11303D0AE014F5F5F4F61E082E00E94DC0B0F9043
S11303E00F90DF91CF910895CF93DF9300D01F92A8
S11303F0CDB7DEB792E099838A83FB0180818B833A
S113040020E030E0AE014F5F5F4F60E083E00E9488
S1130410DC0B0F900F900F90DF91CF910895CF9345
S1130420DF9300D000D0CDB7DEB795E099838A83FF
S11304306B83FA0180818C8320E030E0AE014F5F52
S11304405F4F60E084E00E94DC0B0F900F900F90F0
S11304500F90DF91CF910895CF93DF939093200174
S113046080931F010E94CB0180E98093240164E200
S113047071E08FE00E94F4011092240144E251E003
S113048064E08FE00E940F02D1E4D093240144E29F
S113049051E061E08AE20E940F02C1EFC09324019F
S11304A044E251E067E089E20E940F02C093240114
S11304B044E251E068E389E20E940F02C093240100
S11304C044E251E060EC89E20E940F0285E88093E7
S11304D0240164E271E088E20E94F401D0932401D3
S11304E044E251E060EC8AE20E940F02DF91CF9176
S11304F008958FEF8093240164E271E08BE20E94FF
S1130500F40183E08093240164E271E080E30E94BB
S1130510F4011092240164E271E08DE00E94F40180
S11305201092240164E271E081E30E94F40180E20C
S11305308093240164E271E082E30E94F40110924A
S1130540240164E271E080E00E94F40164E271E05D
S113055081E00E94F40180E68093240164E271E06A
S11305600E94F4011092240144E251E060EE8FE015
S11305700E940F0281E291E0909323018093220173
S113058062E271E08EE00E94DF0108951F93CF9331
S1130590DF9316E6C0E0D0E060911F017091200166
S11305A06C0F7D1F812F0E94DF0122961F5FCA30CE
S11305B0D10591F7DF91CF911F910895FC018081BE
S11305C00895FC01818192810895FC01608308955E
S11305D0FC0172836183089570E0615071099B018D
S11305E0220F331F620F731F860F971F08959C01FC
S11305F09FB7F89432BD21BDFB01808180BD1FBA35
S1130600FA9A8FB38A608FBB9FBF08951F920F928F
S11306100FB60F9211242F933F934F935F936F93D1
S11306207F938F939F93AF93BF93CF93EF93FF9356
S1130630FB98C0912A0180912901C81718F01092E3
S11306402B0113C08C2F90E060912501709126013D
S1130650680F791F2091270130912801820F931F81
S11306600E94F702CF5FC0932A01FF91EF91CF91CF
S1130670BF91AF919F918F917F916F915F914F91B6
S11306803F912F910F900FBE0F901F9018950F93CD
S11306901F938B019C01EFB7F89440912C0150916A
S11306A02D0160912E0170912F01D901C80184237D
S11306B09523A623B72380179107A207B30791F4C4
S11306C080959095A095B09584239523A623B72370
S11306D080932C0190932D01A0932E01B0932F01B0
S11306E081E001C080E0EFBF882321F0C901B80197
S11306F00E942F041F910F910895CF92DF92EF92E1
S1130700FF922FB7F894C0902C01D0902D01E09067
S11307102E01F0902F01DC01CB018C299D29AE29FB
S1130720BF2980932C0190932D01A0932E01B093A7
S11307302F012FBFFF90EF90DF90CF90089561E0DD
S113074070E080E090E00E94470362E070E080E0A7
S113075090E00E94470364E070E080E090E00E9433
S1130760470368E070E080E090E00E94470360E1A6
S113077070E080E090E00E94470360E270E080E077
S113078090E00E94470360E470E080E090E00E9403
S1130790470360E870E080E090E00E94470360E077
S11307A071E080E090E00E94470360E072E080E046
S11307B090E00E94470360E074E080E090E00E94D3
S11307C0470360E078E080E090E00E94470360E047
S11307D070E180E090E00E94470360E070E280E016
S11307E090E00E94470360E070E480E090E00E94A3
S11307F0470360E070E880E090E00E94470360E017
S113080070E081E090E00E94470360E070E082E0E5
S113081090E00E94470360E070E084E090E00E9472
S1130820470360E070E088E090E00E94470360E0E6
S113083070E080E190E00E94470381CF0E946A0D3E
S11308400E94D4070E94110B0E9444040E948B0052
S11308500E940C010E94170D0E9442080895CF9235
S1130860DF92EF92FF926B017C010E942C01C70181
S1130870B6010E949108C701B6010E941C0DFF90A9
S1130880EF90DF90CF9008952698E9E6F0E080811C
S11308908E7F8083808182608083E89AE09A0895C5
S11308A06091300170913101809132019091330156
S11308B008951F920F920FB60F9211242F933F9316
S11308C04F935F936F937F938F939F93AF93BF9354
S11308D0EF93FF93CF93DF931F92CDB7DEB7809151
S11308E0300190913101A0913201B0913301019610
S11308F0A11DB11D8093300190933101A093320169
S1130900B09333010E94C6021982AE014F5F5F4F5C
S113091060E48DE20E940F02AE014F5F5F4F6FEF04
S11309208CE20E940F020F90DF91CF91FF91EF9123
S1130930BF91AF919F918F917F916F915F914F91F3
S11309403F912F910F900FBE0F901F90189586170F
S1130950970728F49B01281B390BC90108956817D0
S1130960790730F4681B790BCB0188599E4F0895A1
S113097080E090E008954F925F926F927F928F9201
S11309809F92AF92BF92CF92DF92EF92FF920F931A
S11309901F93CF93DF938B0149015A01009709F408
S11309A012C24FE050E0BC0185E491E00E945F1167
S11309B0A5E4B1E08D919C9111977401E81AF90AAC
S11309C0E7E3F1E0F182E08212968D919C91139716
S11309D0E501C81BD90BD383C283C701B7010E94A9
S11309E093109C01CE01BE010E949310820F931FAD
S11309F090933C0180933B01BC0180E090E00E9415
S1130A00670F2B013C0175946794579447940F2EFC
S1130A10FFED8F2EF9E59F2EF7E3AF2EFFE5BF2EF6
S1130A20F02D84189508A608B70820E030E040E0CF
S1130A305FE30E941E10A50194010E941E109B01F9
S1130A40AC01C501B4010E941E109B01AC0160E021
S1130A5070E080EC9FE30E94C60E9B01AC01C501CF
S1130A60B4010E941E104B015C01BE01DD0F880B16
S1130A70990B0E94690F9B01AC01C501B4010E944E
S1130A801E104B015C0120E030E040E85FE30E946F
S1130A90191018169CF020E030E040E85FEBC50127
S1130AA0B4010E94330F88238CF40F2E812C912CD7
S1130AB0F0E8AF2EFFEBBF2EF02D08C00F2E812CD7
S1130AC0912CF0E8AF2EFFE3BF2EF02D22EC38EB93
S1130AD042E35FEBC501B4010E941E109B01AC010F
S1130AE0C501B4010E941E1023EF36E64FE55FE313
S1130AF00E94C60E9B01AC01C501B4010E941E10E8
S1130B002BED3FE049EC5FE30E94C70E20E030E0AC
S1130B1044E652E40E941E100E94380FFF2034F471
S1130B2028E631E0A901461B570BBA017093440132
S1130B306093430180915301882309F1E5E4F1E0D6
S1130B4084819581668177818617970739F488E6D1
S1130B5091E0909342018093410119C00E94A7043F
S1130B602091510130915201820F931F68E671E088
S1130B700E94A410909342018093410108C0809187
S1130B805101909152019093420180934101E5E417
S1130B90F1E024853585369527958481958188599A
S1130BA09E4F821B930BC8E6D1E0BE010E94A410A5
S1130BB07C019093400180933F01468157814859BD
S1130BC05E4FCA01820F931FBE010E94A41090932E
S1130BD03E0180933D016091430170914401C7013E
S1130BE00E94A7042091410130914201281739073E
S1130BF008F0DDC02836314008F4C3C063E284E362
S1130C0091E00E94E50280915301882309F4AEC06B
S1130C10E5E4F1E0C481D58186809780C815D905C3
S1130C2031F0B401CE010E94A7046C0106C00F2E5E
S1130C30F8E6CF2EDD24D394F02DA0904301B0909C
S1130C404401B501CE010E94A7047C018C159D05C9
S1130C50B0F0B501C4010E94A7047C01BE01C50126
S1130C600E94A7048E159F0528F4C0914D01D091D0
S1130C704E0174C0C0914F01D09150016FC0E5E4A2
S1130C80F1E062847384C085D185C615D70590F5DB
S1130C90BE0180E090E00E94670F4B015C01B70148
S1130CA080E090E093012C1B3D0B40E050E00E945B
S1130CB0DC10F22FE32FB42FA52F960140E050E073
S1130CC06F2F7E2F8B2F9A2F0E94B810CA01B90163
S1130CD00E94670F20E030E040E05FE30E94C70E0F
S1130CE09B01AC01C501B4010E94C70E0E94380FDC
S1130CF0EB0134C06C167D0688F5BE0180E090E0FF
S1130D000E94670F4B015C01B70180E090E0C619B7
S1130D10D7099E0140E050E00E94DC10B22FA32FBF
S1130D20F42FE52F960140E050E06B2F7A2F8F2FA0
S1130D309E2F0E94B810CA01B9010E94670F20E0DB
S1130D4030E040E05FE30E94C70E9B01AC01C501A7
S1130D50B4010E94C60E0E94380FEB01BE0185E467
S1130D6091E00E94C300882321F005C0CFEFDFEF9C
S1130D7002C0CFEFDFEFBE0184E391E00E94E802FE
S1130D800BC060E084E391E00E94E5026FEF7FEF27
S1130D9084E391E00E94E80280913401909135014E
S1130DA0A0913601F80180839183A2830CC063E291
S1130DB084E391E00E94E50280915301811128CFE0
S1130DC0CFEFDFEFD8CFDF91CF911F910F91FF903D
S1130DD0EF90DF90CF90BF90AF909F908F907F90D7
S1130DE06F905F904F90089508980998109A119AFF
S1130DF090E89093C8001092CA00EDECF0E01082E5
S1130E00AEECB0E01C92252F33272C934083803422
S1130E1021F488E48093C80005C081110DC088E0E6
S1130E208093C8008FE08093CA00ECECF0E08081EE
S1130E308068808381E0089580E00895E8ECF0E024
S1130E4090819C7F90838034C1F4E0EDF0E0808158
S1130E50807F808380816F70682B608380818F7C2A
S1130E608083808150E04C5F5F4F440F551F440FD7
S1130E70551F4073482B40830BC0811113C0E0ED14
S1130E80F0E08081807C808380816F73682B608335
S1130E90E8ECF0E080818C7F8083808181608083B6
S1130EA081E0089580E00895803431F4E8ECF0E0C6
S1130EB080818064808309C0811111C0E8ECF0E076
S1130EC0808180836F706093CF00E8ECF0E08081D4
S1130ED08C7F808380818260808381E0089580E0BC
S1130EE00895803431F4E8ECF0E0808180648083FC
S1130EF00BC0811125C0E8ECF0E080818083842F51
S1130F008295807F8093CF001092D100442371F0AA
S1130F10FB01415050E04F5F5F4F640F751FA2ED1E
S1130F20B0E081918C93E617F707D9F7E8ECF0E08D
S1130F3080818C7F808380818360808381E00895B9
S1130F4080E008952091CF002F701092D1002223C9
S1130F5071F0FC01215030E02F5F3F4F820F931F4F
S1130F60A2EDB0E02C912193E817F907D9F7089581
S1130F709091540181E089278093540181110AC022
S1130F80139842E050E060E070E085E591E00E9453
S1130F90E00D0895139A43E250E060E070E085E5C7
S1130FA091E00E94E00D0895139A0B9A68EB77E0A4
S1130FB085E591E00E94900D43E250E060E070E02E
S1130FC085E591E00E94E00D0895F894E1E6F0E0F3
S1130FD080E8808310820E941E0478940E949F03FC
S1130FE080E090E00895809119010E94620A809146
S1130FF01901833121F482E08093190103C08F5FCA
S11310008093190145E050E060E070E08DE691E0E6
S11310100E94E00D08950F931F93CF93DF93D82F71
S11310208B01C1E06C2F8CE891E00E94EC026D2FE3
S11310300E94E5026C2F8CE891E00E94EC02B8015A
S11310400E94E802CF5FCA3069F7DF91CF911F9108
S11310500F910895CF93C1E06C2F8CE891E00E942A
S1131060EC0260E00E94E5026C2F8CE891E00E94A3
S1131070EC026FEF7FEF0E94E802CF5FCA3061F7A6
S1131080CF910895CF931092A701C1E06C2F8CE803
S113109091E00E94EC026FEF0E94E5026C2F8CE855
S11310A091E00E94EC026FEF7FEF0E94E802CF5FB5
S11310B0CA3061F741E751E06CE871E087EA91E0FA
S11310C00E943D0A63EF77E08DE691E00E94900D67
S11310D045E050E060E070E08DE691E00E94E00DB4
S11310E06DE773E085E191E00E94900D48EC50E0DB
S11310F060E070E085E191E00E94E00D8BE091E01A
S11311000E942C0210925E011C9B03C081E080931C
S11311105E016DE773E087E091E00E94900DCF914E
S11311200895DF92EF92FF920F931F93CF93DF9373
S1131130611524E072078105910509F415C160F475
S1131140611521E0720781059105A1F061157240D6
S11311508105910531F189C16115710524E082078A
S1131160910509F4F4C0611571058840910509F4ED
S1131170F2C07BC10E94790280E092E0A0E0B0E07E
S11311808093150190931601A0931701B093180151
S113119048EC50E060E070E085E191E00E94E00DF1
S11311A064C142E350E060E070E085E191E00E94B8
S11311B0E00DCFB7F89445E050E068E671E083E6CF
S11311C091E00E946811892BB1F080916801803A06
S11311D039F018F48D3489F403C0805B833068F4EB
S11311E085E0E8E6F1E0A3E6B1E001900D928A958E
S11311F0E1F781E003C080E001C080E0CFBF882335
S113120009F433C1C0915E01C13009F02EC180914F
S11312106301803B09F471C028F48D34E9F1803A0C
S113122041F023C1813B09F478C0823B09F483C0B7
S11312301CC18FEF8093590187E091E00E94240E36
S1131240D12CE12CF12CD0E080916301803A41F45F
S1131250D0906401E0906501F0906601D09167013F
S1131260D0925F01E0926001F0926101D09362013B
S11312706C2F8CE891E00E94EC028C018C2F0E9470
S1131280390B2D2D3E2D4F2D5D2FB8010E94BB042F
S1131290CF5FCA3069F7E9C08FEF8093590187E0C7
S11312A091E00E94240E809163018D3431F485E62F
S11312B091E00E94DE02182F01C01FEFC3E6D1E0C7
S11312C069818CE891E00E94EC02612F0E94E502A2
S11312D088818D3431F485E691E00E94E102EC01CD
S11312E002C0CFEFDFEF609164018CE891E00E94CF
S11312F0EC02BE010E94E802B8C081E080930601BE
S113130010925D01809359014AE050E060E070E082
S113131087E091E00E94E00DA8C010925B0182E09A
S1131320809359014AE050E060E070E087E091E08A
S11313300E94E00D9AC083E0809359014AE050E096
S113134060E070E087E091E00E94E00D8EC081E0F3
S113135080935E018AC010925E0187E091E00E9452
S1131360240E0E942A0881C080915901823009F418
S113137045C0833009F477C0813009F076C06AEA49
S113138075E080915D010E940B0869E08CE891E0B2
S11313900E94EC026FE075E00E94E80261E08CE8D4
S11313A091E00E94EC026FE075E00E94E8028091F7
S11313B00601882331F090915D019F5F90935D0158
S11313C005C090915D01915090935D0190915D01F4
S11313D0992311F0943649F491E08927809306010A
S11313E080915C018F5F80935C014FE050E060E08E
S11313F070E087E091E00E94E00D37C080915B01CE
S1131400882331F06AEA75E080E00E940B0805C089
S11314106AEA75E08BE40E940B0869E08CE891E0CD
S11314200E94EC026FE075E00E94E80261E08CE843
S113143091E00E94EC026FE075E00E94E802909156
S11314405B0181E0892780935B0180915A018F5F62
S113145080935A0148EC50E060E070E087E091E04E
S11314600E94E00D02C00E942A08DF91CF911F91D3
S11314700F91FF90EF90DF900895EF92FF920F93FA
S11314801F93CF93DF937C018B01EA01289A209A62
S11314904CE050E060E070E080E00E94F406F092DE
S11314A0AE01E092AD011093AC010093AB01D09377
S11314B0AA01C093A901DF91CF911F910F91FF90D1
S11314C0EF90089540E0682F80E00E941E07089581
S11314D01F920F920FB60F9211242F933F934F93A5
S11314E05F936F937F938F939F93AF93BF93EF9388
S11314F0FF938091C9008F70823009F468C08430F2
S113150021F0813009F066C036C09091D000692F77
S11315106F73E091AD01F091AE018081681305C055
S113152063E080E00E94540722C0282F21606213E8
S113153009C06091A9017091AA0143E080E00E9472
S1131540710715C0811113C090FD0DC0669580917F
S1131550AB019091AC010E94EC0243E0BC0180E03D
S11315600E94710704C063E080E00E94540784E095
S11315708093C9002FC0E091AD01F091AE0180814C
S1131580811115C06091D0006F7370E075956795F7
S11315908091A9019091AA010E94EC020E94A207E5
S11315A060E470E080E090E00E947D030CC08091D4
S11315B0AB019091AC010E94A20761E070E080E071
S11315C090E00E947D0381E08093C90003C082E023
S11315D08093C900FF91EF91BF91AF919F918F913B
S11315E07F916F915F914F913F912F910F900FBE1B
S11315F00F901F9018951F920F920FB60F921124FF
S11316008F938091CB008091A8018F5F8093A80174
S113161088E08093C9008F910F900FBE0F901F90A8
S113162018952FB7F8941092820010926F0084E2FC
S11316308093830084B1886184B987E893E19093AF
S11316408700809386008FEF9FEF909389008093AB
S1131650880090938B0080938A0082EF80938000AF
S1131660E1E8F0E088E180838081826080832FBF9D
S113167008959FEF980F993070F4282F30E0C90136
S113168082959295907F9827807F9827821B930B51
S11316908F5B9F4F089580E090E00895CF93DF9390
S11316A010920A0281B1806781B980ED8CBD169ACF
S11316B01092B9011092B6011092B701E3EDF1E076
S11316C0AAEBB1E02EEC31E08FEFEF012597888390
S11316D021968883219688832196888321968883FE
S11316E080831D921D923696A217B30771F7DF917E
S11316F0CF9108958091B90190E0FC01EE0FFF1F96
S1131700DF01A80FB91FAA0FBB1FA253BE4F2C9114
S11317102093B501FD0181818093B4012F3F19F419
S113172091E09093B5018F3F11F41092B40110929F
S1131730B7011092B60181E08093B3018091B501A5
S11317408F3F99F48091AF019091B001A091B101C4
S1131750B091B2010196A11DB11D8093AF01909388
S1131760B001A093B101B093B20116980895169AEE
S113177008952091B9013091B601822F90E0820F33
S1131780911D820F911DFC01EE0FFF1FE253FE4FCE
S1131790E30FF11D82818EBD8091B301882331F066
S11317A08091B6018F5F8093B60108958091B60150
S11317B08F5F8093B6010895AF92BF92CF92DF926C
S11317C0EF92FF920F931F93CF93DF93D82EC62EE1
S11317D0EA0179010E9450046093AF017093B00153
S11317E08093B1019093B2018D2D90E08C010E5F36
S11317F01F4F2091B80130E0DE011297C901880F14
S1131800991F820F931F880F991FE0E0F0E09C015D
S113181022533E4F59012F5F3F4F309719F4E50192
S1131820D8820EC0E130F10519F4E901C88208C07C
S11318306C91AF01480F591F42535E4FEA01688310
S113184031961196E017F10744F332C08091B80144
S1131850893019F41092B80103C08F5F8093B801E6
S11318600E94670D811127C02091B901822F90E059
S1131870820F911D820F911D880F991FFC01E25365
S1131880FE4F80818F3FB9F060E070E480E090E02B
S11318900E947D0310C0F70180819181E091B8011D
S11318A0F0E0EE0FFF1FE654FE4F91838083CECF0E
S11318B0C110F1CFCBCFDF91CF911F910F91FF904A
S11318C0EF90DF90CF90BF90AF9008951F920F924A
S11318D00FB60F9211242F933F934F935F936F93FF
S11318E07F938F939F93AF93BF93EF93FF938091D5
S11318F00A0281118BC08DB58091B3018823E1F078
S11319009091B6018091B5018917A0F0981307C092
S11319108091B401811103C01092B3010DC060E045
S113192070E880E090E00E947D038091B301811112
S11319306DC002C01092B3019091B401992309F1D2
S11319408091B7012091B901E82FF0E0E20FF11D79
S1131950EE0FFF1FE654FE4F0190F081E02D30970B
S113196011F42EB502C02EB520838F5F8093B7018A
S1131970891738F460E070E081E090E00E947D0314
S113198045C03091B901832F90E0AC01440F551F3D
S1131990FA01E80FF91FEE0FFF1FE253FE4F2FEF7E
S11319A020832183228323832483FA01E80FF91FF0
S11319B0EE0FFF1FE253FE4F2583FA01E654FE4F5C
S11319C011821082393019F41092B90103C03F5FBB
S11319D03093B9012091B901822F90E0820F911DBB
S11319E0820F911D880F991FFC01E253FE4F8081E5
S11319F08F3F31F060E070E480E090E00E947D036E
S1131A0060E070E082E090E00E947D03FF91EF913E
S1131A10BF91AF919F918F917F916F915F914F9102
S1131A203F912F910F900FBE0F901F901895109219
S1131A300B020E944E0B089520910B022130A9F055
S1131A4018F0223089F108956115704481059105DB
S1131A50E9F50E947A0B81E080930B0260E070E864
S1131A6080E090E00E947D030895611520E87207EC
S1131A708105910519F40E94B90B0895611571054A
S1131A8021E08207910531F40E94B90B82E0809332
S1131A900B0208956115710582409105B9F40E9405
S1131AA0B70B10920B0208956115710521E08207AE
S1131AB0910519F40E94B90B0895611571058240CE
S1131AC0910521F40E94B70B10920B0208958091A6
S1131AD00B020895ECE0F2E0A0E1B2E08DE492E0C4
S1131AE011821082138212821C921582168217822E
S1131AF0108611861286138614863D961D96E81765
S1131B00F90771F715BC16BC18BC88B5835888BD95
S1131B1082E080936E0016BC86B5836086BD08950E
S1131B20CF93DF93C0910C02D0910D02C817D9074F
S1131B3009F443C0ACE0B2E040E452E0FD01258585
S1131B40368528173907C9F13D96E417F507B9F723
S1131B502FC01D964D915C911E97452B11F502C027
S1131B6020E030E04FB7F894F901EE0FFF1FE20FC9
S1131B70F31FEE0FFF1FEE0FFF1F2E0F3F1FF90184
S1131B80E45FFD4F918380837383628314821582A3
S1131B9016821782108611861286138614864FBF0A
S1131BA00CC02F5F3F4F1D962530310591F605C0BF
S1131BB0CD2BB1F221E030E0CCCFDF91CF9108956D
S1131BC0CF92DF92EF92FF9220910C0230910D029E
S1131BD02817390751F0ECE0F2E021E030E0A58568
S1131BE0B685A817B90729F502C020E030E08FB701
S1131BF0F894F901EE0FFF1FE20FF31FEE0FFF1F22
S1131C00EE0FFF1F2E0F3F1FF901E45FFD4F91E020
S1131C10948315821682178210866A017B01CC0C8C
S1131C20DD1CEE1CFF1CC186D286E386F4868FBFC2
S1131C3006C02F5F3F4F3D962530310581F6FF905A
S1131C40EF90DF90CF90089520910C0230910D0217
S1131C502817390751F0ECE0F2E021E030E0458547
S1131C60568548175907B1F402C020E030E08FB719
S1131C70F894F901EE0FFF1FE20FF31FEE0FFF1FA1
S1131C80EE0FFF1F2E0F3F1FF901E45FFD4F14827B
S1131C908FBF08952F5F3F4F3D9625303105F9F6EC
S1131CA008951F920F920FB60F921124EF92FF9294
S1131CB00F931F932F933F934F935F936F937F9350
S1131CC08F939F93AF93BF93CF93DF93EF93FF9340
S1131CD088B5835888BD00E112E0CCE0D2E00F2E35
S1131CE0FDE4EF2EF2E0FF2EF02DF8018081882331
S1131CF081F19E0189859A85AB85BC850097A105F4
S1131D00B105B9F04D815E816F8178854F5F5F4F7A
S1131D106F4F7F4F4D835E836F8378870197A1094F
S1131D20B10989879A87AB87BC87892B8A2B8B2B30
S1131D3081F41082D9011296ED91FC91139730979A
S1131D4041F08D919C91DC016D917D918D919C91DF
S1131D500995035F1F4F2D96CE15DF0531F6FF91D0
S1131D60EF91DF91CF91BF91AF919F918F917F912F
S1131D706F915F914F913F912F911F910F91FF9020
S1131D80EF900F900FBE0F901F9018955058BB27DF
S1131D90AA270E94DE0E0C94DF0F0E94D10F38F0A8
S1131DA00E94D80F20F039F49F3F19F426F40C94C4
S1131DB0CE0F0EF4E095E7FB0C94C80FE92F0E94B8
S1131DC0F00F58F3BA17620773078407950720F0DA
S1131DD079F4A6F50C9412100EF4E0950B2EBA2F9C
S1131DE0A02D0B01B90190010C01CA01A00111241D
S1131DF0FF27591B99F0593F50F4503E68F11A16C9
S1131E00F040A22F232F342F4427585FF3CF469559
S1131E1037952795A795F0405395C9F77EF41F167B
S1131E20BA0B620B730B840BBAF09150A1F0FF0F45
S1131E30BB1F661F771F881FC2F70EC0BA0F621F31
S1131E40731F841F48F4879577956795B795F79521
S1131E509E3F08F0B0CF9395880F08F09927EE0FB6
S1131E609795879508950E94A40F08F481E008953A
S1131E700E94F80F88F09F5798F0B92F9927B7510F
S1131E80B0F0E1F0660F771F881F991F1AF0BA951A
S1131E90C9F714C0B13091F00E941210B1E0089556
S1131EA00C941210672F782F8827B85F39F0B93F48
S1131EB0CCF3869577956795B395D9F73EF49095CD
S1131EC08095709561957F4F8F4F9F4F0895E8944B
S1131ED009C097FB3EF490958095709561957F4F6E
S1131EE08F4F9F4F9923A9F0F92F96E9BB2793951C
S1131EF0F695879577956795B795F111F8CFFAF42C
S1131F00BB0F11F460FF1BC06F5F7F4F8F4F9F4F5C
S1131F1016C0882311F096E911C0772321F09EE8BA
S1131F20872F762F05C0662371F096E8862F70E020
S1131F3060E02AF09A95660F771F881FDAF7880FFA
S1131F409695879597F90895990F0008550FAA0B50
S1131F50E0E8FEEF16161706E807F907C0F01216B8
S1131F601306E407F50798F0621B730B840B950BBB
S1131F7039F40A2661F0232B242B252B21F4089510
S1131F800A2609F4A140A6958FEF811D811D0895AD
S1131F9097F99F6780E870E060E008959FEF80EC18
S1131FA0089500240A9416161706180609060895BB
S1131FB000240A9412161306140605060895092E21
S1131FC00394000C11F4882352F0BB0F40F4BF2B90
S1131FD011F460FF04C06F5F7F4F8F4F9F4F0895D0
S1131FE057FD9058440F551F59F05F3F71F04795C6
S1131FF0880F97FB991F61F09F3F79F087950895AB
S1132000121613061406551FF2CF4695F1DF08C0C9
S1132010161617061806991FF1CF869571056105E6
S113202008940895E894BB2766277727CB0197F98E
S113203008950E94A40F08F48FEF08950E943010B1
S11320400C94DF0F0E94D10F38F00E94D80F20F0BB
S1132050952311F00C94C80F0C94CE0F0C9413100C
S11320600E94F00F78F39923C9F35523B9F3950F20
S113207050E0551FAA27EE27FF27BB27002408940A
S1132080679520F4E20FF31FB41F0A1E220F331FBB
S1132090441FAA1F6695A9F7779530F4F30FB41F70
S11320A00A1E121E08F46395330F441FAA1F221F31
S11320B0769599F7879520F4B40F0A1E121E631FB4
S11320C0440FAA1F221F331F8695A9F7862F712D4F
S11320D0602D11249F5750409AF0F1F088234AF064
S11320E0EE0FFF1FBB1F661F771F881F91505040C4
S11320F0A9F79E3F510580F00C94C80F0C9413105F
S11321005F3FE4F3983ED4F3869577956795B7954A
S1132110F795E7959F5FC1F7FE2B880F911D969564
S1132120879597F908950024552704C0080E591F70
S1132130880F991F009729F076956795B8F3710574
S1132140B9F7802D952F0895AA1BBB1B51E107C039
S1132150AA1FBB1FA617B70710F0A61BB70B881F33
S1132160991F5A95A9F780959095BC01CD010895C2
S1132170A1E21A2EAA1BBB1BFD010DC0AA1FBB1F87
S1132180EE1FFF1FA217B307E407F50720F0A21BF9
S1132190B30BE40BF50B661F771F881F991F1A9466
S11321A069F760957095809590959B01AC01BD0190
S11321B0CF01089568940013E894A0E0B0E0E3EE42
S11321C0F0E10C940211EFEFE7F959016A015E2383
S11321D0550FEE08FE2C87019B01AC019E23990F3D
S11321E0660B762FCB010E943111CDB7DEB7EAE042
S11321F00C941E112F923F924F925F926F927F9296
S11322008F929F92AF92BF92CF92DF92EF92FF9202
S11322100F931F93CF93DF93CDB7DEB7CA1BDB0BAE
S11322200FB6F894DEBF0FBECDBF09942A88398853
S113223048885F846E847D848C849B84AA84B9845A
S1132240C884DF80EE80FD800C811B81AA81B98166
S1132250CE0FD11D0FB6F894DEBF0FBECDBFED017A
S11322600895DF93CF939F92A0E49A2E0024D00187
S1132270E001F00116950795F794E794D794C79475
S1132280B794A79448F41068A20FB31FC41FD51FB6
S1132290E61FF71F081E191E220F331F441F551F68
S11322A0661F771F881F991F9A9421F79D01AE011D
S11322B0BF01C00111249F90CF91DF910895FB01CC
S11322C0DC0102C005900D9241505040D8F70895AA
S11322D0FB01DC0104C08D910190801921F441506F
S11122E05040C8F7881B990B0895F894FFCF5F
S11322EEFFFF002000000100040000680169016A7C
S10D22FE016B016C010001000002F5
S9030000FC
