:100000000C9428000C9460030C9445000C948B0114
:100010000C94BA010C9445000C9445000C944500D6
:100020000C9445000C9413010C94C2070C944500E9
:100030000C946E040C9401050C9445000C94600023
:100040000C9447020C9445000C9445000C94450018
:1000500011241FBECFEFD2E0DEBFCDBF11E0A0E084
:10006000B1E0E6EBF0E102C005900D92A031B107DE
:10007000D9F721E0A0E1B1E001C01D92A13AB20799
:10008000E1F70E943B040C9459080C940000ECE743
:10009000F0E080818F7B8083A7E7B0E08C918B7F3D
:1000A0008C938081886080838081887F8083EAE769
:1000B000F0E08081886880838081887F80830895D4
:1000C0001F920F920FB60F9211248F939F93EF936D
:1000D000FF93EAE7F0E0808180618083809178007F
:1000E000909179009093010180930001FF91EF912D
:1000F0009F918F910F900FBE0F901F90189560E009
:1001000081E00E943F05089560E070E0CB010E940D
:100110007F00E3E8F0E080818F7D80832B98109250
:100120001001EFE6F0E08081816080836FE770E08E
:1001300081E191E00E940A0708950F931F938F3F7A
:100140000FEF900709F466C0A0E0B0E0AC01BD017C
:10015000440F551F661F771F440F551F661F771FDB
:10016000440F551F661F771F8A019B01000F111F47
:10017000221F331F000F111F221F331F400F511F5B
:10018000621F731F8A019B01000F111F221F331F63
:10019000000F111F221F331F400F511F621F731FBB
:1001A0008A019B01000F111F221F331F000F111F17
:1001B000221F331F400F511F621F731F8A019B01B3
:1001C000000F111F221F331F000F111F221F331F8B
:1001D000400F511F621F731F8A019B01081B190BDF
:1001E0002A0B3B0BC901B80128E833E140E050E09D
:1001F0000E94370887E893E1821B930B90938B0052
:1002000080938A0040ED57E060E070E081E191E08A
:100210000E9457071F910F91089560E070E0CB0195
:100220000E947F0008951F920F920FB60F92112423
:100230008F93EF93FF9380911001882319F0813001
:1002400039F00CC0E3E8F0E080818062808306C072
:10025000E3E8F0E080818F7D80832B98809110010E
:100260008F5F837080931001FF91EF918F910F90BA
:100270000FBE0F901F901895ECE6F0E0808184602F
:100280008083229890B19093160183B180931501D9
:1002900090931801809317016CEB72E082E091E07B
:1002A0000E940A07E8E6F0E0808183608083089579
:1002B000611570428105910569F580B18093160141
:1002C00083B18093150184709091170194709817F1
:1002D00030F460E078E080E090E00E94BC02909111
:1002E00015019470809117018470981730F460E0C4
:1002F00070E180E090E00E94BC0280911601809342
:1003000018018091150180931701E8E6F0E08081E3
:100310008360808308951F920F920FB60F9211246D
:100320002F933F934F935F936F937F938F939F93FD
:10033000AF93BF93EF93FF93E8E6F0E080818E7F69
:1003400080834AE050E060E070E082E091E00E944B
:100350005707FF91EF91BF91AF919F918F917F913F
:100360006F915F914F913F912F910F900FBE0F9022
:100370001F9018951F920F920FB60F9211242F9372
:100380003F934F935F936F937F938F939F93AF931D
:10039000BF93EF93FF93E8E6F0E080818D7F808349
:1003A0004AE050E060E070E082E091E00E94570790
:1003B000FF91EF91BF91AF919F918F917F916F913D
:1003C0005F914F913F912F910F900FBE0F901F9013
:1003D0001895FC0180810895FC0181819281089526
:1003E000FC0160830895FC0172836183089570E0CD
:1003F000615071099B01220F331F620F731F860F1B
:10040000971F089520911F01211119C05FB7F8941B
:1004100021E020931F01442379F0282F392FFB017D
:10042000640F711D32BD21BDF89A80B581932F5F95
:100430003F4FE617F707B1F710921F015FBF08950E
:100440009C019FB7F89432BD21BDFB01808180BD26
:100450001FBAFA9A8FB38A608FBB9FBF0895CF935C
:1004600020911F01211111C0C1E0C0931F01909381
:100470001C0180931B0170931A0160931901409332
:100480001D010E942002C0931E01CF9108951F926A
:100490000F920FB60F9211242F933F934F935F93B8
:1004A0006F937F938F939F93AF93BF93CF93EF936C
:1004B000FF93FB98C0911E0180911D01C81718F091
:1004C00010921F0113C08C2F90E060911901709160
:1004D0001A01680F791F20911B0130911C01820FB6
:1004E000931F0E942002CF5FC0931E01FF91EF91E6
:1004F000CF91BF91AF919F918F917F916F915F91BC
:100500004F913F912F910F900FBE0F901F90189514
:10051000CF92DF92EF92FF920F931F9300912001F1
:100520001091210120912201309123016B017C0166
:10053000C022D122E222F3226C157D058E059F0593
:10054000A1F46B017C01C094D094E094F0940C2150
:100550001D212E213F210093200110932101209382
:100560002201309323010E943F031F910F91FF90BE
:10057000EF90DF90CF9008950F931F93009120018B
:10058000109121012091220130912301DC01CB0146
:10059000802B912BA22BB32B8093200190932101D0
:1005A000A0932201B09323011F910F91089561E060
:1005B00070E080E090E00E94880262E070E080E0FD
:1005C00090E00E94880264E070E080E090E00E9489
:1005D000880268E070E080E090E00E94880260E1BC
:1005E00070E080E090E00E94880260E270E080E0CD
:1005F00090E00E94880260E470E080E090E00E9459
:10060000880260E870E080E090E00E94880260E08C
:1006100071E080E090E00E94880260E072E080E09B
:1006200090E00E94880260E074E080E090E00E9428
:10063000880260E078E080E090E00E94880260E05C
:1006400070E180E090E00E94880260E070E280E06B
:1006500090E00E948802ABCF0E94E4060E942A0428
:100660000E9417050E9454030E9447000E948400C4
:100670000E943C010E9442060E9494050895CF9278
:10068000DF92EF92FF926B017C010E945801C7013B
:10069000B6010E946D06C701B6010E94A105FF9038
:1006A000EF90DF90CF9008952698E9E6F0E0808102
:1006B0008D7F8083808181608083E89AE09A0895AD
:1006C0001F920F920FB60F9211240F900FBE0F9032
:1006D0001F901895811104C060E00E943F050895A5
:1006E0009FEF980F9D3128F46EE180E00E943F0556
:1006F0000895853628F064E680E00E943F0508955D
:10070000682F80E00E943F05089508980998109A84
:10071000119A90E89093C8001092CA00EDECF0E0B6
:100720001082AEECB0E01C92252F33272C9340832F
:10073000803421F488E48093C80005C0811108C08A
:1007400088E08093C8008FE08093CA0081E008951C
:1007500080E00895803431F4E8ECF0E0808180643A
:10076000808309C0811111C0E8ECF0E080818083B2
:100770006F706093CF00E8ECF0E080818C7F808325
:1007800080818260808381E0089580E008958034D4
:1007900031F4E8ECF0E08081806480830BC081114B
:1007A00025C0E8ECF0E080818083842F8295807FF3
:1007B0008093CF001092D100442371F0FB0141508F
:1007C00050E04F5F5F4F640F751FA2EDB0E0819165
:1007D0008C93E617F707D9F7E8ECF0E080818C7F7F
:1007E000808380818360808381E0089580E0089524
:1007F0002091CF002F701092D100222371F0FC01C4
:10080000215030E02F5F3F4F820F931FA2EDB0E0E9
:100810002C912193E817F907D9F7089590912401B5
:1008200081E089278093240181110AC0139842E056
:1008300050E060E070E085E291E00E945707089583
:10084000139A43E250E060E070E085E291E00E949C
:1008500057070895139A0B9A6EE074E085E291E0D1
:100860000E940A0743E250E060E070E085E291E018
:100870000E9457070895F894E1E6F0E080E880834D
:1008800010820E942C0378940E94D70280E090E0AE
:100890000895EF92FF920F931F93CF93DF937C0104
:1008A0008B01EA01149A0C9A4CE050E060E070E091
:1008B00080E00E948503F0922F01E0922E011093B8
:1008C0002D0100932C01D0932B01C0932A01DF91BD
:1008D000CF911F910F91FF90EF9008951F920F926B
:1008E0000FB60F9211242F933F934F935F936F9303
:1008F0007F938F939F93AF93BF93EF93FF938091D9
:10090000C9008F70823009F468C0843021F08130D2
:1009100009F066C036C09091D000692F6F73E091E6
:100920002E01F0912F018081681305C063E080E003
:100930000E94AA0322C0282F2160621309C060917F
:100940002A0170912B0143E080E00E94C70315C08B
:10095000811113C090FD0DC0669580912C0190917E
:100960002D010E94F70143E0BC0180E00E94C70313
:1009700004C063E080E00E94AA0384E08093C90081
:100980002FC0E0912E01F0912F018081811115C0BF
:100990006091D0006F7370E07595679580912A0122
:1009A00090912B010E94F7010E94F80360E071E032
:1009B00080E090E00E94BC020CC080912C019091DC
:1009C0002D010E94F80361E070E080E090E00E9459
:1009D000BC0281E08093C90003C082E08093C9001B
:1009E000FF91EF91BF91AF919F918F917F916F9107
:1009F0005F914F913F912F910F900FBE0F901F90DD
:100A000018951F920F920FB60F9211248F93809119
:100A1000CB00809129018F5F8093290188E080932A
:100A2000C9008F910F900FBE0F901F9018952FB790
:100A3000F8941092820010926F0084E280938300F9
:100A400084B1886184B987E893E1909387008093AB
:100A500086008FEF9FEF909389008093880090939A
:100A60008B0080938A0082EF80938000E1E8F0E0C1
:100A700088E180838081826080832FBF08958823EE
:100A800019F0813049F108956436E0F48FEF860F54
:100A90008336D8F470E0CB01880F991F880F991F17
:100AA000680F791FCB01880F991F880F991F680F56
:100AB000791F660F771F88279927861B970B885702
:100AC0009C4E05C080E090E002C08FEF9FEF9093B6
:100AD00089008093880008956436E0F48FEF860FD4
:100AE0008336D8F470E0CB01880F991F880F991FC7
:100AF000680F791FCB01880F991F880F991F680F06
:100B0000791F660F771F88279927861B970B8857B1
:100B10009C4E05C080E090E002C08FEF9FEF909365
:100B20008B0080938A0008956CEB72E08AE091E07C
:100B30000E940A076CEB72E086E091E00E940A07CF
:100B40000895209131012130B1F018F02230A1F147
:100B50000895611578408105910509F083C040E151
:100B600057E260E070E086E091E00E94570781E084
:100B7000809331010895683071058105910569F010
:100B8000611570418105910509F06CC086E091E026
:100B90000E94980710923101089540E65AEE60E0F5
:100BA00070E08AE091E00E9457078EE10E946A039C
:100BB00082E08093310108956830710581059105C7
:100BC00069F138F4643071058105910509F43FC07D
:100BD0000895611528E072078105910531F06115CE
:100BE00070418105910569F008958EE10E946A03C4
:100BF00048E853E160E070E086E091E00E9457072A
:100C0000089580E00E946A03809130018F5F809395
:100C1000300186E091E00E949807089580913001AC
:100C2000823048F0815080930E0160E470E080E0F3
:100C300090E00E94BC028AE091E00E94980780E068
:100C40000E946A031092300110923101089586E0EB
:100C500091E00E94980780E00E946A0310923001A0
:100C600010923101089581E090913101923009F0A4
:100C700080E0089580910E019FEF980F9D3108F05C
:100C80008FEF08956FEF85E391E00E94F0016FEF21
:100C90007FEF85E391E00E94F30160E082E391E061
:100CA0000E94F0016FEF7FEF82E391E00E94F30179
:100CB00041E068E371E080E090E00E94020280E0A1
:100CC0000E946A030E940D0142E351E065E371E076
:100CD00088E391E00E94490408951F93CF93DF9326
:100CE000613071058105910501F16034710581055F
:100CF000910509F065C00E943A06909138019695D9
:100D0000891709F45DC00E943A068F3F09F458C064
:100D10000E943A06880F8093380141E068E371E051
:100D200080E090E00E942F024BC00E9433068111A8
:100D300047C0DFB7F89485E391E00E94E9018F3F57
:100D4000D1F082E391E00E94E901C82F85E391E0B0
:100D50000E94E901C81779F085E391E00E94E9015A
:100D6000682F82E391E00E94F00182E391E00E940B
:100D7000E9010E946A03DFBF1FB7F89485E391E0A1
:100D80000E94EC010196D9F082E391E00E94EC010F
:100D9000EC0185E391E00E94EC01C817D90779F0D6
:100DA00085E391E00E94EC01BC0182E391E00E94A6
:100DB000F30182E391E00E94EC010E949D001FBFBD
:100DC000DF91CF911F910895E9E3F1E0ADE3B1E048
:100DD00081EA91E011821082138212821C921582A4
:100DE00016821782108611861286138614863D9607
:100DF0001D96E817F90771F715BC16BC18BC88B525
:100E0000835888BD82E080936E0016BC86B58360EF
:100E100086BD0895CF93DF93C0913901D0913A01F7
:100E2000C817D90709F440C0A9E3B1E044E951E08B
:100E3000FD012585368528173907B1F13D96E41760
:100E4000F507B9F72CC01D964D915C911E97452B67
:100E5000F9F402C020E030E0F901EE0FFF1FE20FCD
:100E6000F31FEE0FFF1FEE0FFF1F2E0F3F1FF901A5
:100E7000E75CFE4F918380837383628314821582C3
:100E800016821782108611861286138614860CC06D
:100E90002F5F3F4F1D9628303105A9F605C0CD2B99
:100EA000C9F221E030E0CFCFDF91CF910895CF920A
:100EB000DF92EF92FF922091390130913A01281789
:100EC000390751F0E9E3F1E021E030E0A585B6858E
:100ED000A817B90711F502C020E030E0F901EE0FC4
:100EE000FF1FE20FF31FEE0FFF1FEE0FFF1F2E0F6E
:100EF0003F1FF901E75CFE4F81E084831582168273
:100F0000178210866A017B01CC0CDD1CEE1CFF1CD5
:100F1000C186D286E386F48606C02F5F3F4F3D969A
:100F20002830310599F6FF90EF90DF90CF9008952B
:100F30002091390130913A012817390751F0E9E33E
:100F4000F1E021E030E0458556854817590799F4CE
:100F500002C020E030E0F901EE0FFF1FE20FF31FA7
:100F6000EE0FFF1FEE0FFF1F2E0F3F1FF901E75C73
:100F7000FE4F148208952F5F3F4F3D962830310574
:100F800011F708951F920F920FB60F921124EF924E
:100F9000FF920F931F932F933F934F935F936F9302
:100FA0007F938F939F93AF93BF93CF93DF93EF93F1
:100FB000FF9388B5835888BD0DE311E0C9E3D1E004
:100FC0000F2EF1EAEF2EF1E0FF2EF02DF8018081D7
:100FD000882381F19E0189859A85AB85BC85009720
:100FE000A105B105B9F04D815E816F8178854F5FB4
:100FF0005F4F6F4F7F4F4D835E836F83788701977D
:10100000A109B10989879A87AB87BC87892B8A2B6D
:101010008B2B81F41082D9011296ED91FC911397DC
:10102000309741F08D919C91DC016D917D918D9176
:101030009C910995035F1F4F2D96CE15DF0531F664
:10104000FF91EF91DF91CF91BF91AF919F918F91E0
:101050007F916F915F914F913F912F911F910F91D0
:10106000FF90EF900F900FBE0F901F901895A1E288
:101070001A2EAA1BBB1BFD010DC0AA1FBB1FEE1F12
:10108000FF1FA217B307E407F50720F0A21BB30B5D
:10109000E40BF50B661F771F881F991F1A9469F7D9
:1010A00060957095809590959B01AC01BD01CF0135
:0610B0000895F894FFCF43
:1010B600FFFF002000000800000004000000FF0001
:00000001FF
