:100000000C9470000C941A020C948D000C948D00CA
:100010000C948D000C948D000C948D000C948D002C
:100020000C948D000C94AE000C94FB040C948D0089
:100030000C94A0060C948D000C9497030C948F00E4
:100040000C948D000C948D000C948D000C948D00FC
:1000500041545E534943413D312C332F7241545E2C
:10006000534953533D302C22737276547970652274
:100070002C22736F636B6574222F7241545E534957
:1000800053533D302C22636F6E4964222C332F7200
:1000900041545E534953533D302C22616464726570
:1000A0007373222C22736F636B7463703A2F2F6CFF
:1000B000697374656E65723A323030303B657478BE
:1000C0003D32363B6175746F636F6E6E6563743D70
:1000D00031222F7241545E5349534F3D302F7200ED
:1000E00011241FBECFEFD2E0DEBFCDBF11E0A0E0F4
:1000F000B1E0E4E8FFE002C005900D92AE30B10738
:10010000D9F722E0AEE0B1E001C01D92AC39B207F0
:10011000E1F70E94A5020C94C0070C9400001F9206
:100120000F920FB60F9211248F939F93EF93FF932B
:10013000EAE7F0E08081806180838091780090918F
:1001400079009093010180930001FF91EF919F91BD
:100150008F910F900FBE0F901F9018951F920F92C6
:100160000FB60F9211248F93EF93FF9380910E019E
:10017000882319F0813039F00CC0E3E8F0E0808189
:100180008062808306C0E3E8F0E080818F7D808319
:100190002B9880910E018F5F837080930E01FF91E9
:1001A000EF918F910F900FBE0F901F901895CF93E6
:1001B000DF9300D0CDB7DEB79B0193E099838A83AC
:1001C000AE014F5F5F4F61E082E00E941D030F9020
:1001D0000F90DF91CF910895CF93DF9300D000D09F
:1001E000CDB7DEB795E099838A836B83FA0180816E
:1001F0008C8320E030E0AE014F5F5F4F60E084E031
:100200000E941D030F900F900F900F90DF91CF91E0
:100210000895EF92FF920F931F93CF93DF93082FD0
:10022000192F8FE091E0909311018093100160E10C
:1002300071E085E60E94D70020910F012223C1F0D2
:10024000C02FD12FE02EF12EE20EF11CE20EF11C98
:1002500016E689919991909311018093100160E1C4
:1002600071E0812F0E94D7001F5FCE15DF0589F74F
:10027000DF91CF911F910F91FF90EF900895CF9252
:10028000DF92EF92FF920F931F9300911201109152
:10029000130120911401309115016B017C01C022E2
:1002A000D122E222F3226C157D058E059F05A1F473
:1002B0006B017C01C094D094E094F0940C211D213A
:1002C0002E213F210093120110931301209314015A
:1002D000309315010E94F4011F910F91FF90EF9050
:1002E000DF90CF9008950F931F930091120110910A
:1002F00013012091140130911501DC01CB01802BF9
:10030000912BA22BB32B8093120190931301A093F6
:100310001401B09315011F910F91089561E070E0F1
:1003200080E090E00E943F0162E070E080E090E0B9
:100330000E943F0164E070E080E090E00E943F0195
:1003400068E070E080E090E00E943F0160E170E0D2
:1003500080E090E00E943F0160E270E080E090E089
:100360000E943F0160E470E080E090E00E943F0165
:1003700060E870E080E090E00E943F0160E071E0A2
:1003800080E090E00E943F0160E072E080E090E059
:100390000E943F0160E074E080E090E00E943F0135
:1003A00060E078E080E090E00E943F0160E070E172
:1003B00080E090E00E943F0160E070E280E090E029
:1003C0000E943F0160E070E480E090E00E943F0105
:1003D000A5CF0E9447040E94D5020E946F070E9489
:1003E00005020E9494020895CF92DF92EF92FF924D
:1003F0006B017C010E94E802C701B6010E947207EE
:10040000FF90EF90DF90CF9008952698E9E6F0E016
:1004100080818E7F8083808182608083E89AE09AE9
:1004200008956091160170911701809118019091C3
:10043000190108951F920F920FB60F9211240F9376
:100440001F932F933F934F935F936F937F938F935C
:100450009F93AF93BF93EF93FF93CF93DF93CDB76A
:10046000DEB76197DEBFCDBF809116019091170175
:10047000A0911801B09119010196A11DB11D8093A1
:10048000160190931701A0931801B09319018E01E2
:100490000F5F1F4F80E1F80111928A95E9F7C801BB
:1004A0000E94B302C8010E940901198AAE014F5E81
:1004B0005F4F6FEF8CE20E94EC0061960FB6F894EC
:1004C000DEBF0FBECDBFDF91CF91FF91EF91BF9106
:1004D000AF919F918F917F916F915F914F913F91DC
:1004E0002F911F910F910F900FBE0F901F90189595
:1004F00090911A0181E0892780931A0181110AC025
:10050000139842E050E060E070E08BE191E00E94DF
:10051000BA040895139A43E250E060E070E08BE182
:1005200091E00E94BA040895139A0B9A68E772E06A
:100530008BE191E00E946D0443E250E060E070E0E6
:100540008BE191E00E94BA040895F894E1E6F0E0AE
:1005500080E8808310820E94E90178940E948E01D5
:1005600080E090E00895FC0186E291E09183808331
:1005700085E291E09383828384E291E09583848392
:1005800083E291E09783868382E291E0918780877E
:1005900081E291E09387828780E291E0958784876A
:1005A0008FE191E09787868708950E94700563E741
:1005B00071E089E091E00E946D0448E853E160E059
:1005C00070E089E091E00E94BA042A98229A089586
:1005D0000F93603471058105910569F580910301E0
:1005E000882361F001E027E031E044E051E060E081
:1005F00083E00E9407061092030109C000E027E093
:1006000031E044E051E060E083E00E940706809121
:100610000201882321F02A9A1092020104C02A982C
:1006200081E0809302014AEF50E060E070E089E0F1
:1006300091E00E94BA040F910895AF92BF92CF92B9
:10064000DF92EF92FF920F931F93CF93DF93D82EF9
:10065000C62EEA0179010E9411026093280170936D
:10066000290180932A0190932B018D2D90E08C011C
:100670000E5F1F4F2091310130E0DE011297C9015A
:10068000880F991F820F931F880F991FE0E0F0E0F9
:100690009C01275B3E4F59012F5F3F4F309719F464
:1006A000E501D8820EC0E130F10519F4E901C882F4
:1006B00008C06C91AF01480F591F475B5E4FEA01BC
:1006C000688331961196E017F10744F322C08091B8
:1006D00031018A3019F41092310103C08F5F809389
:1006E00031010E944404811117C060E078E080E08D
:1006F00090E00E94730110C0F70180819181E09128
:100700003101F0E0EE0FFF1FED5CFE4F918380831F
:10071000DECFC110F1CFDBCFDF91CF911F910F91D1
:10072000FF90EF90DF90CF90BF90AF9008951F9211
:100730000F920FB60F9211242F933F934F935F9315
:100740006F937F938F939F93AF93BF93EF93FF9399
:1007500080918B01811187C08DB580912C018823F8
:10076000E1F090912F0180912E018917A0F098134C
:1007700007C080912D01811103C010922C010DC082
:1007800060E070E180E090E00E94730180912C01B4
:10079000811169C002C010922C0190912D01992302
:1007A000E9F08091300120913201E82FF0E0E20F72
:1007B000F11DEE0FFF1FED5CFE4F0190F081E02D6B
:1007C0002EB520838F5F80933001891738F460E065
:1007D00070E280E090E00E94730145C030913201E8
:1007E000832F90E0AC01440F551FFA01E80FF91F69
:1007F000EE0FFF1FE75BFE4F2FEF20832183228345
:1008000023832483FA01E80FF91FEE0FFF1FE75B34
:10081000FE4F2583FA01ED5CFE4F118210823A30C3
:1008200019F41092320103C03F5F309332012091DE
:100830003201822F90E0820F911D820F911D880F4F
:10084000991FFC01E75BFE4F80818F3F31F060E034
:1008500078E080E090E00E94730160E070E480E066
:1008600090E00E947301FF91EF91BF91AF919F9132
:100870008F917F916F915F914F913F912F910F9049
:100880000FBE0F901F90189580918C010895EDE890
:10089000F1E0A1E9B1E085EF91E0118210821382CD
:1008A00012821C9215821682178210861186128679
:1008B000138614863D961D96E817F90771F715BC47
:1008C00016BC18BC88B5835888BD82E080936E0042
:1008D00016BC86B5836086BD0895CF93DF93C09123
:1008E0008D01D0918E01C817D90709F440C0ADE839
:1008F000B1E048EE51E0FD0125853685281739071E
:10090000B1F13D96E417F507B9F72CC01D964D914E
:100910005C911E97452BF9F402C020E030E0F9010C
:10092000EE0FFF1FE20FF31FEE0FFF1FEE0FFF1F73
:100930002E0F3F1FF901E357FE4F9183808373838E
:10094000628314821582168217821086118612869F
:10095000138614860CC02F5F3F4F1D96283031053B
:10096000A9F605C0CD2BC9F221E030E0CFCFDF9151
:10097000CF910895CF92DF92EF92FF9220918D0157
:1009800030918E012817390751F0EDE8F1E021E0B0
:1009900030E0A585B685A817B90711F502C020E09B
:1009A00030E0F901EE0FFF1FE20FF31FEE0FFF1F04
:1009B000EE0FFF1F2E0F3F1FF901E357FE4F81E09F
:1009C000848315821682178210866A017B01CC0C03
:1009D000DD1CEE1CFF1CC186D286E386F48606C0B1
:1009E0002F5F3F4F3D962830310599F6FF90EF90ED
:1009F000DF90CF9008951F920F920FB60F9211249F
:100A0000EF92FF920F931F932F933F934F935F9318
:100A10006F937F938F939F93AF93BF93CF93DF9306
:100A2000EF93FF9388B5835888BD01E911E0CDE8C5
:100A3000D1E00F2EF5EFEF2EF1E0FF2EF02DF801B3
:100A40008081882381F19E0189859A85AB85BC854B
:100A50000097A105B105B9F04D815E816F81788560
:100A60004F5F5F4F6F4F7F4F4D835E836F837887FC
:100A70000197A109B10989879A87AB87BC87892B20
:100A80008A2B8B2B81F41082D9011296ED91FC9167
:100A90001397309741F08D919C91DC016D917D9180
:100AA0008D919C910995035F1F4F2D96CE15DF0503
:100AB00031F6FF91EF91DF91CF91BF91AF919F916F
:100AC0008F917F916F915F914F913F912F911F91E6
:100AD0000F91FF90EF900F900FBE0F901F90189501
:100AE000CF93DF93E8ECF0E08081806880838FE033
:100AF000808380E88093CC008CE08093CD001092BE
:100B0000CE0082E08093CA00109200021092FD0194
:100B10001092FE01EEE5F2E0A1E0B2E029E532E05C
:100B20008FEFEF012597888321968883219688830C
:100B30002196888321968883808311961C921E9229
:100B400013961C921E92129715961C921E92149741
:100B500017961C921E92169736961896A217B307F0
:100B600001F7DF91CF9108958091000290E0FC01A0
:100B7000EE0FFF1FDF01A80FB91FAA0FBB1FA75A57
:100B8000BD4F2C912093FC01FD0181818093FB01DD
:100B90001092FE011092FD0181E08093F901089509
:100BA000089580910D01811124C02091000230919F
:100BB000FD01822F90E0820F911D820F911DFC019B
:100BC000EE0FFF1FE75AFD4FE30FF11D8281809367
:100BD000D2008091F901882331F08091FD018F5F6F
:100BE0008093FD0108958091FD018F5F8093FD0149
:100BF0000895E091FA01F0E0E05BFF4FE491E093AB
:100C0000D2008091FA018F5F8093FA010895AF922C
:100C1000BF92CF92DF92EF92FF920F931F93CF93E9
:100C2000DF93D82EC62E7A01B22EA32E011158C002
:100C300010920D010E9411026093F5017093F6016C
:100C40008093F7019093F8010D2D10E00E5F1F4F78
:100C50008091FF0190E0D70112977C01EE0CFF1C00
:100C6000E80EF91EEE0CFF1CE0E0F0E0B701675A59
:100C70007D4FCB010196309719F4EB01D8820EC05D
:100C8000E130F10519F4EC01C88208C02C91AF01E4
:100C90004E0D5F1D475A5D4FEA012883319611962C
:100CA000E017F10744F33EC08D919D91819391939C
:100CB000E217F307C9F78091FF018A3019F4109207
:100CC000FF0103C08F5F8093FF010E94BD07811168
:100CD0002CC060E870E080E090E00E94730125C0C5
:100CE00081E080930D011092FA010E94D1051DC090
:100CF000AB2DBA2D8091FF0190E0FC01EE0FFF1F9C
:100D0000EE0FFF1FEE0FFF1FEF5FFD4F9C01220F45
:100D1000331F220F331F2C0D311D220F331F2F5F66
:100D20003D4FC2CFC110E4CFC6CFDF91CF911F910D
:100D30000F91FF90EF90DF90CF90BF90AF9008950C
:100D40001F920F920FB60F9211242F933F934F9340
:100D50005F936F937F938F939F93AF93BF93EF9323
:100D6000FF938FE08093C900E9ECF0E0808184FD7F
:100D7000FDCF80910D01811198C08091F9018823E8
:100D8000E1F09091FD018091FC018917A0F098138A
:100D900007C08091FB01811103C01092F9010DC0C1
:100DA00060E071E080E090E00E9473018091F901C1
:100DB000811184C002C01092F9019091FB01992326
:100DC000D9F08091FE01E0910002F0E0EE0FFF1FEC
:100DD000EE0FFF1FE80FF11DEE0FFF1FEF5FFD4F3E
:100DE0000190F081E02D2091D20020838F5F8093CD
:100DF000FE01891708F462C030910002E32FF0E091
:100E0000CF01880F991FDC01AE0FBF1FAA0FBB1FB8
:100E1000A75ABD4F2FEF2C9311962C931197129632
:100E20002C93129713962C93139714962C93DC0102
:100E3000AE0FBF1FAA0FBB1FA75ABD4F15962C930D
:100E4000EE0FFF1FEE0FFF1FEE0FFF1FEF5FFD4FB7
:100E500011821082138212821582148217821682E6
:100E60003A3019F41092000203C03F5F3093000241
:100E700020910002822F90E0820F911D820F911D20
:100E8000880F991FFC01E75AFD4F80818F3F31F099
:100E900060E870E080E090E00E94730160E074E040
:100EA00080E090E00E94730109C08091FA018F38C0
:100EB00018F010920D0102C00E94D105FF91EF9130
:100EC000BF91AF919F918F917F916F915F914F9162
:100ED0003F912F910F900FBE0F901F901895109279
:100EE0009B02089520919B022130A9F018F0223036
:100EF00089F108956038710581059105E9F50E9431
:100F0000B40581E080939B0260E071E080E090E0B6
:100F10000E9473010895611521E072078105910512
:100F200019F40E94D1050895611522E07207810528
:100F3000910531F40E94D10582E080939B020895CF
:100F40006115744081059105B9F40E94D005109295
:100F50009B020895611522E072078105910519F43D
:100F60000E94D1050895611574408105910521F411
:100F70000E94D00510929B02089580919B020895D3
:040F8000F894FFCF13
:0E0F8400FFFF0101A5B5D527014000000001C7
:00000001FF
