:100000000C9428000C944E010C9445000C9445006F
:100010000C9445000C9445000C9445000C9445004C
:100020000C9445000C94AF000C94C4040C9445004F
:100030000C94EA020C947D030C9445000C9460002F
:100040000C9445000C9445000C9445000C9445001C
:1000500011241FBECFEFD2E0DEBFCDBF11E0A0E084
:10006000B1E0E6E7FAE002C005900D92A830B107D2
:10007000D9F721E0A8E0B1E001C01D92A039B20794
:10008000E1F70E944A020C9439050C940000ECE759
:10009000F0E080818F7B8083A7E7B0E08C918B7F3D
:1000A0008C938081886080838081887F8083EAE769
:1000B000F0E08081886880838081887F80830895D4
:1000C0001F920F920FB60F9211242F938F939F932D
:1000D000EF93FF93EAE7F0E08081806180831092E4
:1000E0000101109200018091790090E0982F8827FB
:1000F000909301018093000120917800822B9093CE
:10010000010180930001FF91EF919F918F912F91B9
:100110000F900FBE0F901F90189560E081E00E9435
:10012000BB03089560E070E0CB010E948D00E3E81E
:10013000F0E080818F7D80832B9810920801EFE69C
:10014000F0E08081816080836DE870E089E091E07B
:100150000E94360468E281E00E94BB0308951F926A
:100160000F920FB60F9211248F93EF93FF9380910C
:100170000801882319F0813039F00CC0E3E8F0E081
:1001800080818062808306C0E3E8F0E080818F7D1B
:1001900080832B98809108018F5F83708093080182
:1001A000FF91EF918F910F900FBE0F901F901895B8
:1001B0000F931F9300910D0110910E0120910F01DB
:1001C00030911001DC01CB01802B912BA22BB32BA2
:1001D00080930D0190930E01A0930F01B093100135
:1001E0001F910F910895A12CB12C01E010E0CA2DB0
:1001F000DB2DB8010C2E02C0660F771F0A94E2F7C0
:10020000072E000C880B990BC0900D01D0900E01A9
:10021000E0900F01F09010012B013C014C205D207B
:100220006E207F206415750586059705A1F42B01C6
:100230003C014094509460947094C420D520E620F2
:10024000F720C0920D01D0920E01E0920F01F092C2
:1002500010010E943F012196C730D10551F6C7CF4A
:100260000E9410040E9439020E9493030E944201DE
:100270000E9447000E9492000E94700208950E940E
:10028000970208952698E9E6F0E080818D7F8083CB
:10029000808181608083E89AE09A08951F920F928E
:1002A0000FB60F921124E09A0F900FBE0F901F907F
:1002B000189508980998109A119A90E89093C80098
:1002C0001092CA00EDECF0E01082AEECB0E01C92AF
:1002D000252F33272C934083803421F488E48093A6
:1002E000C80005C081110DC088E08093C8008FE070
:1002F0008093CA00ECECF0E080818068808381E02C
:10030000089580E00895E8ECF0E090819C7F908370
:100310008034C1F4E0EDF0E08081807F80838081D3
:100320006F70682B608380818F7C8083808150E038
:100330004C5F5F4F440F551F440F551F4073482BB0
:1003400040830BC0811113C0E0EDF0E08081807C20
:10035000808380816F73682B6083E8ECF0E080819C
:100360008C7F808380818160808381E0089580E03C
:100370000895803431F4E8ECF0E08081806480837B
:1003800009C0811111C0E8ECF0E0808180836F70BA
:100390006093CF00E8ECF0E080818C7F80838081E7
:1003A0008260808381E0089580E00895803431F494
:1003B000E8ECF0E08081806480830BC0811125C06F
:1003C000E8ECF0E080818083842F8295807F8093A9
:1003D000CF001092D100442371F0FB01415050E056
:1003E0004F5F5F4F640F751FA2EDB0E081918C935A
:1003F000E617F707D9F7E8ECF0E080818C7F80837F
:1004000080818360808381E0089580E00895209159
:10041000CF002F701092D100222371F0FC012150E7
:1004200030E02F5F3F4F820F931FA2EDB0E02C9181
:100430002193E817F907D9F708959091110181E008
:1004400089278093110181110AC0139842E050E07E
:1004500060E070E082E191E00E9483040895139AC5
:1004600043E250E060E070E082E191E00E948304AA
:100470000895139A0B9A6DE172E082E191E00E9477
:10048000360443E250E060E070E082E191E00E94D7
:1004900083040895F894E1E6F0E080E88083108218
:1004A0000E94300178940E94F30080E090E008956B
:1004B000809106010E94E40280910601833021F4BC
:1004C00082E08093060103C08F5F8093060144E0C1
:1004D00050E060E070E088E191E00E9483040895BC
:1004E000109220018FEF9FEF90931F0180931E01C8
:1004F0004CE151E06EE171E080E291E00E94BF02C8
:1005000068E572E088E191E00E94360468ED70E0F1
:1005100082E091E00E94360448E853E160E070E038
:1005200082E091E00E9483042E98269A0895603418
:1005300071058105910511F56091170180E00E9418
:10054000BB03809117018F5F853618F480931701E4
:1005500002C0109217019091160181E089278093C3
:100560001601882311F02E9A01C02E9842E350E024
:1005700060E070E082E091E00E9483040895EF92D1
:10058000FF920F931F93CF93DF937C018B01EA01BE
:10059000149A0C9A4CE050E060E070E080E00E9419
:1005A0005901F0922701E092260110932501009352
:1005B0002401D0932301C0932201DF91CF911F9199
:1005C0000F91FF90EF90089540E0682F80E00E9427
:1005D000830108951F920F920FB60F9211242F934B
:1005E0003F934F935F936F937F938F939F93AF93BB
:1005F000BF93EF93FF938091C9008F70823009F40D
:1006000068C0843021F0813009F066C037C0909115
:10061000D000692F6F73E0912601F091270180814E
:10062000681305C062E080E00E94B90123C0282F52
:100630002160621309C0609122017091230142E0A0
:1006400080E00E94D60116C0811114C090FD0EC03A
:1006500070E0625071098091240190912501680F2A
:10066000791F42E080E00E94D60104C062E080E091
:100670000E94B90184E08093C9002EC0E091260158
:10068000F09127018081811114C08091D0008E7378
:1006900090E002972091220130912301820F931F55
:1006A0000E94070260E170E080E090E00E94D800C4
:1006B0000CC080912401909125010E94070262E004
:1006C00070E080E090E00E94D80081E08093C90053
:1006D00003C082E08093C900FF91EF91BF91AF9179
:1006E0009F918F917F916F915F914F913F912F914A
:1006F0000F900FBE0F901F9018951F920F920FB67C
:100700000F9211248F938091CB00809121018F5FF4
:100710008093210188E08093C9008F910F900FBED4
:100720000F901F9018952FB7F89410928200109296
:100730006F0084E28093830084B1886184B987E884
:1007400093E190938700809386008FEF9FEF9093C3
:1007500089008093880090938B0080938A0082EFB9
:1007600080938000E1E8F0E088E18083808182600E
:1007700080832FBF0895882319F0813049F10895AF
:100780006436E0F48FEF860F8336D8F470E0CB0147
:10079000880F991F880F991F680F791FCB01880F49
:1007A000991F880F991F680F791F660F771F882779
:1007B0009927861B970B88579C4E05C080E090E0D8
:1007C00002C08FEF9FEF9093890080938800089577
:1007D0006436E0F48FEF860F8336D8F470E0CB01F7
:1007E000880F991F880F991F680F791FCB01880FF9
:1007F000991F880F991F680F791F660F771F882729
:100800009927861B970B88579C4E05C080E090E087
:1008100002C08FEF9FEF90938B0080938A00089522
:10082000E8E2F1E0ACE2B1E080E991E0118210820F
:10083000138212821C9215821682178210861186EC
:100840001286138614863D961D96E817F90771F7F0
:1008500015BC16BC18BC88B5835888BD82E080934F
:100860006E0016BC86B5836086BD0895CF93DF9376
:10087000C0912801D0912901C817D90709F440C0B7
:10088000A8E2B1E043E851E0FD012585368528174F
:100890003907B1F13D96E417F507B9F72CC01D965D
:1008A0004D915C911E97452BF9F402C020E030E099
:1008B000F901EE0FFF1FE20FF31FEE0FFF1FEE0F08
:1008C000FF1F2E0F3F1FF901E85DFE4F91838083CC
:1008D00073836283148215821682178210861186B2
:1008E0001286138614860CC02F5F3F4F1D9628304A
:1008F0003105A9F605C0CD2BC9F221E030E0CFCFFC
:10090000DF91CF910895CF92DF92EF92FF922091E5
:100910002801309129012817390751F0E8E2F1E068
:1009200021E030E0A585B685A817B90711F502C00A
:1009300020E030E0F901EE0FFF1FE20FF31FEE0F92
:10094000FF1FEE0FFF1F2E0F3F1FF901E85DFE4F47
:1009500081E0848315821682178210866A017B01EA
:10096000CC0CDD1CEE1CFF1CC186D286E386F4860F
:1009700006C02F5F3F4F3D962830310599F6FF9016
:10098000EF90DF90CF9008951F920F920FB60F92C5
:100990001124EF92FF920F931F932F933F934F9346
:1009A0005F936F937F938F939F93AF93BF93CF93F7
:1009B000DF93EF93FF9388B5835888BD0CE211E075
:1009C000C8E2D1E00F2EF0E9EF2EF1E0FF2EF02D7E
:1009D000F8018081882381F19E0189859A85AB8504
:1009E000BC850097A105B105B9F04D815E816F818D
:1009F00078854F5F5F4F6F4F7F4F4D835E836F836F
:100A000078870197A109B10989879A87AB87BC8745
:100A1000892B8A2B8B2B81F41082D9011296ED91B0
:100A2000FC911397309741F08D919C91DC016D9171
:100A30007D918D919C910995035F1F4F2D96CE1549
:100A4000DF0531F6FF91EF91DF91CF91BF91AF912B
:100A50009F918F917F916F915F914F913F912F91D6
:100A60001F910F91FF90EF900F900FBE0F901F906E
:060A70001895F894FFCF79
:080A7600FFFF40000000020038
:00000001FF
