S0210000466F72645F3336305F4C69676874696E675F50726F6A6563742E73726563B5
S11300000C946C000C9441040C9489000C945B01D6
S11300100C948A010C9489000C9489000C94890036
S11300200C9489000C94E3000C94820D0C948900C8
S11300300C9499090C942C0A0C94970B0C94A4001E
S11300400C94F4020C9489000C9489000C9489009B
S11300501800D0FF0E010E01C0035E061E00011839
S113006000EBFF0000B400CA0858021E000118008B
S113007001000000B400CA0858021E000118001D47
S1130080000000B400CA0858021E0001000001006C
S11300905A000E01CA0858021E0001E8FF1D00B4F0
S11300A0000000CA0858021E0001E8FF0100B40065
S11300B00000CA0858021E0001E8FFEBFFB400006C
S11300C000CA0858021E0001E8FFD0FF5A005A0077
S11300D0C0035E061E00010011241FBECFEFD2E054
S11300E0DEBFCDBF11E0A0E0B1E0E0E5F1E202C087
S11300F005900D92AC31B107D9F722E0ACE1B1E043
S113010001C01D92AB34B207E1F70E94CD070C94F5
S1130110A6100C940000ECE7F0E080818F7B8083D4
S1130120A7E7B0E08C918B7F8C938081886080837B
S11301308081887F8083EAE7F0E08081886880831B
S11301408081887F808308951F920F920FB60F924B
S113015011248F939F93EF93FF93EAE7F0E080815C
S1130160806180838091780090917900909301015F
S113017080930001FF91EF919F918F910F900FBE9B
S11301800F901F901895FC016F3F8FEF7807A9F02F
S1130190828593858617970728F42085318526174D
S11301A0370768F06817790760F481E020853185A6
S11301B06217730738F480E0089580E0089580E0C2
S11301C0089581E008951F920F920FB60F921124A3
S11301D08F93EF93FF9380911C01882319F0813052
S11301E039F00CC0E3E8F0E080818062808306C0CF
S11301F0E3E8F0E080818F7D80832B9880911C015F
S11302008F5F837080931C01FF91EF918F910F900A
S11302100FBE0F901F901895ECE6F0E0808180618E
S11302208083249890B190931E0183B180931D0123
S11302309093200180931F016BE673E082E091E0CC
S11302400E94C10CE8E6F0E0808183608083089519
S1130250611570428105910569F580B180931E0195
S113026083B180931D01807190911F019071981743
S113027030F460E070E084E090E00E946B039091C1
S11302801D01907180911F018071981730F460E016
S113029070E088E090E00E946B0380911E018093DF
S11302A0200180911D0180931F01E8E6F0E0808128
S11302B08360808308951F920F920FB60F921124CA
S11302C02F933F934F935F936F937F938F939F935A
S11302D0AF93BF93EF93FF93E8E6F0E080818E7FC6
S11302E080834AE050E060E070E082E091E00E94A8
S11302F0110DFF91EF91BF91AF919F918F917F91DC
S11303006F915F914F913F912F910F900FBE0F907E
S11303101F9018951F920F920FB60F9211242F93CE
S11303203F934F935F936F937F938F939F93AF9379
S1130330BF93EF93FF93E8E6F0E080818D7F8083A5
S11303404AE050E060E070E082E091E00E94110D2C
S1130350FF91EF91BF91AF919F918F917F916F9199
S11303605F914F913F912F910F900FBE0F901F906F
S11303701895CF93DF931F92CDB7DEB780EC8983B6
S113038020E030E0AE014F5F5F4F60E081E00E940B
S11303900D0B0F90DF91CF910895CF93DF9300D091
S11303A0CDB7DEB79B0193E099838A83AE014F5F9B
S11303B05F4F61E082E00E940D0B0F900F90DF9180
S11303C0CF910895CF93DF9300D01F92CDB7DEB7BE
S11303D092E099838A83FB0180818B8320E030E063
S11303E0AE014F5F5F4F60E083E00E940D0B0F9002
S11303F00F900F90DF91CF910895CF93DF9300D0AA
S113040000D0CDB7DEB795E099838A836B83FA0178
S113041080818C8320E030E0AE014F5F5F4F60E06D
S113042084E00E940D0B0F900F900F900F90DF91BE
S1130430CF910895CF93DF9390932201809321016C
S11304400E94B90180E98093260166E271E08FE0A1
S11304500E94E2011092260146E251E064E08FE03E
S11304600E94FD01D1E4D093260146E251E061E00F
S11304708AE20E94FD01C1EFC093260146E251E0E9
S113048067E089E20E94FD01C093260146E251E043
S113049068E389E20E94FD01C093260146E251E02F
S11304A060EC89E20E94FD0185E88093260166E202
S11304B071E088E20E94E201D093260146E251E015
S11304C060EC8AE20E94FD01DF91CF9108958FEFE5
S11304D08093260166E271E08BE20E94E20183E0F0
S11304E08093260166E271E080E30E94E2011092AB
S11304F0260166E271E08DE00E94E201109226017D
S113050066E271E081E30E94E20180E280932601C9
S113051066E271E082E30E94E2011092260166E243
S113052071E080E00E94E20166E271E081E00E94F5
S1130530E20180E68093260166E271E00E94E20116
S11305401092260146E251E060EE8FE00E94FD0128
S113055083E291E0909325018093240164E271E0A9
S11305608EE00E94CD0108951F93CF93DF9316E68A
S1130570C0E0D0E060912101709122016C0F7D1FD9
S1130580812F0E94CD0122961F5FCA30D10591F7B9
S1130590DF91CF911F910895FC0180810895FC01A2
S11305A0818192810895FC0160830895FC01728326
S11305B06183089570E0615071099B01220F331F1C
S11305C0620F731F860F971F08959C019FB7F894BD
S11305D032BD21BDFB01808180BD1FBAFA9A8FB361
S11305E08A608FBB9FBF08951F920F920FB60F9220
S11305F011242F933F934F935F936F937F938F9324
S11306009F93AF93BF93CF93EF93FF93FB98C091C6
S11306102C0180912B01C81718F010922D0113C0E2
S11306208C2F90E06091270170912801680F791F49
S11306302091290130912A01820F931F0E94E50223
S1130640CF5FC0932C01FF91EF91CF91BF91AF91F8
S11306509F918F917F916F915F914F913F912F91D6
S11306600F900FBE0F901F9018950F931F938B013F
S11306709C01EFB7F89440912E0150912F016091A5
S1130680300170913101D901C80184239523A62337
S1130690B72380179107A207B30791F4809590952B
S11306A0A095B09584239523A623B72380932E0188
S11306B090932F01A0933001B093310181E001C0E8
S11306C080E0EFBF882321F0C901B8010E9417041C
S11306D01F910F910895CF92DF92EF92FF922FB75F
S11306E0F894C0902E01D0902F01E0903001F0904A
S11306F03101DC01CB018C299D29AE29BF298093CE
S11307002E0190932F01A0933001B09331012FBF9C
S1130710FF90EF90DF90CF90089561E070E080E06B
S113072090E00E94350362E070E080E090E00E9477
S1130730350364E070E080E090E00E94350368E0F7
S113074070E080E090E00E94350360E170E080E0BA
S113075090E00E94350360E270E080E090E00E9447
S1130760350360E470E080E090E00E94350360E8C7
S113077070E080E090E00E94350360E071E080E08A
S113078090E00E94350360E072E080E090E00E9417
S1130790350360E074E080E090E00E94350360E09F
S11307A078E080E090E00E94350360E070E180E052
S11307B090E00E94350360E070E280E090E00E94E7
S11307C0350360E070E480E090E00E94350360E06F
S11307D070E880E090E00E94350360E070E081E022
S11307E090E00E94350360E070E082E090E00E94B7
S11307F0350360E070E084E090E00E94350360E03F
S113080070E088E090E00E94350387CF0E949B0C43
S11308100E94BC070E94420A0E942C040E948B0082
S11308200E940C010E94480C0E9416080895CF9261
S1130830DF92EF92FF926B017C010E942801C701B5
S1130840B6010E947308C701B6010E944D0CFF90C7
S1130850EF90DF90CF9008952698E9E6F0E080814C
S11308608E7F8083808182608083E89AE09A0895F5
S1130870609132017091330180913401909135017E
S113088008951F920F920FB60F9211242F933F9346
S11308904F935F936F937F938F939F93AF93BF9384
S11308A0EF93FF93CF93DF931F92CDB7DEB7809181
S11308B0320190913301A0913401B0913501019638
S11308C0A11DB11D8093320190933301A093340193
S11308D0B09335010E94B4021982AE014F5F5F4F9D
S11308E060E48DE20E94FD01AE014F5F5F4F6FEF48
S11308F08CE20E94FD010F90DF91CF91FF91EF9167
S1130900BF91AF919F918F917F916F915F914F9123
S11309103F912F910F900FBE0F901F90189586173F
S1130920970728F49B01281B390BC9010895681700
S1130930790730F4681B790BCB0188599E4F0895D1
S113094080E090E008954F925F926F927F928F9231
S11309509F92AF92BF92CF92DF92EF92FF920F934A
S11309601F93CF93DF938B0149015A01009709F438
S113097012C24FE050E0BC0187E491E00E94901065
S1130980A7E4B1E08D919C9111977401E81AF90ADA
S1130990E9E3F1E0F182E08212968D919C91139744
S11309A0E501C81BD90BD383C283C701B7010E94D9
S11309B0C40F9C01CE01BE010E94C40F820F931F7D
S11309C090933E0180933D01BC0180E090E00E9441
S11309D0980E2B013C0175946794579447940F2EFD
S11309E0FFED8F2EF9E59F2EF7E3AF2EFFE5BF2E27
S11309F0F02D84189508A608B70820E030E040E000
S1130A005FE30E944F0FA50194010E944F0F9B01C9
S1130A10AC01C501B4010E944F0F9B01AC0160E021
S1130A2070E080EC9FE30E94F70D9B01AC01C501CF
S1130A30B4010E944F0F4B015C01BE01DD0F880B16
S1130A40990B0E949A0E9B01AC01C501B4010E944E
S1130A504F0F4B015C0120E030E040E85FE30E946F
S1130A604A0F18169CF020E030E040E85FEBC50127
S1130A70B4010E94640E88238CF40F2E812C912CD7
S1130A80F0E8AF2EFFEBBF2EF02D08C00F2E812C07
S1130A90912CF0E8AF2EFFE3BF2EF02D22EC38EBC3
S1130AA042E35FEBC501B4010E944F0F9B01AC010F
S1130AB0C501B4010E944F0F23EF36E64FE55FE313
S1130AC00E94F70D9B01AC01C501B4010E944F0FB8
S1130AD02BED3FE049EC5FE30E94F80D20E030E0AD
S1130AE044E652E40E944F0F0E94690EFF2034F442
S1130AF028E631E0A901461B570BBA017093460161
S1130B006093450180915501882309F1E7E4F1E000
S1130B1084819581668177818617970739F488E601
S1130B2091E0909344018093430119C00E948F0483
S1130B302091530130915401820F931F68E671E0B4
S1130B400E94D50F909344018093430108C0809183
S1130B505301909154019093440180934301E7E43D
S1130B60F1E02485358536952795848195818859CA
S1130B709E4F821B930BC8E6D1E0BE010E94D50FA5
S1130B807C019093420180934101468157814859E9
S1130B905E4FCA01820F931FBE010E94D50F90932E
S1130BA0400180933F016091450170914601C70166
S1130BB00E948F0420914301309144012817390782
S1130BC008F0DDC02836314008F4C3C063E286E390
S1130BD091E00E94D30280915501882309F4AEC0AC
S1130BE0E7E4F1E0C481D58186809780C815D905F2
S1130BF031F0B401CE010E948F046C0106C00F2EA7
S1130C00F8E6CF2EDD24D394F02DA0904501B090CA
S1130C104601B501CE010E948F047C018C159D050F
S1130C20B0F0B501C4010E948F047C01BE01C5016E
S1130C300E948F048E159F0528F4C0914F01D09116
S1130C40500174C0C0915101D09152016FC0E7E4CA
S1130C50F1E062847384C085D185C615D70590F50B
S1130C60BE0180E090E00E94980E4B015C01B70148
S1130C7080E090E093012C1B3D0B40E050E00E948B
S1130C800D10F22FE32FB42FA52F960140E050E072
S1130C906F2F7E2F8B2F9A2F0E94E90FCA01B90163
S1130CA00E94980E20E030E040E05FE30E94F80DDF
S1130CB09B01AC01C501B4010E94F80D0E94690EAC
S1130CC0EB0134C06C167D0688F5BE0180E090E02F
S1130CD00E94980E4B015C01B70180E090E0C619B8
S1130CE0D7099E0140E050E00E940D10B22FA32FBF
S1130CF0F42FE52F960140E050E06B2F7A2F8F2FD1
S1130D009E2F0E94E90FCA01B9010E94980E20E0AB
S1130D1030E040E05FE30E94F80D9B01AC01C501A7
S1130D20B4010E94F70D0E94690EEB01BE0187E435
S1130D3091E00E94C300882321F005C0CFEFDFEFCC
S1130D4002C0CFEFDFEFBE0186E391E00E94D6023E
S1130D500BC060E086E391E00E94D3026FEF7FEF67
S1130D6086E391E00E94D60280913601909137018A
S1130D70A0913801F80180839183A2830CC063E2BF
S1130D8086E391E00E94D30280915501811128CF1E
S1130D90CFEFDFEFD8CFDF91CF911F910F91FF906D
S1130DA0EF90DF90CF90BF90AF909F908F907F9007
S1130DB06F905F904F90089508980998109A119A2F
S1130DC090E89093C8001092CA00EDECF0E0108215
S1130DD0AEECB0E01C92252F33272C934083803453
S1130DE021F488E48093C80005C081110DC088E017
S1130DF08093C8008FE08093CA00ECECF0E080811F
S1130E008068808381E0089580E00895E8ECF0E054
S1130E1090819C7F90838034C1F4E0EDF0E0808188
S1130E20807F808380816F70682B608380818F7C5A
S1130E308083808150E04C5F5F4F440F551F440F07
S1130E40551F4073482B40830BC0811113C0E0ED44
S1130E50F0E08081807C808380816F73682B608365
S1130E60E8ECF0E080818C7F8083808181608083E6
S1130E7081E0089580E00895803431F4E8ECF0E0F6
S1130E8080818064808309C0811111C0E8ECF0E0A6
S1130E90808180836F706093CF00E8ECF0E0808104
S1130EA08C7F808380818260808381E0089580E0EC
S1130EB00895803431F4E8ECF0E08081806480832C
S1130EC00BC0811125C0E8ECF0E080818083842F81
S1130ED08295807F8093CF001092D100442371F0DB
S1130EE0FB01415050E04F5F5F4F640F751FA2ED4F
S1130EF0B0E081918C93E617F707D9F7E8ECF0E0BE
S1130F0080818C7F808380818360808381E00895E9
S1130F1080E008952091CF002F701092D1002223F9
S1130F2071F0FC01215030E02F5F3F4F820F931F7F
S1130F30A2EDB0E02C912193E817F907D9F70895B1
S1130F409091560181E089278093560181110AC04E
S1130F50139842E050E060E070E087E591E00E9481
S1130F60110D0895139A43E250E060E070E087E5C4
S1130F7091E00E94110D0895139A0B9A60EA77E0AC
S1130F8087E591E00E94C10C43E250E060E070E02C
S1130F9087E591E00E94110D0895F894E1E6F0E0F0
S1130FA080E8808310820E94060478940E948D0356
S1130FB080E090E0089580911A010E949309809145
S1130FC01A01833121F482E080931A0103C08F5FF8
S1130FD080931A0145E050E060E070E08BE691E018
S1130FE00E94110D0895CF92DF92EF92FF920F931A
S1130FF01F93CF936B017C01C1E06C2F8AE891E0D1
S11310000E94DA028C018C2F0E946A0AA7019601C1
S1131010B8010E94A304CF5FCA3079F7CF911F9122
S11310200F91FF90EF90DF90CF900895CF9310929F
S1131030A501C1E06C2F8AE891E00E94DA026FEF0B
S11310400E94D3026C2F8AE891E00E94DA026FEFCB
S11310507FEF0E94D602CF5FCA3061F74FE651E0BE
S11310606AE871E085EA91E00E946E096BED77E031
S11310708BE691E00E94C10C45E050E060E070E036
S11310808BE691E00E94110D6BE673E086E191E03E
S11310900E94C10C48EC50E060E070E086E191E011
S11310A00E94110D8CE091E00E941A0210925C01E2
S11310B01C9B03C081E080935C016BE673E088E0D5
S11310C091E00E94C10C80915C01813041F448EEB2
S11310D053E060E070E088E091E00E94110D2A98EE
S11310E0229ACF9108951F93CF93DF93611524E043
S11310F072078105910509F4E3C0DC01CB0181305D
S113110024E09207A105B10560F4811521E092075E
S1131110A105B10591F081159240A105B10521F118
S1131120D9C0009724E0A207B10509F497C000973D
S1131130A840B10509F4A8C0CDC00E94670280E0B0
S113114092E0A0E0B0E08093160190931701A09381
S11311501801B093190148EC50E060E070E086E1BA
S113116091E00E94110DB6C090915B0181E0892746
S113117080935B01882311F02A9A01C02A9842E3E4
S113118050E060E070E086E191E00E94110DCFB77D
S1131190F89445E050E066E671E081E691E00E9453
S11311A09910892B89F0809166018D3411F0803A71
S11311B069F485E0E6E6F1E0A1E6B1E001900D9284
S11311C08A95E1F781E003C080E001C080E0CFBFF1
S11311D0882309F47FC080915C01813009F07AC0D2
S11311E0809161018D34B1F0803A09F073C060914F
S11311F06201709163018091640190916501609333
S11312005D0170935E0180935F01909360010E9481
S1131210F30760C083E691E00E94CC02182FC1E678
S1131220D1E069818AE891E00E94DA02612F0E948C
S1131230D30288818D3431F483E691E00E94CF0299
S1131240EC0102C0CFEFDFEF609162018AE891E028
S11312500E94DA02BE010E94D6023CC081E0809363
S11312605C0160915D0170915E0180915F019091DC
S113127060010E94F30744E650E060E070E088E01B
S113128091E00E94110D26C010925C0188E091E06B
S11312900E94550DC1E06C2F8AE891E00E94DA02A9
S11312A060E00E94D3026C2F8AE891E00E94DA0287
S11312B06FEF7FEF0E94D602CF5FCA3061F70AC09A
S11312C080916601882331F080E991E090930701D1
S11312D080930601DF91CF911F910895EF92FF92C1
S11312E00F931F93CF93DF937C018B01EA01289A1C
S11312F0209A4CE050E060E070E080E00E94DC0660
S1131300F092AC01E092AB011093AA010093A90101
S1131310D093A801C093A701DF91CF911F910F91A2
S1131320FF90EF90089540E0682F80E00E94060748
S113133008951F920F920FB60F9211242F933F938B
S11313404F935F936F937F938F939F93AF93BF93C9
S1131350EF93FF938091C9008F70823009F468C0C5
S1131360843021F0813009F066C036C09091D000FD
S1131370692F6F73E091AB01F091AC018081681328
S113138005C063E080E00E943C0722C0282F216052
S1131390621309C06091A7017091A80143E080E045
S11313A00E94590715C0811113C090FD0DC06695A8
S11313B08091A9019091AA010E94DA0243E0BC0144
S11313C080E00E94590704C063E080E00E943C076B
S11313D084E08093C9002FC0E091AB01F091AC018F
S11313E08081811115C06091D0006F7370E0759594
S11313F067958091A7019091A8010E94DA020E944A
S11314008A0760E470E080E090E00E946B030CC007
S11314108091A9019091AA010E948A0761E070E07D
S113142080E090E00E946B0381E08093C90003C0D8
S113143082E08093C900FF91EF91BF91AF919F919A
S11314408F917F916F915F914F913F912F910F9069
S11314500FBE0F901F9018951F920F920FB60F9208
S113146011248F938091CB008091A6018F5F80938C
S1131470A60188E08093C9008F910F900FBE0F9052
S11314801F9018952FB7F8941092820010926F0055
S113149084E28093830084B1886184B987E893E10E
S11314A090938700809386008FEF9FEF909389003D
S11314B08093880090938B0080938A0082EF8093BE
S11314C08000E1E8F0E088E18083808182608083AD
S11314D02FBF08959FEF980F993070F4282F30E0B4
S11314E0C90182959295907F9827807F9827821BC7
S11314F0930B8F5B9F4F089580E090E00895CF9306
S1131500DF931092080281B1806781B980ED8CBDB0
S1131510169A1092B7011092B4011092B501E1ED40
S1131520F1E0A8EBB1E02CEC31E08FEFEF0125976F
S1131530888321968883219688832196888321969F
S1131540888380831D921D923696A217B30771F784
S1131550DF91CF9108958091B70190E0FC01EE0FE7
S1131560FF1FDF01A80FB91FAA0FBB1FA453BE4F53
S11315702C912093B301FD0181818093B2012F3F0F
S113158019F491E09093B3018F3F11F41092B201DA
S11315901092B5011092B40181E08093B101809161
S11315A0B3018F3F99F48091AD019091AE01A09168
S11315B0AF01B091B0010196A11DB11D8093AD01A1
S11315C09093AE01A093AF01B093B0011698089523
S11315D0169A08952091B7013091B401822F90E0BA
S11315E0820F911D820F911DFC01EE0FFF1FE4532A
S11315F0FE4FE30FF11D82818EBD8091B1018823DE
S113160031F08091B4018F5F8093B401089580918B
S1131610B4018F5F8093B4010895AF92BF92CF92CB
S1131620DF92EF92FF920F931F93CF93DF93D82E05
S1131630C62EEA0179010E9438046093AD017093CB
S1131640AE018093AF019093B0018D2D90E08C0199
S11316500E5F1F4F2091B60130E0DE011297C901E1
S1131660880F991F820F931F880F991FE0E0F0E005
S11316709C0124533E4F59012F5F3F4F309719F47B
S1131680E501D8820EC0E130F10519F4E901C88200
S113169008C06C91AF01480F591F44535E4FEA01D3
S11316A0688331961196E017F10744F332C08091B4
S11316B0B601893019F41092B60103C08F5F80938C
S11316C0B6010E94980C811127C02091B701822F86
S11316D090E0820F911D820F911D880F991FFC01CC
S11316E0E453FE4F80818F3FB9F060E070E480E006
S11316F090E00E946B0310C0F70180819181E0911A
S1131700B601F0E0EE0FFF1FE854FE4F9183808393
S1131710CECFC110F1CFCBCFDF91CF911F910F91DD
S1131720FF90EF90DF90CF90BF90AF9008951F92FD
S11317300F920FB60F9211242F933F934F935F9301
S11317406F937F938F939F93AF93BF93EF93FF9385
S11317508091080281118BC08DB58091B1018823DD
S1131760E1F09091B4018091B3018917A0F098132E
S113177007C08091B201811103C01092B1010DC064
S113178060E070E880E090E00E946B038091B1011A
S113179081116DC002C01092B1019091B2019923E0
S11317A009F18091B5012091B701E82FF0E0E20F33
S11317B0F11DEE0FFF1FE854FE4F0190F081E02D64
S11317C0309711F42EB502C02EB520838F5F80931D
S11317D0B501891738F460E070E081E090E00E9480
S11317E06B0345C03091B701832F90E0AC01440FE7
S11317F0551FFA01E80FF91FEE0FFF1FE453FE4FC8
S11318002FEF20832183228323832483FA01E80F8B
S1131810F91FEE0FFF1FE453FE4F2583FA01E8542E
S1131820FE4F11821082393019F41092B70103C0AF
S11318303F5F3093B7012091B701822F90E0820F70
S1131840911D820F911D880F991FFC01E453FE4FD7
S113185080818F3F31F060E070E480E090E00E948E
S11318606B0360E070E082E090E00E946B03FF9104
S1131870EF91BF91AF919F918F917F916F915F9104
S11318804F913F912F910F900FBE0F901F9018957D
S1131890109209020E947F0A0895209109022130C2
S11318A0A9F018F0223089F108956115704481057A
S11318B09105E9F50E94AB0A81E08093090260E09A
S11318C070E880E090E00E946B030895611520E8C1
S11318D072078105910519F40E94EA0A08956115B9
S11318E0710521E08207910531F40E94EA0A82E041
S11318F08093090208956115710582409105B9F438
S11319000E94E80A1092090208956115710521E008
S11319108207910519F40E94EA0A08956115710578
S11319208240910521F40E94E80A10920902089568
S1131930809109020895EAE0F2E0AEE0B2E08BE4BF
S113194092E011821082138212821C9215821682F6
S11319501782108611861286138614863D961D966C
S1131960E817F90771F715BC16BC18BC88B583587D
S113197088BD82E080936E0016BC86B5836086BD08
S11319800895CF93DF93C0910A02D0910B02C81738
S1131990D90709F443C0AAE0B2E04EE352E0FD01E6
S11319A02585368528173907C9F13D96E417F507CB
S11319B0B9F72FC01D964D915C911E97452B11F5DB
S11319C002C020E030E04FB7F894F901EE0FFF1F9A
S11319D0E20FF31FEE0FFF1FEE0FFF1F2E0F3F1F2F
S11319E0F901E65FFD4F91838083738362831482E0
S11319F01582168217821086118612861386148623
S1131A004FBF0CC02F5F3F4F1D962530310591F617
S1131A1005C0CD2BB1F221E030E0CCCFDF91CF91E6
S1131A200895CF92DF92EF92FF9220910A023091B3
S1131A300B022817390751F0EAE0F2E021E030E028
S1131A40A585B685A817B90729F502C020E030E0BE
S1131A508FB7F894F901EE0FFF1FE20FF31FEE0F9B
S1131A60FF1FEE0FFF1F2E0F3F1FF901E65FFD4F13
S1131A7091E0948315821682178210866A017B0195
S1131A80CC0CDD1CEE1CFF1CC186D286E386F486DA
S1131A908FBF06C02F5F3F4F3D962530310581F63D
S1131AA0FF90EF90DF90CF90089520910A0230913B
S1131AB00B022817390751F0EAE0F2E021E030E0A8
S1131AC04585568548175907B1F402C020E030E037
S1131AD08FB7F894F901EE0FFF1FE20FF31FEE0F1B
S1131AE0FF1FEE0FFF1F2E0F3F1FF901E65FFD4F93
S1131AF014828FBF08952F5F3F4F3D9625303105E7
S1131B00F9F608951F920F920FB60F921124EF92D7
S1131B10FF920F931F932F933F934F935F936F9372
S1131B207F938F939F93AF93BF93CF93DF93EF9361
S1131B30FF9388B5835888BD0EE012E0CAE0D2E076
S1131B400F2EFBE4EF2EF2E0FF2EF02DF801808142
S1131B50882381F19E0189859A85AB85BC85009790
S1131B60A105B105B9F04D815E816F8178854F5F24
S1131B705F4F6F4F7F4F4D835E836F8378870197ED
S1131B80A109B10989879A87AB87BC87892B8A2BDE
S1131B908B2B81F41082D9011296ED91FC9113974D
S1131BA0309741F08D919C91DC016D917D918D91E7
S1131BB09C910995035F1F4F2D96CE15DF0531F6D5
S1131BC0FF91EF91DF91CF91BF91AF919F918F9151
S1131BD07F916F915F914F913F912F911F910F9141
S1131BE0FF90EF900F900FBE0F901F9018955058D4
S1131BF0BB27AA270E940F0E0C94100F0E94020FFD
S1131C0038F00E94090F20F039F49F3F19F426F4AC
S1131C100C94FF0E0EF4E095E7FB0C94F90EE92FFB
S1131C200E94210F58F3BA176207730784079507B8
S1131C3020F079F4A6F50C94430F0EF4E0950B2EE6
S1131C40BA2FA02D0B01B90190010C01CA01A0010A
S1131C501124FF27591B99F0593F50F4503E68F165
S1131C601A16F040A22F232F342F4427585FF3CFA6
S1131C70469537952795A795F0405395C9F77EF477
S1131C801F16BA0B620B730B840BBAF09150A1F0C0
S1131C90FF0FBB1F661F771F881FC2F70EC0BA0F46
S1131CA0621F731F841F48F4879577956795B795CE
S1131CB0F7959E3F08F0B0CF9395880F08F09927C9
S1131CC0EE0F9795879508950E94D50E08F481E04C
S1131CD008950E94290F88F09F5798F0B92F9927EB
S1131CE0B751B0F0E1F0660F771F881F991F1AF003
S1131CF0BA95C9F714C0B13091F00E94430FB1E016
S1131D0008950C94430F672F782F8827B85F39F014
S1131D10B93FCCF3869577956795B395D9F73EF49B
S1131D2090958095709561957F4F8F4F9F4F089543
S1131D30E89409C097FB3EF4909580957095619561
S1131D407F4F8F4F9F4F9923A9F0F92F96E9BB2717
S1131D509395F695879577956795B795F111F8CF93
S1131D60FAF4BB0F11F460FF1BC06F5F7F4F8F4FFE
S1131D709F4F16C0882311F096E911C0772321F0F4
S1131D809EE8872F762F05C0662371F096E8862F8C
S1131D9070E060E02AF09A95660F771F881FDAF7E3
S1131DA0880F9695879597F90895990F0008550F10
S1131DB0AA0BE0E8FEEF16161706E807F907C0F0CD
S1131DC012161306E407F50798F0621B730B840BD5
S1131DD0950B39F40A2661F0232B242B252B21F4AF
S1131DE008950A2609F4A140A6958FEF811D811D4F
S1131DF0089597F99F6780E870E060E008959FEF89
S1131E0080EC089500240A9416161706180609068D
S1131E10089500240A94121613061406050608955C
S1131E20092E0394000C11F4882352F0BB0F40F4E4
S1131E30BF2B11F460FF04C06F5F7F4F8F4F9F4F24
S1131E40089557FD9058440F551F59F05F3F71F0A6
S1131E504795880F97FB991F61F09F3F79F087950D
S1131E600895121613061406551FF2CF4695F1DF96
S1131E7008C0161617061806991FF1CF8695710526
S1131E80610508940895E894BB2766277727CB015A
S1131E9097F908950E94D50E08F48FEF08950E94D3
S1131EA0610F0C94100F0E94020F38F00E94090F6A
S1131EB020F0952311F00C94F90E0C94FF0E0C9461
S1131EC0440F0E94210F78F39923C9F35523B9F3E2
S1131ED0950F50E0551FAA27EE27FF27BB270024A4
S1131EE00894679520F4E20FF31FB41F0A1E220F13
S1131EF0331F441FAA1F6695A9F7779530F4F30F93
S1131F00B41F0A1E121E08F46395330F441FAA1F40
S1131F10221F769599F7879520F4B40F0A1E121E96
S1131F20631F440FAA1F221F331F8695A9F7862F0C
S1131F30712D602D11249F5750409AF0F1F08823A1
S1131F404AF0EE0FFF1FBB1F661F771F881F9150BB
S1131F505040A9F79E3F510580F00C94F90E0C9463
S1131F60440F5F3FE4F3983ED4F3869577956795E5
S1131F70B795F795E7959F5FC1F7FE2B880F911DE5
S1131F809695879597F908950024552704C0080E5F
S1131F90591F880F991F009729F076956795B8F314
S1131FA07105B9F7802D952F0895AA1BBB1B51E12C
S1131FB007C0AA1FBB1FA617B70710F0A61BB70BB5
S1131FC0881F991F5A95A9F780959095BC01CD015A
S1131FD00895A1E21A2EAA1BBB1BFD010DC0AA1F66
S1131FE0BB1FEE1FFF1FA217B307E407F50720F07E
S1131FF0A21BB30BE40BF50B661F771F881F991FF9
S11320001A9469F760957095809590959B01AC0141
S1132010BD01CF01089568940013E894A0E0B0E0F6
S1132020E4E1F0E10C943310EFEFE7F959016A01B0
S11320305E23550FEE08FE2C87019B01AC019E2305
S1132040990F660B762FCB010E946210CDB7DEB7D5
S1132050EAE00C944F102F923F924F925F926F924E
S11320607F928F929F92AF92BF92CF92DF92EF9224
S1132070FF920F931F93CF93DF93CDB7DEB7CA1BA5
S1132080DB0B0FB6F894DEBF0FBECDBF09942A88D0
S1132090398848885F846E847D848C849B84AA8478
S11320A0B984C884DF80EE80FD800C811B81AA8105
S11320B0B981CE0FD11D0FB6F894DEBF0FBECDBFD0
S11320C0ED010895DF93CF939F92A0E49A2E00240C
S11320D0D001E001F00116950795F794E794D794A1
S11320E0C794B794A79448F41068A20FB31FC41FF1
S11320F0D51FE61FF71F081E191E220F331F441F8A
S1132100551F661F771F881F991F9A9421F79D01F9
S1132110AE01BF01C00111249F90CF91DF910895BA
S1132120FB01DC0102C005900D9241505040D8F7EC
S11321300895FB01DC0104C08D910190801921F404
S113214041505040C8F7881B990B0895F894FFCF6D
S1132150FFFF002000000100000400006601670189
S10F2160680169016A010001000002002E
S9030000FC
