S0210000466F72645F3336305F4C69676874696E675F50726F6A6563742E73726563B5
S11300000C9428000C9474010C9445000C94450045
S11300100C9445000C9445000C9445000C94450048
S11300200C9445000C9445000C94B1070C944500C5
S11300300C9439050C94CC050C9412060C946000B5
S11300400C9445000C9445000C9445000C94450018
S113005011241FBECFEFD2E0DEBFCDBF11E0A0E080
S1130060B1E0E4E4F4E102C005900D92AC32B107D2
S1130070D9F722E0ACE2B1E001C01D92AB35B20782
S1130080E1F70E9481040C94200A0C940000ECE730
S1130090F0E080818F7B8083A7E7B0E08C918B7F39
S11300A08C938081886080838081887F8083EAE765
S11300B0F0E08081886880838081887F80830895D0
S11300C01F920F920FB60F9211242F938F939F9329
S11300D0EF93FF93EAE7F0E08081806180831092E0
S11300E00101109200018091790090E0982F8827F7
S11300F0909301018093000120917800822B9093CA
S1130100010180930001FF91EF919F918F912F91B5
S11301100F900FBE0F901F90189510922D01089507
S113012080912C01882319F0813099F021C08091AD
S113013002018093030180912D0181112A9A40913B
S1130140030150E060E070E08EE291E00E947E07DF
S11301500FC02A988091030148EC50E0481B5109D4
S1130160052E000C660B770B8EE291E00E947E0751
S113017090912C0181E0892780932C0108952A987D
S1130180229A6DE870E082E391E00E94E20660E961
S113019070E08EE291E00E94E2068AE08093020120
S11301A010922D0110922C0160E070E0CB010E94AE
S11301B0900008956F3FD1F0FC012185908592173E
S11301C038F46917A8F081E02617A8F480E00895B0
S11301D0291738F4961770F081E0621760F480E014
S11301E0089581E0691739F080E0089580E008956A
S11301F080E0089580E008950F931F9300913601E5
S1130200109137012091380130913901DC01CB0183
S1130210802B912BA22BB32B809336019093370123
S1130220A0933801B09339011F910F910895A12C27
S1130230B12C01E010E0CA2DDB2DB8010C2E02C058
S1130240660F771F0A94E2F7072E000C880B990BB0
S1130250C0903601D0903701E0903801F090390118
S11302602B013C014C205D206E207F206415750518
S113027086059705A1F42B013C01409450946094A9
S11302807094C420D520E620F720C0923601D09285
S11302903701E0923801F09239010E9465012196FC
S11302A0CB30D10551F6C7CF0E94BF060E9470041F
S11302B00E94E2050E9468010E9447000E94BF005C
S11302C00E94BB060E94A70408950E94D6040895C4
S11302D02698E9E6F0E080818D7F808380818160CB
S11302E08083E89AE09A08951F920F920FB60F92B6
S11302F01124E09A0F900FBE0F901F901895861747
S1130300970728F49B01281B390BC9010895681726
S1130310790730F4681B790BCB0188599E4F0895F7
S113032088E691E008953F924F925F926F927F9298
S11303308F929F92AF92BF92CF92DF92EF92FF92F1
S11303400F931F93CF93DF9300D000D0CDB7DEB7C8
S11303509C838B837A836983009709F4CBC1DC0186
S11303608D919C9111977901E81AF90AE5E5F2E07B
S1130370F182E08212968D919C9113978A01081B59
S1130380190B13830283C701B7010E94FB094C01B7
S1130390C801B8010E94FB09880E991E909252026E
S11303A080925102B40180E090E00E94CF089B014A
S11303B0AC0155954795379527950F2EFFED4F2E98
S11303C0F9E55F2EF7E36F2EFFE57F2EF02D421A3D
S11303D0530A640A750A20E030E040E05FE30E94BB
S11303E08609A30192010E9486099B01AC01C30105
S11303F0B2010E9486099B01AC0160E070E080ECD0
S11304009FE30E942E089B01AC01C301B2010E942C
S113041086092B013C01B801110F880B990B0E942E
S1130420D1089B01AC01C301B2010E9486092B01D2
S11304303C0120E030E040E85FE30E9481091816A7
S11304409CF020E030E040E85FEBC301B2010E9481
S11304509B0888238CF40F2E412C512CF0E86F2E2E
S1130460FFEB7F2EF02D08C00F2E412C512CF0E80D
S11304706F2EFFE37F2EF02D22EC38EB42E35FEB8F
S1130480C301B2010E9486099B01AC01C301B20100
S11304900E94860923EF36E64FE55FE30E942E08AB
S11304A09B01AC01C301B2010E9486092BED3FE020
S11304B049EC5FE30E942F0820E030E044E652E478
S11304C00E9486090E94A008FF2034F428E631E047
S11304D02901461A570A01C02B0150924E0240923C
S11304E04D02EB81FC813484332099F0668177815D
S11304F0848195810E947F01AB81BC811A962D91E4
S11305003C911B97820F931F9093500280934F024C
S113051008C0EB81FC81828593859093500280937F
S11305204F02AB81BC811496CD90DC9015971A963E
S11305302D913C911B9736952795C60188599E4F5E
S1130540821B930BE8E6F1E0BF010E940C0A8C01C8
S113055090934C0280934B02AB81BC8116966D90B4
S11305607C901797C30188599E4F820F931FBF0138
S11305700E940C0A7C019093540280935302B201AE
S1130580C8010E947F015C01B701C8010E947F017C
S11305908A159B0540F480914F0290915002883651
S11305A0914008F49AC088EE93E0B4010E940C0ACA
S11305B06E3120F48EE18093590208C0653618F438
S11305C06093590203C084E680935902332009F4EE
S11305D080C0B301C6010E947F017C01B201C60143
S11305E00E947F018C018E159F05A8F0B201C30102
S11305F00E947F018C01B601C2010E947F01801715
S1130600910720F4EB81FC81D08456C0AB81BC817E
S11306101996DC9051C0EB81FC81C184D084DC1438
S113062028F56D2D70E080E090E00E94D1084B0128
S11306305C016C2D6D1970E0C8010E94FB09B701C3
S11306400E940C0A80E090E00E94CF0820E030E095
S113065040E05FE30E942F089B01AC01C501B40197
S11306600E942F080E94A008D62E26C0CD1420F583
S11306706D2D70E080E090E00E94D1084B015C0198
S11306806D2D6C1970E0C8010E94FB09B7010E942E
S11306900C0A80E090E00E94CF0820E030E040E0C7
S11306A05FE30E942F089B01AC01C501B4010E94C5
S11306B02E080E94A008D62E6D2D8B819C810E944D
S11306C0DA00882311F06D2D01C06FEF60935A0298
S11306D009C08FEF80935A0205C0E9E5F2E0108269
S11306E08FEF81838091590290915A02A981BA8136
S11306F08D939C930F900F900F900F90DF91CF915B
S11307001F910F91FF90EF90DF90CF90BF90AF902B
S11307109F908F907F906F905F904F903F9008953F
S113072008980998109A119A90E89093C80010922A
S1130730CA00EDECF0E01082AEECB0E01C92252F84
S113074033272C934083803421F488E48093C800B9
S113075005C081110DC088E08093C8008FE08093AC
S1130760CA00ECECF0E080818068808381E0089529
S113077080E00895E8ECF0E090819C7F90838034E1
S1130780C1F4E0EDF0E08081807F808380816F7030
S1130790682B608380818F7C8083808150E04C5FF4
S11307A05F4F440F551F440F551F4073482B408320
S11307B00BC0811113C0E0EDF0E08081807C808368
S11307C080816F73682B6083E8ECF0E080818C7F1C
S11307D0808380818160808381E0089580E0089532
S11307E0803431F4E8ECF0E080818064808309C0D7
S11307F0811111C0E8ECF0E0808180836F70609318
S1130800CF00E8ECF0E080818C7F8083808182607F
S1130810808381E0089580E00895803431F4E8EC29
S1130820F0E08081806480830BC0811125C0E8ECF6
S1130830F0E080818083842F8295807F8093CF0035
S11308401092D100442371F0FB01415050E04F5FFE
S11308505F4F640F751FA2EDB0E081918C93E61792
S1130860F707D9F7E8ECF0E080818C7F8083808102
S11308708360808381E0089580E008952091CF0013
S11308802F701092D100222371F0FC01215030E02E
S11308902F5F3F4F820F931FA2EDB0E02C91219365
S11308A0E817F907D9F7089590913A0181E089276B
S11308B080933A0181110AC0139842E050E060E04D
S11308C070E08BE391E00E942F070895139A43E2AE
S11308D050E060E070E08BE391E00E942F07089500
S11308E0139A0B9A64E574E08BE391E00E94E206AC
S11308F043E250E060E070E08BE391E00E942F0758
S11309000895F894E1E6F0E080E8808310820E9484
S1130910540178940E94170180E090E0089580913A
S113092008010E94330580910801833021F482E09C
S11309308093080103C08F5F8093080144E050E076
S113094060E070E080E491E00E942F070895109227
S113095048018FEF9FEF909347018093460144E451
S113096051E066E471E088E491E00E940E056FE8CE
S113097074E080E491E00E94E20644E050E060E02C
S113098070E080E491E00E942F076CEF70E084E057
S113099091E00E94E20648E853E160E070E084E000
S11309A091E00E942F072E98269A0895CF92DF9205
S11309B0EF92FF92603471058105910551F548E885
S11309C053E160E070E084E091E00E942F072E9AEA
S11309D0E0913F01F0E0EE0FFF1FEE0FFF1FE65F17
S11309E0FE4FC080D180E280F38082E00E940A063C
S11309F0A701960166E471E00E94930180913F0192
S1130A008F5F853018F480933F0102C010923F013C
S1130A102E98FF90EF90DF90CF900895EF92FF9281
S1130A200F931F93CF93DF937C018B01EA01149AF8
S1130A300C9A4CE050E060E070E080E00E9490038B
S1130A40F0924F01E0924E0110934D0100934C013E
S1130A50D0934B01C0934A01DF91CF911F910F9125
S1130A60FF90EF90089540E0682F80E00E94BA0361
S1130A7008951F920F920FB60F9211242F933F9354
S1130A804F935F936F937F938F939F93AF93BF9392
S1130A90EF93FF938091C9008F70823009F468C08E
S1130AA0843021F0813009F066C037C09091D000C5
S1130AB0692F6F73E0914E01F0914F0180816813AB
S1130AC005C062E080E00E94F00323C0282F21606B
S1130AD0621309C060914A0170914B0142E080E0C9
S1130AE00E940D0416C0811114C090FD0EC070E068
S1130AF06250710980914C0190914D01680F791FEA
S1130B0042E080E00E940D0404C062E080E00E94A4
S1130B10F00384E08093C9002EC0E0914E01F0916F
S1130B204F018081811114C08091D0008E7390E0B8
S1130B30029720914A0130914B01820F931F0E942A
S1130B403E0460E170E080E090E00E94FC000CC094
S1130B5080914C0190914D010E943E0462E070E04E
S1130B6080E090E00E94FC0081E08093C90003C013
S1130B7082E08093C900FF91EF91BF91AF919F9163
S1130B808F917F916F915F914F913F912F910F9032
S1130B900FBE0F901F9018951F920F920FB60F92D1
S1130BA011248F938091CB00809149018F5F8093B2
S1130BB0490188E08093C9008F910F900FBE0F9078
S1130BC01F9018952FB7F8941092820010926F001E
S1130BD084E28093830084B1886184B98FE193E0D7
S1130BE090938700809386008FEF9FEF9093890006
S1130BF08093880090938B0080938A0082EF809387
S1130C008000E1E8F0E088E1808380818160808376
S1130C102FBF0895823019F48EE191E0089580E0A9
S1130C2090E008951F920F920FB60F9211242F9304
S1130C303F934F935F936F937F938F939F93AF9360
S1130C40BF93EF93FF938091E201811183C08DB52F
S1130C5080915001882399F0909153018091520121
S1130C60891758F060E071E080E090E00E94FC0099
S1130C708091500181116EC002C0109250014091C8
S1130C805501242F30E080915401F901EE0FFF1F2C
S1130C90EE0FFF1FE80FF11DEE0FFF1FEA5AFE4F84
S1130CA00190F081E02D9EB590838F5F8093540175
S1130CB090915101891738F460E072E080E090E08F
S1130CC00E94FC0047C0891345C0F901EE0FFF1FC5
S1130CD0E20FF31FEE0FFF1FEA55FE4F8FEF8083E5
S1130CE081838283838384838583220F331F220F2E
S1130CF0331F220F331FF901EA5AFE4F118210826B
S1130D00138212821582148217821682493019F4D2
S1130D101092550103C04F5F409355012091550136
S1130D20822F90E0820F911D820F911D880F991FD1
S1130D30FC01EA55FE4F80818F3F31F060E870E09E
S1130D4080E090E00E94FC0060E074E080E090E0CD
S1130D500E94FC00FF91EF91BF91AF919F918F9101
S1130D607F916F915F914F913F912F910F900FBEA3
S1130D700F901F90189582E0809309010895E3EE87
S1130D80F1E0A7EEB1E08BE492E0118210821382CD
S1130D9012821C9215821682178210861186128680
S1130DA0138614863D961D96E817F90771F715BC4E
S1130DB016BC18BC88B58C5988BD82E080936E003F
S1130DC086BD0895CF93DF93C091E301D091E401F0
S1130DD0C817D90709F440C0A3EEB1E04EE352E0CE
S1130DE0FD012585368528173907B1F13D96E417AD
S1130DF0F507B9F72CC01D964D915C911E97452BB4
S1130E00F9F402C020E030E0F901EE0FFF1FE20F19
S1130E10F31FEE0FFF1FEE0FFF1F2E0F3F1FF901F1
S1130E20ED51FE4F91838083738362831482158214
S1130E3016821782108611861286138614860CC0B9
S1130E402F5F3F4F1D9628303105A9F605C0CD2BE5
S1130E50C9F221E030E0CFCFDF91CF910895CF9256
S1130E60DF92EF92FF922091E3013091E401281781
S1130E70390751F0E3EEF1E021E030E0A585B685D5
S1130E80A817B90781F502C020E030E0F901EE0FA0
S1130E90FF1FE20FF31FEE0FFF1FEE0FFF1F2E0FBA
S1130EA03F1FF901ED51FE4F81E0848315821682C4
S1130EB0178210866A017B01CC0CDD1CEE1CFF1C22
S1130EC0B701A601440F551F661F771F440F551F16
S1130ED0661F771FC40ED51EE61EF71EC186D28676
S1130EE0E386F48606C02F5F3F4F3D9628303105D8
S1130EF029F6FF90EF90DF90CF9008952091E301C1
S1130F003091E4012817390751F0E3EEF1E021E0D4
S1130F1030E0A585B685A817B907E1F402C020E042
S1130F2030E0F901EE0FFF1FE20FF31FEE0FFF1F7A
S1130F30EE0FFF1F2E0F3F1FF901ED51FE4F81E011
S1130F4084831582168217821086418752876387AD
S1130F50748708952F5F3F4F3D9628303105C9F6B9
S1130F6008951F920F920FB60F921124EF92FF92E1
S1130F700F931F932F933F934F935F936F937F939D
S1130F808F939F93AF93BF93CF93DF93EF93FF938D
S1130F9088B58C5988BD07EE11E0C3EED1E00F2E61
S1130FA0FBE4EF2EF2E0FF2EF02DF8018081882380
S1130FB0B9F19E0189859A85AB85BC850097A10509
S1130FC0B105B9F04D815E816F8178854F5F5F4FC8
S1130FD06F4F7F4F4D835E836F8378870197A1099D
S1130FE0B10989879A87AB87BC87892B8A2B8B2B7E
S1130FF0B9F41082D90112968D919C911397892B83
S113100079F087B58C5988BDED91FC911197608179
S11310107181828193811296ED91FC9113970995C8
S1131020035F1F4F2D96CE15DF0509F0BECFFF914C
S1131030EF91DF91CF91BF91AF919F918F917F916C
S11310406F915F914F913F912F911F910F91FF905D
S1131050EF900F900FBE0F901F9018955058BB271C
S1131060AA270E9446080C9447090E94390938F0BF
S11310700E94400920F039F49F3F19F426F40C949F
S113108036090EF4E095E7FB0C943009E92F0E9431
S1131090580958F3BA17620773078407950720F0B5
S11310A079F4A6F50C947A090EF4E0950B2EBA2F78
S11310B0A02D0B01B90190010C01CA01A00111245A
S11310C0FF27591B99F0593F50F4503E68F11A1606
S11310D0F040A22F232F342F4427585FF3CF469597
S11310E037952795A795F0405395C9F77EF41F16B9
S11310F0BA0B620B730B840BBAF09150A1F0FF0F83
S1131100BB1F661F771F881FC2F70EC0BA0F621F6E
S1131110731F841F48F4879577956795B795F7955E
S11311209E3F08F0B0CF9395880F08F09927EE0FF3
S11311309795879508950E940C0908F481E0089515
S11311400E94600988F09F5798F0B92F9927B751EA
S1131150B0F0E1F0660F771F881F991F1AF0BA9557
S1131160C9F714C0B13091F00E947A09B1E0089532
S11311700C947A09672F782F8827B85F39F0B93F24
S1131180CCF3869577956795B395D9F73EF490950A
S11311908095709561957F4F8F4F9F4F0895E89488
S11311A009C097FB3EF490958095709561957F4FAB
S11311B08F4F9F4F9923A9F0F92F96E9BB27939559
S11311C0F695879577956795B795F111F8CFFAF469
S11311D0BB0F11F460FF1BC06F5F7F4F8F4F9F4F9A
S11311E016C0882311F096E911C0772321F09EE8F8
S11311F0872F762F05C0662371F096E8862F70E05E
S113120060E02AF09A95660F771F881FDAF7880F37
S11312109695879597F90895990F0008550FAA0B8D
S1131220E0E8FEEF16161706E807F907C0F01216F5
S11312301306E407F50798F0621B730B840B950BF8
S113124039F40A2661F0232B242B252B21F408954D
S11312500A2609F4A140A6958FEF811D811D0895EA
S113126097F99F6780E870E060E008959FEF80EC55
S1131270089500240A9416161706180609060895F8
S113128000240A9412161306140605060895092E5E
S11312900394000C11F4882352F0BB0F40F4BF2BCD
S11312A011F460FF04C06F5F7F4F8F4F9F4F08950D
S11312B057FD9058440F551F59F05F3F71F0479503
S11312C0880F97FB991F61F09F3F79F087950895E8
S11312D0121613061406551FF2CF4695F1DF08C007
S11312E0161617061806991FF1CF86957105610524
S11312F008940895E894BB2766277727CB0197F9CC
S113130008950E940C0908F48FEF08950E9498092B
S11313100C9447090E94390938F00E94400920F0D2
S1131320952311F00C9430090C9436090C947B0924
S11313300E94580978F39923C9F35523B9F3950FFB
S113134050E0551FAA27EE27FF27BB270024089447
S1131350679520F4E20FF31FB41F0A1E220F331FF8
S1131360441FAA1F6695A9F7779530F4F30FB41FAD
S11313700A1E121E08F46395330F441FAA1F221F6E
S1131380769599F7879520F4B40F0A1E121E631FF1
S1131390440FAA1F221F331F8695A9F7862F712D8C
S11313A0602D11249F5750409AF0F1F088234AF0A1
S11313B0EE0FFF1FBB1F661F771F881F9150504001
S11313C0A9F79E3F510580F00C9430090C947B09D9
S11313D05F3FE4F3983ED4F3869577956795B79588
S11313E0F795E7959F5FC1F7FE2B880F911D9695A2
S11313F0879597F908950024552704C0080E591FAE
S1131400880F991F009729F076956795B8F37105B1
S1131410B9F7802D952F0895AA1BBB1B51E107C076
S1131420AA1FBB1FA617B70710F0A61BB70B881F70
S1131430991F5A95A9F780959095BC01CD010895FF
S1071440F894FFCF4A
S1131444FFFF0A0A4000000002020500FCFF050039
S1131454FEFF050000000500020005000400010071
S10F146400002D00870002081E0001009B
S9030000FC
