S0210000466F72645F3336305F4C69676874696E675F50726F6A6563742E73726563B5
S11300000C9428000C94F3030C9445000C94F10018
S11300100C9420010C9445000C9445000C9445006C
S11300200C9445000C949D000C94260A0C944500F5
S11300300C943F060C94D2060C9472080C94600045
S11300400C94B9020C9445000C9445000C944500A2
S113005011241FBECFEFD2E0DEBFCDBF11E0A0E080
S1130060B1E0EAE3F5E102C005900D92A031B107D9
S1130070D9F722E0A0E1B1E001C01D92A136B20798
S1130080E1F70E9465050C949B0A0C940000ECE7D0
S1130090F0E080818F7B8083A7E7B0E08C918B7F39
S11300A08C938081886080838081887F8083EAE765
S11300B0F0E08081886880838081887F80830895D0
S11300C01F920F920FB60F9211248F939F93EF9369
S11300D0FF93EAE7F0E0808180618083809178007B
S11300E0909179009093010180930001FF91EF9129
S11300F09F918F910F900FBE0F901F90189560E005
S113010081E00E941007089560E070E0CB010E9436
S11301107F00E3E8F0E080818F7D80832B9810924C
S11301201001EFE6F0E08081816080836FE770E08A
S113013081E191E00E94980908951F920F920FB6F1
S11301400F9211248F93EF93FF93809110018823D2
S113015019F0813039F00CC0E3E8F0E0808180626E
S1130160808306C0E3E8F0E080818F7D80832B9854
S1130170809110018F5F837080931001FF91EF9144
S11301808F910F900FBE0F901F90189590B1909380
S1130190160183B180931501909318018093170180
S11301A06EE273E082E091E00E949809E8E6F0E0F4
S11301B08081836080830895611570428105910573
S11301C079F490B19093160183B1809315019093C3
S11301D0180180931701E8E6F0E080818360808352
S11301E008951F920F920FB60F9211242F933F93ED
S11301F04F935F936F937F938F939F93AF93BF932B
S1130200EF93FF93E8E6F0E080818E7F80834AE0FD
S113021050E060E070E082E091E00E94E509FF9127
S1130220EF91BF91AF919F918F917F916F915F916A
S11302304F913F912F910F900FBE0F901F901895E3
S11302401F920F920FB60F9211242F933F934F9347
S11302505F936F937F938F939F93AF93BF93EF932A
S1130260FF93E8E6F0E080818D7F80834AE050E0F0
S113027060E070E082E091E00E94E509FF91EF9177
S1130280BF91AF919F918F917F916F915F914F91AA
S11302903F912F910F900FBE0F901F901895CF9301
S11302A0DF931F92CDB7DEB780EC898320E030E086
S11302B0AE014F5F5F4F60E081E00E94E8070F905E
S11302C0DF91CF910895CF93DF9300D0CDB7DEB700
S11302D09B0193E099838A83AE014F5F5F4F61E096
S11302E082E00E94E8070F900F90DF91CF9108956C
S11302F0CF93DF9300D01F92CDB7DEB792E09983FE
S11303008A83FB0180818B8320E030E0AE014F5F64
S11303105F4F60E083E00E94E8070F900F900F901A
S1130320DF91CF910895CF93DF9300D000D0CDB764
S1130330DEB795E099838A836B83FA0180818C838D
S113034020E030E0AE014F5F5F4F60E084E00E9448
S1130350E8070F900F900F900F90DF91CF910895C1
S1130360CF93DF930E944F0180E980931C016CE1DD
S113037071E08FE00E94780110921C014CE151E081
S113038064E08FE00E949301D1E4D0931C014CE11E
S113039051E061E08AE20E949301C1EFC0931C0125
S11303A04CE151E067E089E20E949301C0931C0193
S11303B04CE151E068E389E20E949301C0931C017F
S11303C04CE151E060EC89E20E94930185E880935E
S11303D01C016CE171E088E20E947801D0931C0159
S11303E04CE151E060EC8AE20E949301DF91CF91ED
S11303F008958FEF80931C016CE171E08BE20E9401
S1130400780183E080931C016CE171E080E30E9439
S1130410780110921C016CE171E08DE00E9478017A
S113042010921C016CE171E081E30E94780180E28A
S113043080931C016CE171E082E30E9478011092C8
S11304401C016CE171E080E00E9478016CE171E0D4
S113045081E00E94780180E680931C016CE171E0E8
S11304600E94780110921C014CE151E060EE8FE093
S11304700E94930189E191E090931B0180931A01FA
S11304806AE171E08EE00E9463010895EF92FF92A9
S11304900F931F93CF93893030F57B01C82F80933E
S11304A01C016CE171E085E30E947801CC2391F09A
S11304B08701EC0EF11CC6E3F80181918F01809352
S11304C01C016CE171E08C2F0E947801CF5F0E1546
S11304D01F0591F78FEF80931C014CE151E068E018
S11304E080E30E949301CF911F910F91FF90EF90B1
S11304F008950F931F93CF9329E131E030931B01AB
S113050020931A018C01C6E6F801819191918F0123
S113051090931B0180931A016AE171E08C2F0E9471
S11305206301CF5FC93681F7CF911F910F91089571
S1130530FC0160830895FC0172836183089570E077
S1130540615071099B01220F331F620F731F860FC5
S1130550971F08959C019FB7F89432BD21BDFB01FC
S1130560808180BD1FBAFA9A8FB38A608FBB9FBF08
S113057008951F920F920FB60F9211242F933F9359
S11305804F935F936F937F938F939F93AF93BF9397
S1130590CF93EF93FF93FB98C091220180912101A7
S11305A0C81718F01092230113C08C2F90E06091AB
S11305B01D0170911E01680F791F20911F01309158
S11305C02001820F931F0E94AA02CF5FC0932201D1
S11305D0FF91EF91CF91BF91AF919F918F917F91B7
S11305E06F915F914F913F912F910F900FBE0F909C
S11305F01F901895CF92DF92EF92FF920F931F9363
S113060000912401109125012091260130912701A8
S11306106B017C01C022D122E222F3226C157D05FC
S11306208E059F05A1F46B017C01C094D094E094E5
S1130630F0940C211D212E213F21009324011093BD
S1130640250120932601309327010E94C9031F919D
S11306500F91FF90EF90DF90CF9008950F931F9329
S11306600091240110912501209126013091270148
S1130670DC01CB01802B912BA22BB32B8093240183
S113068090932501A0932601B09327011F910F9108
S1130690089561E070E080E090E00E94FA0262E078
S11306A070E080E090E00E94FA0264E070E080E094
S11306B090E00E94FA0268E070E080E090E00E941E
S11306C0FA0260E170E080E090E00E94FA0260E2E9
S11306D070E080E090E00E94FA0260E470E080E064
S11306E090E00E94FA0260E870E080E090E00E94EE
S11306F0FA0260E071E080E090E00E94FA0260E0BB
S113070072E080E090E00E94FA0260E074E080E031
S113071090E00E94FA0260E078E080E090E00E94BD
S1130720FA0260E070E180E090E00E94FA0260E08A
S113073070E280E090E00E94FA0260E070E480E001
S113074090E00E94FA0260E070E880E090E00E948D
S1130750FA0260E070E081E090E00E94FA0260E05A
S113076070E082E090E00E94FA0293CF0E94720946
S11307700E9454050E94E8060E94DE030E9447007E
S11307800E9484000E94C6000E941F090E948A05DC
S11307900895CF92DF92EF92FF926B017C010E9449
S11307A0DC00C701B6010E94DA05C701B6010E9448
S11307B02409FF90EF90DF90CF9008952698E9E602
S11307C0F0E080818E7F8083808182608083E89ADC
S11307D0E09A0895609128017091290180912A017D
S11307E090912B0108951F920F920FB60F9211242E
S11307F02F933F934F935F936F937F938F939F9325
S1130800AF93BF93EF93FF93CF93DF93CDB7DEB74F
S11308102C97DEBFCDBF8091280190912901A09132
S11308202A01B0912B010196A11DB11D80932801CD
S113083090932901A0932A01B0932B0119821A8263
S11308401B82CE0101969D838C839E012E5F3F4FB8
S11308503F832E832F5F3F4F398728879B878A8763
S113086060E072E080E090E00E942E03CE010496E6
S11308700E947902BE01665F7F4F8DE20E94630190
S11308801C86AE01445F5F4F60E48DE20E949301D9
S1130890BE01665F7F4F80E10E946301BE01665F17
S11308A07F4F88E00E946301AE01445F5F4F6FEFAA
S11308B08CE20E9493012C960FB6F894DEBF0FBE13
S11308C0CDBFDF91CF91FF91EF91BF91AF919F91F8
S11308D08F917F916F915F914F913F912F910F90E5
S11308E00FBE0F901F90189508980998109A119AA6
S11308F090E89093C8001092CA00EDECF0E01082EA
S1130900AEECB0E01C92252F33272C934083803427
S113091021F488E48093C80005C081110DC088E0EB
S11309208093C8008FE08093CA00ECECF0E08081F3
S11309308068808381E0089580E00895E8ECF0E029
S113094090819C7F90838034C1F4E0EDF0E080815D
S1130950807F808380816F70682B608380818F7C2F
S11309608083808150E04C5F5F4F440F551F440FDC
S1130970551F4073482B40830BC0811113C0E0ED19
S1130980F0E08081807C808380816F73682B60833A
S1130990E8ECF0E080818C7F8083808181608083BB
S11309A081E0089580E00895803431F4E8ECF0E0CB
S11309B080818064808309C0811111C0E8ECF0E07B
S11309C0808180836F706093CF00E8ECF0E08081D9
S11309D08C7F808380818260808381E0089580E0C1
S11309E00895803431F4E8ECF0E080818064808301
S11309F00BC0811125C0E8ECF0E080818083842F56
S1130A008295807F8093CF001092D100442371F0AF
S1130A10FB01415050E04F5F5F4F640F751FA2ED23
S1130A20B0E081918C93E617F707D9F7E8ECF0E092
S1130A3080818C7F808380818360808381E00895BE
S1130A4080E008952091CF002F701092D1002223CE
S1130A5071F0FC01215030E02F5F3F4F820F931F54
S1130A60A2EDB0E02C912193E817F907D9F7089586
S1130A7090912C0181E0892780932C0181110AC077
S1130A80139842E050E060E070E08DE291E00E9453
S1130A90E5090895139A43E250E060E070E08DE2C6
S1130AA091E00E94E5090895139A0B9A68E375E0B2
S1130AB08DE291E00E94980943E250E060E070E02A
S1130AC08DE291E00E94E5090895E1E6F0E080E816
S1130AD0808310820E94B60378940E94490380E0C8
S1130AE090E0089580910E010E94390680910E01D4
S1130AF0833121F482E080930E0103C08F5F8093E1
S1130B000E0145E050E060E070E082E391E00E9475
S1130B10E5090895CF9310926C01C1E06C2F81E533
S1130B2091E00E949F026FEF0E9498026C2F81E572
S1130B3091E00E949F026FEF7FEF0E949B02CF5FC4
S1130B40CA3061F746E351E061E571E08CE691E07B
S1130B500E94140662E775E082E391E00E9498091E
S1130B6045E050E060E070E082E391E00E94E50936
S1130B706EE273E08AE091E00E94980948EC50E04C
S1130B8060E070E08AE091E00E94E5090E94B00113
S1130B906EE273E086E091E00E94980948E853E130
S1130BA060E070E086E091E00E94E5092A98229ACC
S1130BB0CF910895CF93DF9300D01F92CDB7DEB7C6
S1130BC0611521E072078105910531F061157440CA
S1130BD08105910521F022C00E94F9011FC040E95E
S1130BE051E060E070E086E091E00E94E50982E176
S1130BF0898383E18A8384E18B83BE016F5F7F4FA6
S1130C0083E00E9446029091310181E0892780931C
S1130C103101882311F02A9A01C02A980F900F906D
S1130C200F90DF91CF910895EF92FF920F931F934E
S1130C30CF93DF937C018B01EA01289A209A4CE040
S1130C4050E060E070E080E00E947404F092730170
S1130C50E09272011093710100937001D0936F01BF
S1130C60C0936E01DF91CF911F910F91FF90EF9090
S1130C70089540E0682F80E00E949E0408951F922A
S1130C800F920FB60F9211242F933F934F935F93BC
S1130C906F937F938F939F93AF93BF93EF93FF9340
S1130CA08091C9008F70823009F468C0843021F0CB
S1130CB0813009F066C036C09091D000692F6F73FF
S1130CC0E0917201F09173018081681305C063E0C3
S1130CD080E00E94D40422C0282F2160621309C03E
S1130CE060916E0170916F0143E080E00E94F10415
S1130CF015C0811113C090FD0DC0669580917001DF
S1130D00909171010E949F0243E0BC0180E00E9427
S1130D10F10404C063E080E00E94D40484E0809382
S1130D20C9002FC0E0917201F0917301808181119B
S1130D3015C06091D0006F7370E0759567958091D0
S1130D406E0190916F010E949F020E94220560E44F
S1130D5070E080E090E00E942E030CC0809170014E
S1130D60909171010E94220561E070E080E090E0C2
S1130D700E942E0381E08093C90003C082E0809327
S1130D80C900FF91EF91BF91AF919F918F917F9196
S1130D906F915F914F913F912F910F900FBE0F90E4
S1130DA01F9018951F920F920FB60F9211248F93D4
S1130DB08091CB0080916D018F5F80936D0188E0FD
S1130DC08093C9008F910F900FBE0F901F901895BC
S1130DD02FB7F8941092820010926F0084E28093EF
S1130DE0830084B1886184B987E893E19093870094
S1130DF0809386008FEF9FEF909389008093880003
S1130E0090938B0080938A0082EF80938000E1E8C6
S1130E10F0E088E180838081826080832FBF089521
S1130E20882319F0813049F108956436E0F48FEF96
S1130E30860F8336D8F470E0CB01880F991F880F92
S1130E40991F680F791FCB01880F991F880F991F6D
S1130E50680F791F660F771F88279927861B970BC2
S1130E6088579C4E05C080E090E002C08FEF9FEF52
S1130E70909389008093880008956436E0F48FEF9E
S1130E80860F8336D8F470E0CB01880F991F880F42
S1130E90991F680F791FCB01880F991F880F991F1D
S1130EA0680F791F660F771F88279927861B970B72
S1130EB088579C4E05C080E090E002C08FEF9FEF02
S1130EC090938B0080938A000895CF93DF931092C0
S1130ED0F70181B1806781B980ED8CBD169A1092BB
S1130EE07E0110927B0110927C01E2EAF1E0AFE70F
S1130EF0B1E02DE931E08FEFEF012597888321964A
S1130F008883219688832196888321968883808389
S1130F101D921D923696A217B30771F7DF91CF91F8
S1130F20089580917E0190E0FC01EE0FFF1FDF0128
S1130F30A80FB91FAA0FBB1FA356BE4F2C91209315
S1130F407A01FD0181818093790110927C011092D4
S1130F507B0181E0809378012F3F99F480917401A3
S1130F6090917501A0917601B09177010196A11D30
S1130F70B11D8093740190937501A0937601B09391
S1130F80770116980895169A089520917E0130915C
S1130F907B01822F90E0820F911D820F911DFC0135
S1130FA0EE0FFF1FE356FE4FE30FF11D82818EBD4E
S1130FB080917801882331F080917B018F5F809349
S1130FC07B01089580917B018F5F80937B0108955D
S1130FD0AF92BF92CF92DF92EF92FF920F931F9343
S1130FE0CF93DF93D82EC62EEA0179010E94EA033B
S1130FF060937401709375018093760190937701E7
S11310008D2D90E08C010E5F1F4F20917D0130E00B
S1131010DE011297C901880F991F820F931F880F51
S1131020991FE0E0F0E09C0123563E4F59012F5FE9
S11310303F4F309719F4E501D8820EC0E130F10535
S113104019F4E901C88208C06C91AF01480F591F17
S113105043565E4FEA01688331961196E017F10713
S113106044F332C080917D018E3019F410927D01D9
S113107003C08F5F80937D010E946F09811127C097
S113108020917E01822F90E0820F911D820F911D8D
S1131090880F991FFC01E356FE4F80818F3FB9F002
S11310A060E070E480E090E00E942E0310C0F7013D
S11310B080819181E0917D01F0E0EE0FFF1FE15806
S11310C0FE4F91838083CECFC110F1CFCBCFDF9180
S11310D0CF911F910F91FF90EF90DF90CF90BF9031
S11310E0AF9008951F920F920FB60F9211242F9371
S11310F03F934F935F936F937F938F939F93AF939C
S1131100BF93EF93FF938091F701811187C08DB551
S1131110809178018823E1F090917B0180917A019C
S11311208917A0F0981307C080917901811103C039
S1131130109278010DC060E070E880E090E00E94B9
S11311402E0380917801811169C002C01092780148
S1131150909179019923E9F080917C0120917E019D
S1131160E82FF0E0E20FF11DEE0FFF1FE158FE4FF4
S11311700190F081E02D2EB520838F5F80937C0158
S1131180891738F460E070E081E090E00E942E035B
S113119045C030917E01832F90E0AC01440F551F70
S11311A0FA01E80FF91FEE0FFF1FE356FE4F2FEF72
S11311B020832183228323832483FA01E80FF91FE8
S11311C0EE0FFF1FE356FE4F2583FA01E158FE4F51
S11311D0118210823E3019F410927E0103C03F5FE9
S11311E030937E0120917E01822F90E0820F911D29
S11311F0820F911D880F991FFC01E356FE4F8081D9
S11312008F3F31F060E070E480E090E00E942E03B4
S113121060E070E082E090E00E942E03FF91EF9185
S1131220BF91AF919F918F917F916F915F914F91FA
S11312303F912F910F900FBE0F901F901895109211
S1131240F8010E94650708952091F8012130A9F062
S113125018F0223089F108956115704481059105D3
S1131260E9F50E94910781E08093F80160E070E85D
S113127080E090E00E942E030895611520E8720733
S11312808105910519F40E94C5070895611571053A
S113129021E08207910531F40E94C50782E0809322
S11312A0F80108956115710582409105B9F40E9411
S11312B0C3071092F80108956115710521E08207B2
S11312C0910519F40E94C5070895611571058240BE
S11312D0910521F40E94C3071092F80108958091AA
S11312E0F8010895E9EFF1E0ADEFB1E081E692E0B5
S11312F011821082138212821C9215821682178226
S1131300108611861286138614863D961D96E8175C
S1131310F90771F715BC16BC18BC88B5835888BD8D
S113132082E080936E0016BC86B5836086BD089506
S1131330CF93DF93C091F901D091FA01C817D9076F
S113134009F440C0A9EFB1E044E552E0FD01258570
S1131350368528173907B1F13D96E417F507B9F733
S11313602CC01D964D915C911E97452BF9F402C03B
S113137020E030E0F901EE0FFF1FE20FF31FEE0F44
S1131380FF1FEE0FFF1F2E0F3F1FF901E750FE4F07
S113139091838083738362831482158216821782F9
S11313A0108611861286138614860CC02F5F3F4F59
S11313B01D9628303105A9F605C0CD2BC9F221E0D0
S11313C030E0CFCFDF91CF910895CF92DF92EF92AB
S11313D0FF922091F9013091FA012817390751F051
S11313E0E9EFF1E021E030E0A585B685A817B9075B
S11313F011F502C020E030E0F901EE0FFF1FE20F0B
S1131400F31FEE0FFF1FEE0FFF1F2E0F3F1FF901FB
S1131410E750FE4F81E0848315821682178210867E
S11314206A017B01CC0CDD1CEE1CFF1CC186D2863C
S1131430E386F48606C02F5F3F4F3D962830310582
S113144099F6FF90EF90DF90CF9008951F920F923E
S11314500FB60F921124EF92FF920F931F932F93C5
S11314603F934F935F936F937F938F939F93AF9328
S1131470BF93CF93DF93EF93FF9388B5835888BDD1
S11314800DEF11E0C9EFD1E00F2EF1E6EF2EF2E0FF
S1131490FF2EF02DF8018081882381F19E0189853A
S11314A09A85AB85BC850097A105B105B9F04D813E
S11314B05E816F8178854F5F5F4F6F4F7F4F4D83A4
S11314C05E836F8378870197A109B10989879A8719
S11314D0AB87BC87892B8A2B8B2B81F41082D90193
S11314E01296ED91FC911397309741F08D919C9158
S11314F0DC016D917D918D919C910995035F1F4F46
S11315002D96CE15DF0531F6FF91EF91DF91CF9146
S1131510BF91AF919F918F917F916F915F914F9107
S11315203F912F911F910F91FF90EF900F900FBE5D
S10D15300F901F901895F894FFCF58
S113153AFFFF002000000004000000010000020078
S9030000FC
