:100000000C942D000C948A030C944A000C949400D8
:100010000C94C3000C944A000C944A000C944A00BF
:100020000C944A000C946B000C9452070C944A00F8
:100030000C94E1080C94CB080C9494050C944C009F
:100040000C9447020C944A000C944A000C944A0009
:1000500041545E534953533F0D0011241FBECFEF4F
:10006000D2E0DEBFCDBF11E0A0E0B1E0E8EAF4E10C
:1000700002C005900D92A032B107D9F722E0A0E2AC
:10008000B1E001C01D92A330B207E1F70E94050460
:100090000C94520A0C9400001F920F920FB60F920C
:1000A00011248F939F93EF93FF93EAE7F0E0808111
:1000B0008061808380917800909179009093010114
:1000C00080930001FF91EF919F918F910F900FBE50
:1000D0000F901F9018951F920F920FB60F92112438
:1000E0008F93EF93FF9380912001882319F0813043
:1000F00039F00CC0E3E8F0E080818062808306C0C4
:10010000E3E8F0E080818F7D80832B98809120014F
:100110008F5F837080932001FF91EF918F910F90FB
:100120000FBE0F901F9018951F920F920FB60F924F
:1001300011242F933F934F935F936F937F938F93EC
:100140009F93AF93BF93EF93FF93E8E6F0E0808136
:100150008E7F80834AE050E060E070E082E091E0D2
:100160000E940E07FF91EF91BF91AF919F918F91E8
:100170007F916F915F914F913F912F910F900FBEA3
:100180000F901F9018951F920F920FB60F92112487
:100190002F933F934F935F936F937F938F939F938F
:1001A000AF93BF93EF93FF93E8E6F0E080818D7FFC
:1001B00080834AE050E060E070E082E091E00E94DD
:1001C0000E07FF91EF91BF91AF919F918F917F911A
:1001D0006F915F914F913F912F910F900FBE0F90B4
:1001E0001F901895CF93DF931F92CDB7DEB780ECA9
:1001F000898320E030E0AE014F5F5F4F60E081E037
:100200000E940A050F90DF91CF910895CF93DF935D
:1002100000D0CDB7DEB79B0193E099838A83AE010E
:100220004F5F5F4F61E082E00E940A050F900F90E0
:10023000DF91CF910895CF93DF9300D01F92CDB778
:10024000DEB792E099838A83FB0180818B8320E073
:1002500030E0AE014F5F5F4F60E083E00E940A052F
:100260000F900F900F90DF91CF910895CF93DF9370
:1002700000D000D0CDB7DEB795E099838A836B8339
:10028000FA0180818C8320E030E0AE014F5F5F4F48
:1002900060E084E00E940A050F900F900F900F908D
:1002A000DF91CF910895CF93DF93909322018093B4
:1002B00021010E94F20080E98093260166E271E04C
:1002C0008FE00E941B011092260146E251E064E09B
:1002D0008FE00E943601D1E4D093260146E251E03E
:1002E00061E08AE20E943601C1EFC093260146E236
:1002F00051E067E089E20E943601C093260146E2A0
:1003000051E068E389E20E943601C093260146E28B
:1003100051E060EC89E20E94360185E88093260175
:1003200066E271E088E20E941B01D093260146E25A
:1003300051E060EC8AE20E943601DF91CF9108958E
:100340008FEF8093260166E271E08BE20E941B0131
:1003500083E08093260166E271E080E30E941B0146
:100360001092260166E271E08DE00E941B0110925E
:10037000260166E271E081E30E941B0180E2809326
:10038000260166E271E082E30E941B0110922601C1
:1003900066E271E080E00E941B0166E271E081E0AC
:1003A0000E941B0180E68093260166E271E00E94B4
:1003B0001B011092260146E251E060EE8FE00E94A0
:1003C000360183E291E0909325018093240164E259
:1003D00071E08EE00E9406010895EF92FF920F9364
:1003E0001F93CF93893030F57B01C82F809326016E
:1003F00066E271E085E30E941B01CC2391F0870146
:10040000EC0EF11CC6E3F80181918F018093260167
:1004100066E271E08C2F0E941B01CF5F0E151F0555
:1004200091F78FEF8093260146E251E068E080E388
:100430000E943601CF911F910F91FF90EF90089588
:100440001F93CF93DF9316E6C0E0D0E060912101C7
:10045000709122016C0F7D1F812F0E940601229650
:100460001F5FCA30D10591F7DF91CF911F91089599
:100470009C019FB7F89432BD21BDFB01808180BDF6
:100480001FBAFA9A8FB38A608FBB9FBF08951F92DD
:100490000F920FB60F9211242F933F934F935F93B8
:1004A0006F937F938F939F93AF93BF93CF93EF936C
:1004B000FF93FB98C0912C0180912B01C81718F075
:1004C00010922D0113C08C2F90E060912701709144
:1004D0002801680F791F2091290130912A01820F8C
:1004E000931F0E943802CF5FC0932C01FF91EF91C0
:1004F000CF91BF91AF919F918F917F916F915F91BC
:100500004F913F912F910F900FBE0F901F90189514
:100510000F931F938B019C01EFB7F89440912E012C
:1005200050912F016091300170913101D901C801C2
:1005300084239523A623B72380179107A207B30727
:1005400091F480959095A095B09584239523A6234A
:10055000B72380932E0190932F01A0933001B09385
:10056000310181E001C080E0EFBF882321F0C901A3
:10057000B8010E9460031F910F910895CF92DF92FE
:10058000EF92FF922FB7F894C0902E01D0902F01D8
:10059000E0903001F0903101DC01CB018C299D29E4
:1005A000AE29BF2980932E0190932F01A093300193
:1005B000B09331012FBFFF90EF90DF90CF9008955F
:1005C00061E070E080E090E00E94880262E070E00C
:1005D00080E090E00E94880264E070E080E090E0BB
:1005E0000E94880268E070E080E090E00E9488024B
:1005F00060E170E080E090E00E94880260E270E0DC
:1006000080E090E00E94880260E470E080E090E08A
:100610000E94880260E870E080E090E00E9488021A
:1006200060E071E080E090E00E94880260E072E0AB
:1006300080E090E00E94880260E074E080E090E05A
:100640000E94880260E078E080E090E00E948802EA
:1006500060E070E180E090E00E94880260E070E27B
:1006600080E090E00E94880260E070E480E090E02A
:100670000E94880260E070E880E090E00E948802BA
:1006800060E070E081E090E00E94880260E070E04D
:1006900082E090E00E94880260E070E084E090E0F8
:1006A0000E9488028DCF0E9498060E9445060E94F3
:1006B000010A0E9475030E94F4030E941304089526
:1006C000CF92DF92EF92FF926B017C010E94320485
:1006D000C701B6010E94040AC701B6010E944A067A
:1006E000FF90EF90DF90CF9008952698E9E6F0E034
:1006F00080818E7F8083808182608083E89AE09A07
:10070000089560913201709133018091340190918C
:10071000350108951F920F920FB60F9211242F9357
:100720003F934F935F936F937F938F939F93AF9379
:10073000BF93EF93FF93CF93DF931F92CDB7DEB7B5
:100740008091320190913301A0913401B091350133
:100750000196A11DB11D8093320190933301A093A6
:100760003401B09335010E9420021982AE014F5F1F
:100770005F4F60E48DE20E943601AE014F5F5F4F34
:100780006FEF8CE20E9436010F90DF91CF91FF91C5
:10079000EF91BF91AF919F918F917F916F915F91F9
:1007A0004F913F912F910F900FBE0F901F90189572
:1007B0009091360181E089278093360181110AC02A
:1007C000139842E050E060E070E087E391E00E941F
:1007D0000E070895139A43E250E060E070E087E36B
:1007E00091E00E940E070895139A0B9A68ED73E04A
:1007F00087E391E00E94BE0643E250E060E070E0D3
:1008000087E391E00E940E070895F894E1E6F0E096
:1008100080E8808310820E94530378940E94E00253
:1008200080E090E008958BE391E00E94C7076EEBB3
:1008300072E08CE091E00E94BE062A98229A6EEB4C
:1008400072E08AE191E00E94BE0648EC50E060E070
:1008500070E08AE191E00E940E0780E191E00E9441
:10086000530108950F93611520E8720781059105E2
:10087000D9F16115710521E08207910531F06034ED
:10088000710581059105B1F50BC00E94A00148ECEE
:1008900050E060E070E08CE091E00E940E072AC01A
:1008A00080910701882359F001E02AE031E048E017
:1008B00051E060E083E00E944D08109207018091B2
:1008C0000601882321F02A9A1092060104C02A9872
:1008D00081E0809306014AEF50E060E070E08CE038
:1008E00091E00E940E0706C06BE371E085E090E0A6
:1008F0000E94ED010F910895CF93DF931092A10113
:1009000081B1806781B980ED8CBD169A109250013B
:1009100010924D0110924E01EAE6F1E0A1E5B1E03E
:1009200025E631E08FEFEF012597888321968883B4
:1009300021968883219688832196888380831D92BF
:100940001D923696A217B30771F7DF91CF910895E4
:100950008091500190E0FC01EE0FFF1FDF01A80F16
:10096000B91FAA0FBB1FAB59BE4F2C9120934C014E
:10097000FD01818180934B012F3F19F491E0909309
:100980004C018F3F11F410924B0110924E011092C6
:100990004D0181E080934A0180914C018F3F99F491
:1009A0008091460190914701A0914801B091490181
:1009B0000196A11DB11D8093460190934701A0931C
:1009C0004801B093490116980895169A0895209108
:1009D000500130914D01822F90E0820F911D820FC6
:1009E000911DFC01EE0FFF1FEB59FE4FE30FF11DB0
:1009F00082818EBD80914A01882331F080914D0122
:100A00008F5F80934D01089580914D018F5F80939A
:100A10004D010895AF92BF92CF92DF92EF92FF9275
:100A20000F931F93CF93DF93D82EC62EEA0179013F
:100A30000E948103609346017093470180934801AF
:100A4000909349018D2D90E08C010E5F1F4F2091F6
:100A50004F0130E0DE011297C901880F991F820F04
:100A6000931F880F991FE0E0F0E09C012B593E4F47
:100A700059012F5F3F4F309719F4E501D8820EC01E
:100A8000E130F10519F4E901C88208C06C91AF01A9
:100A9000480F591F4B595E4FEA01688331961196F2
:100AA000E017F10744F332C080914F01893019F407
:100AB00010924F0103C08F5F80934F010E949506F3
:100AC000811127C020915001822F90E0820F911D4B
:100AD000820F911D880F991FFC01EB59FE4F8081F9
:100AE0008F3FB9F060E078E080E090E00E94BE02C5
:100AF00010C0F70180819181E0914F01F0E0EE0F8D
:100B0000FF1FEF5AFE4F91838083CECFC110F1CFEC
:100B1000CBCFDF91CF911F910F91FF90EF90DF909E
:100B2000CF90BF90AF9008951F920F920FB60F9283
:100B300011242F933F934F935F936F937F938F93E2
:100B40009F93AF93BF93EF93FF938091A101811186
:100B50008BC08DB580914A018823E1F090914D01C1
:100B600080914C018917A0F0981307C080914B0128
:100B7000811103C010924A010DC060E070E180E075
:100B800090E00E94BE0280914A0181116DC002C0B6
:100B900010924A0190914B01992309F180914E01E5
:100BA00020915001E82FF0E0E20FF11DEE0FFF1F42
:100BB000EF5AFE4F0190F081E02D309711F42EB5E1
:100BC00002C02EB520838F5F80934E01891738F4C1
:100BD00060E070E280E090E00E94BE0245C030918B
:100BE0005001832F90E0AC01440F551FFA01E80F2C
:100BF000F91FEE0FFF1FEB59FE4F2FEF20832183CC
:100C0000228323832483FA01E80FF91FEE0FFF1FCD
:100C1000EB59FE4F2583FA01EF5AFE4F11821082E5
:100C2000393019F41092500103C03F5F30935001E6
:100C300020915001822F90E0820F911D820F911D13
:100C4000880F991FFC01EB59FE4F80818F3F31F0D7
:100C500060E078E080E090E00E94BE0260E070E436
:100C600080E090E00E94BE02FF91EF91BF91AF91B2
:100C70009F918F917F916F915F914F913F912F91B4
:100C80000F900FBE0F901F9018951092A2010E9416
:100C90007C0408952091A2012130A9F018F022309F
:100CA00089F108956115784081059105E9F50E9463
:100CB000A80481E08093A20160E070E180E090E010
:100CC0000E94BE020895611520E172078105910519
:100CD00019F40E94E7040895611520E27207810566
:100CE000910531F40E94E70482E08093A201089507
:100CF0006115704481059105B9F40E94E5041092D4
:100D0000A2010895611520E272078105910519F489
:100D10000E94E7040895611570448105910521F44E
:100D20000E94E5041092A20108958091A201089505
:100D3000E3EAF1E0A7EAB1E084EE91E011821082EB
:100D4000138212821C9215821682178210861186D7
:100D50001286138614863D961D96E817F90771F7DB
:100D600015BC16BC18BC88B5835888BD82E080933A
:100D70006E0016BC86B5836086BD0895CF93DF9361
:100D8000C091A301D091A401C817D90709F443C0A9
:100D9000A3EAB1E047ED51E0FD012585368528172E
:100DA0003907C9F13D96E417F507B9F72FC01D962D
:100DB0004D915C911E97452B11F502C020E030E06B
:100DC0004FB7F894F901EE0FFF1FE20FF31FEE0F7C
:100DD000FF1FEE0FFF1F2E0F3F1FF901ED55FE4FB6
:100DE00091838083738362831482158216821782B3
:100DF000108611861286138614864FBF0CC02F5F93
:100E00003F4F1D962530310591F605C0CD2BB1F22F
:100E100021E030E0CCCFDF91CF910895CF92DF92E7
:100E2000EF92FF922091A3013091A4012817390776
:100E300051F0E3EAF1E021E030E0A585B685A8179E
:100E4000B90729F502C020E030E08FB7F894F90126
:100E5000EE0FFF1FE20FF31FEE0FFF1FEE0FFF1F3E
:100E60002E0F3F1FF901ED55FE4F91E0948315823F
:100E70001682178210866A017B01CC0CDD1CEE1CE9
:100E8000FF1CC186D286E386F4868FBF06C02F5F23
:100E90003F4F3D962530310581F6FF90EF90DF9072
:100EA000CF9008951F920F920FB60F921124EF92D8
:100EB000FF920F931F932F933F934F935F936F93E3
:100EC0007F938F939F93AF93BF93CF93DF93EF93D2
:100ED000FF9388B5835888BD07EA11E0C3EAD1E0E3
:100EE0000F2EF4EEEF2EF1E0FF2EF02DF8018081B1
:100EF000882381F19E0189859A85AB85BC85009701
:100F0000A105B105B9F04D815E816F8178854F5F94
:100F10005F4F6F4F7F4F4D835E836F83788701975D
:100F2000A109B10989879A87AB87BC87892B8A2B4E
:100F30008B2B81F41082D9011296ED91FC911397BD
:100F4000309741F08D919C91DC016D917D918D9157
:100F50009C910995035F1F4F2D96CE15DF0531F645
:100F6000FF91EF91DF91CF91BF91AF919F918F91C1
:100F70007F916F915F914F913F912F911F910F91B1
:100F8000FF90EF900F900FBE0F901F90189529982B
:100F9000219A2D98259AE8ECF0E0208120682083A2
:100FA0002FE020831092CC002CE02093CD001092F3
:100FB000CE002BE02093CA001092F5011092F201AE
:100FC0001092F3019093E5018093E401EAEFF1E0E0
:100FD0008FEF8083818382838383A6EFB1E01196B4
:100FE0001C921E92848385838683878313961C922A
:100FF0001E9212970895E091F501F0E0EE0FFF1FA9
:10100000EE0FFF1FE650FE4F80818093F10181813A
:101010008093F0011092F3011092F20181E080932D
:10102000EE010895089580911E01811116C0E0918E
:10103000F501F0E08091F201EE0FFF1FEE0FFF1FB0
:10104000E650FE4FE80FF11D82818093D20080911F
:10105000F2018F5F8093F20108952091EF01822FBA
:1010600090E0FC01E05BFF4F34913F3259F4FC010A
:10107000EF5AFF4FE491E23739F42F5F2093EF01ED
:10108000EDE003C0E49101C0EFE2E093D200809173
:10109000EF018F5F8093EF010895CF92DF92EF927F
:1010A000FF920F931F93CF93DF93D82EC62EEA01A2
:1010B000790101114FC010921E010E9481036093BB
:1010C000EA017093EB018093EC019093ED010D2DFB
:1010D00010E00E5F1F4F2091F40130E0DE01129707
:1010E000C901880F991F880F991FE0E0F0E09C016B
:1010F00026503E4FA9014F5F5F4F309719F4E90129
:10110000D8820DC0E130F10519F4EA01C88207C0A8
:101110006C91EF01C80FD91FC650DE4F688331961E
:101120001196E017F1074CF32AC08091F401813049
:1011300019F41092F40103C08F5F8093F4010E94B0
:101140004F0A81111FC060E870E080E090E00E94CB
:10115000BE0218C081E080931E011092EF010E9430
:10116000130810C0E091F401F0E0EE0FFF1FEA5009
:10117000FE4FD7018D919C9191838083D6CFC11072
:10118000F1CFD3CFDF91CF911F910F91FF90EF90CF
:10119000DF90CF9008951F920F920FB60F921124F7
:1011A0008F93EF93FF93299AE9ECF0E080818160BF
:1011B0008083FF91EF918F910F900FBE0F901F9042
:1011C00018951F920F920FB60F9211242F933F93F1
:1011D0004F935F936F937F938F939F93AF93BF933F
:1011E000EF93FF938091C90080FF5FC0E9ECF0E0CE
:1011F0008081816080838091E901882369F18091F9
:10120000E801882309F4DDC08091E701882309F40F
:10121000D8C08091E6019091D200E091E401F09174
:10122000E501E80FF11D319790838F5F8093E60110
:10123000863008F4D5C095B180E2892785B910922F
:10124000E9011092E8011092E70160E070E880E0A7
:1012500090E00E94BE02C4C08091D2008435C9F4DF
:101260001092E60181E08093E90119C09091E601B6
:10127000913079F48D3009F0AEC081E08093E801BF
:101280001092E6010CC081E08093E7011092E60124
:1012900006C01092E9011092E8011092E7018091D6
:1012A000E6018F5F8093E6019BC08091C90088238F
:1012B00009F496C0E9ECF0E080818260808380913F
:1012C0001E01811174C08091EE018823E1F090919C
:1012D000F2018091F1018917A0F0981307C0809165
:1012E000F001811103C01092EE010DC060E071E0C9
:1012F00080E090E00E94BE028091EE01811170C0FA
:1013000002C01092EE019091F0019923C1F08091FA
:10131000F3012091F501E82FF0E0E20FF11DEE0F4F
:10132000FF1FEA50FE4F0190F081E02D2091D20086
:1013300020838F5F8093F301891708F451C02091B7
:10134000F501822F90E0FC01EE0FFF1FEE0FFF1F53
:10135000E650FE4F3FEF3083318332833383880F73
:10136000991FFC01EA50FE4F11821082213019F4BE
:101370001092F50103C02F5F2093F501E091F50174
:10138000F0E0EE0FFF1FEE0FFF1FE650FE4F8081D3
:101390008F3F31F060E870E080E090E00E94BE0294
:1013A00060E074E080E090E00E94BE0219C080918D
:1013B000EF018A3018F010921E0112C00E9413082B
:1013C0000FC08091D200843509F050CF49CF8A30C8
:1013D00009F05FCF58CF9091E8019111F8CF59CF24
:1013E000FF91EF91BF91AF919F918F917F916F91FD
:1013F0005F914F913F912F910F900FBE0F901F90D3
:101400001895109202020895209102022130A9F04D
:1014100018F0223089F10895603871058105910531
:10142000E9F50E94FB0781E08093020260E071E031
:1014300080E090E00E94BE020895611521E07207ED
:101440008105910519F40E9413080895611522E0A1
:1014500072078105910531F40E94130882E08093A0
:10146000020208956115744081059105B9F40E9446
:101470001208109202020895611522E07207810598
:10148000910519F40E9413080895611574408105AF
:10149000910521F40E941208109202020895809191
:0814A00002020895F894FFCF49
:1014A800FFFF000002000101A5B540014000000057
:1014B80041014201430144014501000001000100CE
:00000001FF
