S0210000466F72645F3336305F4C69676874696E675F50726F6A6563742E73726563B5
S11300000C9428000C940C010C9445000C944500AD
S11300100C9445000C9445000C9445000C94450048
S11300200C9445000C9445000C943F040C9445003A
S11300300C9497020C942A030C9445000C946000D1
S11300400C9445000C9445000C9445000C94450018
S113005011241FBECFEFD2E0DEBFCDBF11E0A0E080
S1130060B1E0EAE5F9E002C005900D92AC30B107C9
S1130070D9F721E0ACE0B1E001C01D92A239B2078A
S1130080E1F70E9403020C94AB040C940000ECE72B
S1130090F0E080818F7B8083A7E7B0E08C918B7F39
S11300A08C938081886080838081887F8083EAE765
S11300B0F0E08081886880838081887F80830895D0
S11300C01F920F920FB60F9211242F938F939F9329
S11300D0EF93FF93EAE7F0E08081806180831092E0
S11300E00101109200018091790090E0982F8827F7
S11300F0909301018093000120917800822B9093CA
S1130100010180930001FF91EF919F918F912F91B5
S11301100F900FBE0F901F9018950F931F9300918F
S11301200C0110910D0120910E0130910F01DC01A1
S1130130CB01802B912BA22BB32B80930C0190939A
S11301400D01A0930E01B0930F011F910F9108951B
S1130150A12CB12C00E010E0C1E0D0E0CA2CDB2CD3
S1130160E02EF12ECE010C2C02C0880F991F0A94A8
S1130170E2F7092E000CAA0BBB0B40910C01509125
S11301800D0160910E0170910F012C013D0144227B
S113019055226622772284159505A605B705A1F494
S11301A080959095A095B09584239523A623B72395
S11301B080930C0190930D01A0930E01B0930F0155
S11301C0C701B6010E94FD008FEFC81AD80AE80AD9
S11301D0F80A86E0C816D104E104F10419F6BECF8A
S11301E00E949B030E94F2010E9440030E940001AE
S11301F00E9447000E94110208950E942802089557
S11302002698E9E6F0E080818D7F8083808181609B
S11302108083E89AE09A08951F920F920FB60F9286
S11302201124E09A0F900FBE0F901F901895089814
S11302300998109A119A90E89093C8001092CA00F5
S1130240EDECF0E01082AEECB0E01C92252F3327E9
S11302502C934083803421F488E48093C80005C043
S1130260811108C088E08093C8008FE08093CA00A1
S113027081E0089580E00895E8ECF0E090819C7FAF
S113028090838034C1F4E0EDF0E08081807F80834E
S113029080816F70682B608380818F7C80838081F4
S11302A050E04C5F5F4F440F551F440F551F407380
S11302B0482B40830BC0811113C0E0EDF0E0808136
S11302C0807C808380816F73682B6083E8ECF0E02E
S11302D080818C7F808380818160808381E0089528
S11302E080E00895803431F4E8ECF0E080818064AB
S11302F0808309C0811111C0E8ECF0E08081808323
S11303006F706093CF00E8ECF0E080818C7F808395
S113031080818260808381E0089580E00895803444
S113032031F4E8ECF0E08081806480830BC08111BB
S113033025C0E8ECF0E080818083842F8295807F63
S11303408093CF001092D100442371F0FB014150FF
S113035050E04F5F5F4F640F751FA2EDB0E08191D5
S11303608C93E617F707D9F7E8ECF0E080818C7FEF
S1130370808380818360808381E0089580E0089594
S11303802091CF002F701092D100222371F0FC0134
S1130390215030E02F5F3F4F820F931FA2EDB0E05A
S11303A02C912193E817F907D9F70895909110013A
S11303B081E089278093100181110AC0139842E0DB
S11303C050E060E070E081E191E00E940C04089547
S11303D0139A43E250E060E070E081E191E00E9412
S11303E00C040895139A0B9A66ED71E081E191E093
S11303F00E94BF0343E250E060E070E081E191E0DD
S11304000E940C040895F894E1E6F0E080E880830B
S113041010820E94F00078940E94A80080E090E08E
S113042008951092220146E151E06CE171E082E20C
S113043091E00E946C026DE870E087E091E00E9418
S1130440BF036DE870E082E091E00E94BF0308956D
S1130450683071058105910531F0603471058105BD
S11304609105C9F00895809106010E94910280913E
S11304700601873021F482E08093060103C08F5F78
S11304808093060144E050E060E070E087E091E092
S11304900E940C04089560911501ECE1F1E0608381
S11304A08FEF8183628383836483858381E00E94E9
S11304B06803809115018F5F853618F480931501C8
S11304C002C01092150144EF51E060E070E082E058
S11304D091E00E940C040895EF92FF920F931F93F2
S11304E0CF93DF937C018B01EA01149A0C9A4CE0C0
S11304F050E060E070E080E00E941701F092290172
S1130500E09228011093270100932601D09325013E
S1130510C0932401DF91CF911F910F91FF90EF9031
S1130520089540E0682F80E00E943C0108951F92E6
S11305300F920FB60F9211242F933F934F935F9313
S11305406F937F938F939F93AF93BF93EF93FF9397
S11305508091C9008F70823009F468C0843021F022
S1130560813009F066C037C09091D000692F6F7355
S1130570E0912801F09129018081681305C062E0AF
S113058080E00E94720123C0282F2160621309C0F9
S1130590609124017091250142E080E00E948F0166
S11305A016C0811114C090FD0EC070E06250710934
S11305B08091260190912701680F791F42E080E025
S11305C00E948F0104C062E080E00E94720184E016
S11305D08093C9002EC0E0912801F0912901808107
S11305E0811114C08091D0008E7390E00297209105
S11305F0240130912501820F931F0E94C00160E104
S113060070E080E090E00E948D000CC08091260193
S1130610909127010E94C00162E070E080E090E0C8
S11306200E948D0081E08093C90003C082E0809322
S1130630C900FF91EF91BF91AF919F918F917F91ED
S11306406F915F914F913F912F910F900FBE0F903B
S11306501F9018951F920F920FB60F9211248F932B
S11306608091CB00809123018F5F8093230188E0E8
S11306708093C9008F910F900FBE0F901F90189513
S11306802FB7F8941092820010926F0084E2809346
S1130690830084B1886184B98FE193E090938700EB
S11306A0809386008FEF9FEF90938900809388005A
S11306B090938B0080938A0082EF80938000E1E81E
S11306C0F0E088E180838081816080832FBF08957A
S11306D0882319F08130C1F00895653608F064E686
S11306E0662359F084E690E0861B9109880F991FD0
S11306F0880F991F880F991F02C08FEF9FEF909367
S11307008900809388000895653608F064E66623BE
S113071059F084E690E0861B9109880F991F880F91
S1130720991F880F991F02C08FEF9FEF90938B0042
S113073080938A000895EAE2F1E0AEE2B1E082E952
S113074091E011821082138212821C921582168209
S11307501782108611861286138614863D961D967E
S1130760E817F90771F715BC16BC18BC88B583588F
S113077088BD82E080936E0084E086BD0895CF93A7
S1130780DF93C0912A01D0912B01C817D90709F42E
S113079040C0AAE2B1E045E851E0FD012585368577
S11307A028173907B1F13D96E417F507B9F72CC0BE
S11307B01D964D915C911E97452BF9F402C020E0E3
S11307C030E0F901EE0FFF1FE20FF31FEE0FFF1FE2
S11307D0EE0FFF1F2E0F3F1FF901E65DFE4F9183C1
S11307E08083738362831482158216821782108633
S11307F011861286138614860CC02F5F3F4F1D96F8
S113080028303105A9F605C0CD2BC9F221E030E02E
S1130810CFCFDF91CF91089520912A0130912B0100
S11308202817390751F0EAE2F1E021E030E0A5852C
S1130830B685A817B907E1F402C020E030E0F90159
S1130840EE0FFF1FE20FF31FEE0FFF1FEE0FFF1F50
S11308502E0F3F1FF901E65DFE4F81E08483158270
S1130860168217821086418752876387748708959A
S11308702F5F3F4F3D9628303105C9F608951F92EA
S11308800F920FB60F921124EF92FF920F931F93C2
S11308902F933F934F935F936F937F938F939F9384
S11308A0AF93BF93CF93DF93EF93FF9388B58358B0
S11308B088BD0EE211E0CAE2D1E00F2EF2E9EF2E7C
S11308C0F1E0FF2EF02DF8018081882339F18D812C
S11308D09E81AF81B8850196A11DB11D8D839E8334
S11308E0AF83B88789859A85AB85BC850197A109B3
S11308F0B10989879A87AB87BC87892B8A2B8B2B75
S113090069F41082EA81FB81309741F088819981F2
S1130910DC016D917D918D919C910995035F1F4F31
S11309202D96CE15DF0579F6FF91EF91DF91CF91EA
S1130930BF91AF919F918F917F916F915F914F91F3
S11309403F912F911F910F91FF90EF900F900FBE49
S10D09500F901F901895F894FFCF44
S10F095AFFFF4000000002080000000045
S9030000FC
