S0210000466F72645F3336305F4C69676874696E675F50726F6A6563742E73726563B5
S11300000C9428000C9486020C9445000C94450032
S11300100C9445000C9445000C9445000C94450048
S11300200C9445000C9445000C949E0C0C944500D3
S11300300C949D060C94F0060C946C080C948400AB
S11300400C9445000C9445000C9445000C94450018
S113005011241FBECFEFD2E0DEBFCDBF11E0A0E080
S1130060B1E0EEECFBE102C005900D92AA30B107BD
S1130070D9F722E0AAE0B1E001C01D92A932B2078B
S1130080E1F70E94D8040C94E50D0C940000CF9382
S1130090DF93CDB7DEB78CE790E02CE730E0F901D1
S11300A020812F7BFC01208387E790E027E730E065
S11300B0F90120812B7FFC0120838CE790E02CE761
S11300C030E0F90120812860FC0120838CE790E076
S11300D02CE730E0F9012081287FFC0120838AE7A6
S11300E090E02AE730E0F90120812868FC012083B0
S11300F08AE790E02AE730E0F9012081287FFC01BB
S11301002083DF91CF9108951F920F9200905F009A
S11301100F9211242F933F938F939F93EF93FF9309
S1130120CF93DF93CDB7DEB78AE790E02AE730E0DC
S1130130F90120812061FC012083109201011092B9
S1130140000189E790E0FC018081882F90E0982FDE
S113015088279C018091000190910101822B932BAF
S1130160909301018093000188E790E0FC01808175
S1130170282F30E08091000190910101822B932B74
S11301809093010180930001DF91CF91FF91EF9152
S11301909F918F913F912F910F9000925F000F904C
S11301A01F901895CF93DF93CDB7DEB785E290E02B
S11301B025E230E0F90120812B7FFC01208384E2D9
S11301C090E024E230E0F90120812460FC012083E6
S11301D063E071E08AE091E00E94CB0A66E171E09D
S11301E08EE091E00E94CB0A8AE080930301109292
S11301F012011092130160E070E0CB010E9416011D
S1130200DF91CF910895CF93DF9300D000D0CDB785
S1130210DEB769837A838B839C83109212010F90DB
S11302200F900F900F90DF91CF910895CF93DF93AC
S113023000D000D0CDB7DEB769837A838B839C83EB
S113024080911301882F90E0009719F00197F9F03D
S11302503CC08091030180930201809112018823A4
S113026049F085E290E025E230E0F9012081246044
S1130270FC01208380910201882F90E0A0E0B0E08F
S1130280AC01BD018EE091E00E94200C1EC085E20D
S113029090E025E230E0F90120812B7FFC012083EE
S11302A080910201882F90E028EC30E0A901481BDE
S11302B0590BCA01092E000CAA0BBB0BAC01BD01E2
S11302C08EE091E00E94200C00009091130181E0E7
S11302D08927809313010F900F900F900F90DF9157
S11302E0CF910895CF93DF9300D000D0CDB7DEB780
S11302F069837A838B839C83209114013091150147
S1130300409116015091170189819A81AB81BC817A
S1130310822B932BA42BB52B80931401909315015E
S1130320A0931601B09317010F900F900F900F90A8
S1130330DF91CF910895CF93DF9300D0CDB7DEB78F
S11303401A82198227C081E090E0098002C0880FD8
S1130350991F0A94E2F7092E000CAA0BBB0BBC01EF
S1130360CD010E94CF01882381F081E090E00980D3
S113037002C0880F991F0A94E2F7092E000CAA0BF9
S1130380BB0BBC01CD010E94310289819A81019687
S11303909A83898389819A810797ACF2D1CFCF93CD
S11303A0DF9300D000D0CDB7DEB769837A838B8327
S11303B09C832091140130911501409116015091B4
S11303C0170189819A81AB81BC81282339234A236F
S11303D05B2389819A81AB81BC81281739074A073D
S11303E05B0701F589819A81AB81BC819C01AD01D8
S11303F02095309540955095809114019091150168
S1130400A0911601B091170182239323A423B5234D
S11304108093140190931501A0931601B0931701D2
S113042081E001C080E00F900F900F900F90DF915A
S1130430CF910895CF93DF93CDB7DEB70E94380AEA
S11304400E9473040E9442070E9452020E944700C5
S11304500E94D2000E94BF090E94F004DF91CF9154
S11304600895CF93DF9300D000D0CDB7DEB7698372
S11304707A838B839C8389819A81AB81BC81BC0103
S1130480CD010E94350589819A81AB81BC81BC0173
S1130490CD010E94C8090F900F900F900F90DF912B
S11304A0CF910895CF93DF93CDB7DEB784E290E088
S11304B024E230E0F90120812F7BFC01208389E6CE
S11304C090E029E630E0F90120812D7FFC012083B2
S11304D089E690E029E630E0F90120812160FC0101
S11304E020838DE390E02DE330E0F9012081216049
S11304F0FC0120838CE390E02CE330E0F9012081BF
S11305002160FC012083DF91CF9108951F920F9207
S113051000905F000F9211242F933F938F939F932A
S1130520EF93FF93CF93DF93CDB7DEB78CE390E0E7
S11305302CE330E0F90120812160FC012083DF916C
S1130540CF91FF91EF919F918F913F912F910F90B8
S113055000925F000F901F901895CF93DF9300D007
S113056000D01F92CDB7DEB789834A835B836C8347
S11305707D8381E290E021E230E0F90120812E7F49
S1130580FC01208381E290E021E230E0F901208146
S11305902D7FFC01208382E290E022E230E0F90129
S11305A020812160FC01208382E290E022E230E09D
S11305B0F90120812260FC01208388EC90E020E88E
S11305C0FC0120838AEC90E0FC0110828DEC90E029
S11305D0FC0110828EEC90E0FC0110828EEC90E025
S11305E02A813B81232F3327FC0120838DEC90E06B
S11305F02A81FC0120838981803431F488EC90E0E5
S113060028E4FC0120830BC08981882331F488EC21
S113061090E028E0FC01208302C080E00FC08AEC57
S113062090E02FE0FC0120838CEC90E02CEC30E097
S1130630F90120812068FC01208381E00F900F9054
S11306400F900F900F90DF91CF910895CF93DF9388
S113065000D01F92CDB7DEB789836A834B8388ECC1
S113066090E028EC30E0F90120812C7FFC0120830C
S11306708981803499F580ED90E020ED30E0F90136
S11306802081207FFC01208380ED90E020ED30E08C
S1130690F9012081322F2A812F70232BFC01208322
S11306A080ED90E020ED30E0F90120812F7CFC0109
S11306B0208380ED90E020ED30E0F9012081422F8D
S11306C02B81222F30E02C5F3F4F220F331F220F4C
S11306D0331F2073242BFC0120831BC089818823B2
S11306E0B1F480ED90E020ED30E0F9012081207C30
S11306F0FC01208380ED90E020ED30E0F9012081C1
S1130700322F2A812F73232BFC01208302C080E027
S113071013C088EC90E028EC30E0F90120812C7FB4
S1130720FC01208388EC90E028EC30E0F901208182
S11307302160FC01208381E00F900F900F90DF91E6
S1130740CF910895CF93DF9300D0CDB7DEB78983DF
S11307506A838981803451F488EC90E028EC30E09D
S1130760F90120812064FC01208314C0898188233D
S113077079F488EC90E028EC30E0F9012081FC0168
S113078020838FEC90E02A812F70FC01208302C02B
S113079080E013C088EC90E028EC30E0F90120817F
S11307A02C7FFC01208388EC90E028EC30E0F901F8
S11307B020812260FC01208381E00F900F90DF9163
S11307C0CF910895CF93DF9300D000D01F92CDB77F
S11307D0DEB78A837C836B834D838A81803451F4B2
S11307E088EC90E028EC30E0F90120812064FC01E1
S11307F0208315C08A81882381F488EC90E028EC5A
S113080030E0F9012081FC0120838FEC90E02D8100
S11308102295207FFC01208302C080E02DC081ED61
S113082090E0FC011082198210C022ED30E08B812F
S11308309C81AC014F5F5F4F5C834B83FC018081E3
S1130840F901808389818F5F898399818D819817CC
S113085060F388EC90E028EC30E0F90120812C7FF3
S1130860FC01208388EC90E028EC30E0F901208141
S11308702360FC01208381E00F900F900F900F9074
S11308800F90DF91CF910895CF93DF9300D000D0E4
S1130890CDB7DEB79C838B838FEC90E0FC01808125
S11308A08F708A8381ED90E0FC011082198210C060
S11308B08B819C819C012F5F3F4F3C832B8322EDD6
S11308C030E0F9012081FC01208389818F5F8983D5
S11308D099818A81981760F30F900F900F900F9071
S11308E0DF91CF910895CF93DF93CDB7DEB782E246
S11308F090E022E230E0F90120812860FC012083AD
S113090081E290E021E230E0F90120812860FC01DD
S113091020836AE974E088E191E00E94CB0A43E213
S113092050E060E070E088E191E00E94910BDF917B
S1130930CF910895CF93DF9300D000D0CDB7DEB729
S113094069837A838B839C8390911C0181E089273E
S113095080931C0180911C01882391F482E290E031
S113096022E230E0F9012081277FFC01208342E06C
S113097050E060E070E088E191E00E94910B11C0CA
S113098082E290E022E230E0F90120812860FC015B
S1130990208343E250E060E070E088E191E00E944F
S11309A0910B0F900F900F900F90DF91CF910895BE
S11309B0CF93DF93CDB7DEB7F89481E690E020E8DB
S11309C0FC01208381E690E0FC0110820E941A025F
S11309D078940E949B0180E090E0DF91CF9108958C
S11309E0CF93DF93CDB7DEB710921D010E949C0513
S11309F040E251E06EE171E08DE191E00E94AB05CF
S1130A008DE191E00E949C0769E675E082E291E045
S1130A100E94CB0A44E050E060E070E082E291E0A2
S1130A200E94910B62E771E085E091E00E94CB0A9D
S1130A3044EF51E060E070E085E091E00E94910BAA
S1130A4085E290E025E230E0F90120812F7BFC0172
S1130A50208384E290E024E230E0F90120812064E4
S1130A60FC012083DF91CF910895CF93DF9300D0D1
S1130A7000D0CDB7DEB769837A838B839C83898169
S1130A809A81AB81BC81811522E09207A105B10551
S1130A90B1F0811524E09207A105B10591F0029708
S1130AA0A105B10509F00EC00E943A0844EF51E0D7
S1130AB060E070E085E091E00E94910B03C00000CB
S1130AC001C000000F900F900F900F90DF91CF9115
S1130AD00895CF93DF9300D000D0CDB7DEB76983FC
S1130AE07A838B839C83809104010E94EC050E948D
S1130AF0880544E050E060E070E082E291E00E940A
S1130B00910B0F900F900F900F90DF91CF9108955C
S1130B10CF93DF93CDB7DEB780910401833021F406
S1130B2082E08093040105C0809104018F5F80936B
S1130B300401DF91CF910895CF93DF93CDB7DEB752
S1130B4042E050E06FEF70E08EE191E00E94DE0D34
S1130B50DF91CF910895CF93DF9300D000D000D0E0
S1130B60CDB7DEB79A8389837C836B835E834D83A1
S1130B7082E290E022E230E0F90120812061FC0170
S1130B80208381E290E021E230E0F90120812061BC
S1130B90FC0120834CE050E060E070E080E00E94C3
S1130BA0AD0289819A8190932701809326018B81DC
S1130BB09C8190932901809328018D819E8190933B
S1130BC02B0180932A0126960FB6F894DEBF0FBE40
S1130BD0CDBFDF91CF910895CF93DF931F92CDB70F
S1130BE0DEB7898340E0698180E00E9426030F908C
S1130BF0DF91CF910895CF93DF9300D01F92CDB7AB
S1130C00DEB780ED90E0FC0180818F738983809151
S1130C10260190912701FC0190818981981729F47C
S1130C2062E080E00E94A2033CC080912601909182
S1130C302701FC018081982F91608981981751F4D4
S1130C4080912A0190912B0142E0BC0180E00E9436
S1130C50E20327C08091260190912701FC01808145
S1130C608823F9F48981882F90E081709927892B52
S1130C70A1F420912801309129018981882F90E0E5
S1130C800297820F931F9B838A838A819B8142E010
S1130C90BC0180E00E94E20304C062E080E00E94A4
S1130CA0A2030F900F900F90DF91CF910895CF93EF
S1130CB0DF93CDB7DEB78091260190912701FC0127
S1130CC080818823C1F420912A0130912B0180ED89
S1130CD090E0FC018081882F90E08E739927029721
S1130CE0820F931F0E94440460E072E080E090E071
S1130CF00E9472010CC080912801909129010E94E8
S1130D00440460E470E080E090E00E947201DF91AE
S1130D10CF910895CF93DF93CDB7DEB7DF91CF9115
S1130D200895CF93DF93CDB7DEB780912C018F5F09
S1130D3080932C01DF91CF9108951F920F92009020
S1130D405F000F9211242F933F934F935F936F9300
S1130D507F938F939F93AF93BF93EF93FF93CF931F
S1130D60DF93CDB7DEB789EC90E0FC018081882F5A
S1130D7090E08F70992782309105B1F0843091050D
S1130D8019F0019749F018C00E94FB0589EC90E026
S1130D9024E0FC01208310C00E94570689EC90E0F7
S1130DA021E0FC01208308C00E948A0689EC90E0BF
S1130DB022E0FC0120830000DF91CF91FF91EF91AD
S1130DC0BF91AF919F918F917F916F915F914F915F
S1130DD03F912F910F9000925F000F901F901895F4
S1130DE01F920F9200905F000F9211242F933F9354
S1130DF04F935F936F937F938F939F93AF93BF931F
S1130E00EF93FF93CF93DF93CDB7DEB78BEC90E0F6
S1130E10FC0180810E94910689EC90E028E0FC01AD
S1130E202083DF91CF91FF91EF91BF91AF919F917B
S1130E308F917F916F915F914F913F912F910F907F
S1130E4000925F000F901F901895CF93DF93CDB75A
S1130E50DEB7F89481E0DF91CF910895CF93DF93CB
S1130E6000D0CDB7DEB79A8389838FE590E02981DE
S1130E703A81F9012081FC0120830F900F90DF91CA
S1130E80CF910895CF93DF9300D0CDB7DEB78FE530
S1130E9090E0FC0180818A830E94250789833FC0FA
S1130EA082E890E0FC0110828FE690E0FC01108261
S1130EB083E890E024E2FC01208384E290E024E2D1
S1130EC030E0F90120812861FC01208386E890E06C
S1130ED02FE133E0FC013183208388E890E02FEF99
S1130EE03FEFFC01318320838AE890E02FEF3FEF4E
S1130EF0FC013183208380E890E022EFFC01208311
S1130F0081E890E028E1FC01208381E890E021E879
S1130F1030E0F90120812160FC012083198289815C
S1130F20882309F0BDCFCE0102960E942E070F90B0
S1130F300F90DF91CF910895CF93DF9300D0CDB779
S1130F40DEB79A83898389819A81FC0180818093A9
S1130F502D0180912D01882349F581E290E021E261
S1130F6030E0F90120812063FC01208381E290E0DC
S1130F7021E230E0F90120812F7BFC0120838CE405
S1130F8090E020EDFC01208382E290E022E230E058
S1130F90F90120812064FC0120831092BA0110928F
S1130FA0BC011092BB010E94F60816C081E290E0D9
S1130FB021E230E0F90120812460FC0120838CE4EB
S1130FC090E020ECFC0120831092BA011092BC0145
S1130FD01092BB010E94F6080F900F90DF91CF9101
S1130FE00895CF93DF93CDB7DEB78091BA01282F50
S1130FF030E0C901880F991F820F931F880F991F32
S1131000825D9E4FFC0180818093BD018091BA0175
S1131010282F30E0C901880F991F820F931F880F72
S1131020991F815D9E4FFC0180818093BE011092C7
S1131030BB011092BC0181E08093BF0182E290E089
S113104022E230E0F90120812F7BFC012083DF9133
S1131050CF910895CF93DF93CDB7DEB782E290E0CE
S113106022E230E0F90120812064FC012083DF9139
S1131070CF910895CF93DF93CDB7DEB74EE450E020
S11310808091BA01282F30E08091BC01882F90E034
S1131090BC016E5F7F4FC901880F991F820F931F98
S11310A0880F991F860F971F825D9E4FFC018081D8
S11310B0FA0180838091BF01882331F08091BC01C3
S11310C08F5F8093BC0105C08091BC018F5F8093CA
S11310D0BC01DF91CF9108951F920F9200905F00A1
S11310E00F9211242F933F934F935F936F937F93AA
S11310F08F939F93AF93BF93EF93FF93CF93DF931C
S11311001F92CDB7DEB780912D01882309F059C015
S11311108DE490E0FC01808189838091BF01882364
S113112079F09091BC018091BD01891738F068E095
S113113070E080E090E00E94720102C01092BF0152
S11311409091BF0181E089278823D9F18091BA0168
S1131150282F30E08091BB01882F90E0220F331FAD
S1131160220F331F820F931F880F991F86599E4F9A
S1131170FC01808191812EE430E0F9012081FC01A1
S113118020838091BB018F5F8093BB019091BB0151
S11311908091BE01981738F460E170E080E090E03F
S11311A00E9472010EC09091BB018091BE019817FC
S11311B041F40E944F0960E270E080E090E00E94F8
S11311C072010F90DF91CF91FF91EF91BF91AF9199
S11311D09F918F917F916F915F914F913F912F914B
S11311E00F9000925F000F901F901895CF93DF939C
S11311F000D000D000D0CDB7DEB71A82198241C02A
S11312001C821B8217C029813A81C901880F991F4A
S1131210820F931F880F991F2B813C81820F931F8C
S1131220825D9E4F2FEFFC0120838B819C81019670
S11312309C838B838B819C8106972CF31E821D8259
S113124017C089819A819C01220F331F220F331FFB
S11312508D819E81820F931F880F991F86599E4FFF
S1131260FC01118210828D819E8101969E838D8363
S11312708D819E8104972CF389819A8101969A83AA
S1131280898389819A810A970CF4BACF26960FB67E
S1131290F894DEBF0FBECDBFDF91CF910895CF93F9
S11312A0DF9300D000D0CDB7DEB71A82198219C0FF
S11312B08091BA01282F30E0C901880F991F820F4D
S11312C0931F880F991F29813A81820F931F825D92
S11312D09E4F2FEFFC01208389819A8101969A8386
S11312E0898389819A8106971CF31C821B8219C009
S11312F08091BA01882F90E09C01220F331F220FA6
S1131300331F8B819C81820F931F880F991F8659ED
S11313109E4FFC01118210828B819C8101969C83DB
S11313208B838B819C8104971CF38091BA01893053
S113133019F41092BA0105C08091BA018F5F8093AD
S1131340BA018091BA01282F30E0C901880F991F92
S1131350820F931F880F991F825D9E4FFC0180812D
S11313608F3F31F064E070E080E090E00E94720111
S11313700F900F900F900F90DF91CF910895CF931E
S1131380DF93CDB7DEB71092C001DF91CF910895FE
S1131390CF93DF9300D000D0CDB7DEB769837A83D3
S11313A08B839C838091C001882F90E081309105CC
S11313B0D1F082309105E9F1892B09F052C089817D
S11313C09A81AB81BC810497A105B10559F40E94AF
S11313D0F10781E08093C00168E070E080E090E074
S11313E00E9472013EC089819A81AB81BC810897B9
S11313F0A105B10519F40E943A081AC089819A819D
S1131400AB81BC814097A105B10531F40E943A0833
S113141082E08093C0010CC089819A81AB81BC8138
S11314208097A105B10521F40E942A081092C001F9
S113143018C089819A81AB81BC814097A105B1050F
S113144011F40E943A0889819A81AB81BC8180970A
S1131450A105B10529F40E942A081092C00100C018
S113146000000F900F900F900F90DF91CF9108958F
S1131470CF93DF9300D0CDB7DEB71A82198262C052
S113148029813A81C901880F991F820F931F880F00
S1131490991F880F991F820F931F8F539E4FFC0132
S11314A01182108229813A81C901880F991F820F04
S11314B0931F880F991F880F991F820F931F8D53B5
S11314C09E4FFC011182108229813A81C901880F43
S11314D0991F820F931F880F991F880F991F820FDE
S11314E0931F8B539E4FFC01108229813A81C901BD
S11314F0880F991F820F931F880F991F880F991FB8
S1131500820F931F8A539E4FFC0110821182128214
S1131510138229813A81C901880F991F820F931F71
S1131520880F991F880F991F820F931F86539E4F10
S1131530FC01108211821282138289819A810196A0
S11315409A83898389819A8108970CF499CF85E4D9
S113155090E0FC01108286E490E0FC01108288E4B3
S113156090E0FC01108288E490E028E430E0F90186
S113157020812C59FC0120838EE690E022E0FC01BE
S1131580208386E490E022E0FC0120830F900F90FA
S1131590DF91CF910895CF93DF93CDB7DEB729972D
S11315A00FB6F894DEBF0FBECDBF9F838E837987BD
S11315B0688781E089831B821A821EC02A813B814D
S11315C0C901880F991F820F931F880F991F880FD5
S11315D0991F820F931F8F539E4FFC0120813181ED
S11315E08E819F812817390711F4198209C08A81D5
S11315F09B8101969B838A838A819B810897F4F25D
S11316008981882309F484C01D821C827CC02C81BA
S11316103D81C901880F991F820F931F880F991F5D
S1131620880F991F820F931F8F539E4FFC01808157
S11316309181892B09F062C02C813D81C901880FF9
S1131640991F820F931F880F991F880F991F820F6C
S1131650931F8F539E4F2E813F81FC013183208342
S11316602C813D81C901880F991F820F931F880F18
S1131670991F880F991F820F931F8D539E4F2885A2
S11316803985FC01318320832C813D81C901880F78
S1131690991F820F931F880F991F880F991F820F1C
S11316A0931F8B539E4FFC0110822C813D81C901F5
S11316B0880F991F820F931F880F991F880F991FF6
S11316C0820F931F8A539E4FFC0110821182128253
S11316D013822C813D81C901880F991F820F931FAA
S11316E0880F991F880F991F820F931F86539E4F4F
S11316F0FC0110821182128213820AC08C819D81A6
S113170001969D838C838C819D8108970CF47FCFF7
S113171029960FB6F894DEBF0FBECDBFDF91CF91EF
S11317200895CF93DF93CDB7DEB728970FB6F8941B
S1131730DEBF0FBECDBF9C838B834D835E836F83DF
S113174078871A8219826EC029813A81C901880F6B
S1131750991F820F931F880F991F880F991F820F5B
S1131760931F8F539E4FFC01208131818B819C817B
S11317702817390709F051C029813A81C901880F16
S1131780991F820F931F880F991F880F991F820F2B
S1131790931F8B539E4F21E0FC01208329813A81C2
S11317A0C901880F991F820F931F880F991F880FF3
S11317B0991F820F931F8A539E4FFC01108211823E
S11317C0128213828D819E81AF81B885880F991F03
S11317D0AA1FBB1F9C01AD01220F331F441F551FBD
S11317E0220F331F441F551F280F391F4A1F5B1F29
S11317F069817A81CB01880F991F860F971F880F03
S1131800991F880F991F860F971F86539E4FFC01BF
S113181020833183428353830AC089819A8101964C
S11318209A83898389819A8108970CF48DCF2896AD
S11318300FB6F894DEBF0FBECDBFDF91CF910895F0
S1131840CF93DF93CDB7DEB728970FB6F894DEBFFA
S11318500FBECDBF9C838B834D835E836F8378875C
S11318601A8219825DC029813A81C901880F991FA2
S1131870820F931F880F991F880F991F820F931F40
S11318808F539E4FFC01208131818B819C812817CD
S1131890390709F040C029813A81C901880F991F8D
S11318A0820F931F880F991F880F991F820F931F10
S11318B08B539E4F21E0FC01208329813A81C90189
S11318C0880F991F820F931F880F991F880F991FE4
S11318D0820F931F8A539E4FFC0110821182128241
S11318E0138229813A81C901880F991F820F931F9E
S11318F0880F991F880F991F820F931F9C012653ED
S11319003E4F8D819E81AF81B885F901808391839B
S1131910A283B3830AC089819A8101969A838983B9
S113192089819A8108970CF49ECF28960FB6F89473
S1131930DEBF0FBECDBFDF91CF9108951F920F92EE
S113194000905F000F9211242F933F934F935F9366
S11319506F937F938F939F93AF93BF93EF93FF9373
S1131960CF93DF9300D0CDB7DEB788E490E028E4CE
S113197030E0F90120812C59FC0120831A8219825C
S113198002C129813A81C901880F991F820F931FCF
S1131990880F991F880F991F820F931F8B539E4F97
S11319A0FC018081882309F4E9C029813A81C901B5
S11319B0880F991F820F931F880F991F880F991FF3
S11319C0820F931F86539E4FFC0180819181A281D7
S11319D0B381892B8A2B8B2B09F45CC029813A8132
S11319E0C901880F991F820F931F880F991F880FB1
S11319F0991F820F931F8A539E4FFC01808191810E
S1131A00A281B3819C01AD012F5F3F4F4F4F5F4FC8
S1131A1069817A81CB01880F991F860F971F880FE0
S1131A20991F880F991F860F971F8A539E4FFC0199
S1131A30208331834283538329813A81C901880FEA
S1131A40991F820F931F880F991F880F991F820F68
S1131A50931F86539E4FFC0180819181A281B381A3
S1131A609C01AD01215031094109510969817A81F3
S1131A70CB01880F991F860F971F880F991F880F16
S1131A80991F860F971F86539E4FFC012083318335
S1131A904283538329813A81C901880F991F820F98
S1131AA0931F880F991F880F991F820F931F8653C6
S1131AB09E4FFC0180819181A281B381892B8A2B65
S1131AC08B2B09F05BC029813A81C901880F991FCA
S1131AD0820F931F880F991F880F991F820F931FDE
S1131AE08B539E4FFC01108229813A81C901880FD2
S1131AF0991F820F931F880F991F880F991F820FB8
S1131B00931F8D539E4FFC0180819181892BB1F1EC
S1131B1088E490E027E430E0F90120812C59FC01AD
S1131B20208329813A81C901880F991F820F931F4D
S1131B30880F991F880F991F820F931F8D539E4FF3
S1131B40FC014081518129813A81C901880F991F83
S1131B50820F931F880F991F880F991F820F931F5D
S1131B608F539E4FFC0180819181FC018081918182
S1131B70A281B381BC01CD01FA01099589819A81C1
S1131B8001969A83898389819A8108970CF4F9CE06
S1131B900F900F90DF91CF91FF91EF91BF91AF9193
S1131BA09F918F917F916F915F914F913F912F9171
S1131BB00F9000925F000F901F901895DC0101C0F8
S1111BC06D9341505040E0F70895F894FFCF24
S10D1BCEFFFF0A0A020200000000F3
S9030000FC
